{
  "contractName": "KargainV01",
  "abi": [
    {
      "anonymous": false,
      "inputs": [
        {
          "indexed": true,
          "internalType": "address",
          "name": "owner",
          "type": "address"
        },
        {
          "indexed": true,
          "internalType": "address",
          "name": "approved",
          "type": "address"
        },
        {
          "indexed": true,
          "internalType": "uint256",
          "name": "tokenId",
          "type": "uint256"
        }
      ],
      "name": "Approval",
      "type": "event"
    },
    {
      "anonymous": false,
      "inputs": [
        {
          "indexed": true,
          "internalType": "address",
          "name": "owner",
          "type": "address"
        },
        {
          "indexed": true,
          "internalType": "address",
          "name": "operator",
          "type": "address"
        },
        {
          "indexed": false,
          "internalType": "bool",
          "name": "approved",
          "type": "bool"
        }
      ],
      "name": "ApprovalForAll",
      "type": "event"
    },
    {
      "anonymous": false,
      "inputs": [
        {
          "indexed": true,
          "internalType": "address",
          "name": "payer",
          "type": "address"
        },
        {
          "indexed": false,
          "internalType": "uint256",
          "name": "tokenId",
          "type": "uint256"
        }
      ],
      "name": "OfferAccepted",
      "type": "event"
    },
    {
      "anonymous": false,
      "inputs": [
        {
          "indexed": true,
          "internalType": "address",
          "name": "payer",
          "type": "address"
        },
        {
          "indexed": false,
          "internalType": "uint256",
          "name": "tokenId",
          "type": "uint256"
        }
      ],
      "name": "OfferCancelled",
      "type": "event"
    },
    {
      "anonymous": false,
      "inputs": [
        {
          "indexed": true,
          "internalType": "address",
          "name": "payer",
          "type": "address"
        },
        {
          "indexed": false,
          "internalType": "uint256",
          "name": "tokenId",
          "type": "uint256"
        }
      ],
      "name": "OfferExpired",
      "type": "event"
    },
    {
      "anonymous": false,
      "inputs": [
        {
          "indexed": true,
          "internalType": "address",
          "name": "payer",
          "type": "address"
        },
        {
          "indexed": false,
          "internalType": "uint256",
          "name": "tokenId",
          "type": "uint256"
        },
        {
          "indexed": false,
          "internalType": "uint256",
          "name": "amount",
          "type": "uint256"
        }
      ],
      "name": "OfferReceived",
      "type": "event"
    },
    {
      "anonymous": false,
      "inputs": [
        {
          "indexed": true,
          "internalType": "address",
          "name": "payer",
          "type": "address"
        },
        {
          "indexed": false,
          "internalType": "uint256",
          "name": "tokenId",
          "type": "uint256"
        }
      ],
      "name": "OfferRejected",
      "type": "event"
    },
    {
      "anonymous": false,
      "inputs": [
        {
          "indexed": true,
          "internalType": "bytes32",
          "name": "role",
          "type": "bytes32"
        },
        {
          "indexed": true,
          "internalType": "bytes32",
          "name": "previousAdminRole",
          "type": "bytes32"
        },
        {
          "indexed": true,
          "internalType": "bytes32",
          "name": "newAdminRole",
          "type": "bytes32"
        }
      ],
      "name": "RoleAdminChanged",
      "type": "event"
    },
    {
      "anonymous": false,
      "inputs": [
        {
          "indexed": true,
          "internalType": "bytes32",
          "name": "role",
          "type": "bytes32"
        },
        {
          "indexed": true,
          "internalType": "address",
          "name": "account",
          "type": "address"
        },
        {
          "indexed": true,
          "internalType": "address",
          "name": "sender",
          "type": "address"
        }
      ],
      "name": "RoleGranted",
      "type": "event"
    },
    {
      "anonymous": false,
      "inputs": [
        {
          "indexed": true,
          "internalType": "bytes32",
          "name": "role",
          "type": "bytes32"
        },
        {
          "indexed": true,
          "internalType": "address",
          "name": "account",
          "type": "address"
        },
        {
          "indexed": true,
          "internalType": "address",
          "name": "sender",
          "type": "address"
        }
      ],
      "name": "RoleRevoked",
      "type": "event"
    },
    {
      "anonymous": false,
      "inputs": [
        {
          "indexed": true,
          "internalType": "address",
          "name": "creator",
          "type": "address"
        },
        {
          "indexed": true,
          "internalType": "uint256",
          "name": "tokenId",
          "type": "uint256"
        }
      ],
      "name": "TokenMinted",
      "type": "event"
    },
    {
      "anonymous": false,
      "inputs": [
        {
          "indexed": true,
          "internalType": "address",
          "name": "from",
          "type": "address"
        },
        {
          "indexed": true,
          "internalType": "address",
          "name": "to",
          "type": "address"
        },
        {
          "indexed": true,
          "internalType": "uint256",
          "name": "tokenId",
          "type": "uint256"
        }
      ],
      "name": "Transfer",
      "type": "event"
    },
    {
      "inputs": [],
      "name": "DEFAULT_ADMIN_ROLE",
      "outputs": [
        {
          "internalType": "bytes32",
          "name": "",
          "type": "bytes32"
        }
      ],
      "stateMutability": "view",
      "type": "function",
      "constant": true
    },
    {
      "inputs": [
        {
          "internalType": "address",
          "name": "to",
          "type": "address"
        },
        {
          "internalType": "uint256",
          "name": "tokenId",
          "type": "uint256"
        }
      ],
      "name": "approve",
      "outputs": [],
      "stateMutability": "nonpayable",
      "type": "function"
    },
    {
      "inputs": [
        {
          "internalType": "address",
          "name": "owner",
          "type": "address"
        }
      ],
      "name": "balanceOf",
      "outputs": [
        {
          "internalType": "uint256",
          "name": "",
          "type": "uint256"
        }
      ],
      "stateMutability": "view",
      "type": "function",
      "constant": true
    },
    {
      "inputs": [],
      "name": "baseURI",
      "outputs": [
        {
          "internalType": "string",
          "name": "",
          "type": "string"
        }
      ],
      "stateMutability": "view",
      "type": "function",
      "constant": true
    },
    {
      "inputs": [
        {
          "internalType": "uint256",
          "name": "tokenId",
          "type": "uint256"
        }
      ],
      "name": "burn",
      "outputs": [],
      "stateMutability": "nonpayable",
      "type": "function"
    },
    {
      "inputs": [
        {
          "internalType": "uint256",
          "name": "tokenId",
          "type": "uint256"
        }
      ],
      "name": "getApproved",
      "outputs": [
        {
          "internalType": "address",
          "name": "",
          "type": "address"
        }
      ],
      "stateMutability": "view",
      "type": "function",
      "constant": true
    },
    {
      "inputs": [
        {
          "internalType": "bytes32",
          "name": "role",
          "type": "bytes32"
        }
      ],
      "name": "getRoleAdmin",
      "outputs": [
        {
          "internalType": "bytes32",
          "name": "",
          "type": "bytes32"
        }
      ],
      "stateMutability": "view",
      "type": "function",
      "constant": true
    },
    {
      "inputs": [
        {
          "internalType": "bytes32",
          "name": "role",
          "type": "bytes32"
        },
        {
          "internalType": "uint256",
          "name": "index",
          "type": "uint256"
        }
      ],
      "name": "getRoleMember",
      "outputs": [
        {
          "internalType": "address",
          "name": "",
          "type": "address"
        }
      ],
      "stateMutability": "view",
      "type": "function",
      "constant": true
    },
    {
      "inputs": [
        {
          "internalType": "bytes32",
          "name": "role",
          "type": "bytes32"
        }
      ],
      "name": "getRoleMemberCount",
      "outputs": [
        {
          "internalType": "uint256",
          "name": "",
          "type": "uint256"
        }
      ],
      "stateMutability": "view",
      "type": "function",
      "constant": true
    },
    {
      "inputs": [
        {
          "internalType": "bytes32",
          "name": "role",
          "type": "bytes32"
        },
        {
          "internalType": "address",
          "name": "account",
          "type": "address"
        }
      ],
      "name": "grantRole",
      "outputs": [],
      "stateMutability": "nonpayable",
      "type": "function"
    },
    {
      "inputs": [
        {
          "internalType": "bytes32",
          "name": "role",
          "type": "bytes32"
        },
        {
          "internalType": "address",
          "name": "account",
          "type": "address"
        }
      ],
      "name": "hasRole",
      "outputs": [
        {
          "internalType": "bool",
          "name": "",
          "type": "bool"
        }
      ],
      "stateMutability": "view",
      "type": "function",
      "constant": true
    },
    {
      "inputs": [
        {
          "internalType": "address",
          "name": "owner",
          "type": "address"
        },
        {
          "internalType": "address",
          "name": "operator",
          "type": "address"
        }
      ],
      "name": "isApprovedForAll",
      "outputs": [
        {
          "internalType": "bool",
          "name": "",
          "type": "bool"
        }
      ],
      "stateMutability": "view",
      "type": "function",
      "constant": true
    },
    {
      "inputs": [],
      "name": "name",
      "outputs": [
        {
          "internalType": "string",
          "name": "",
          "type": "string"
        }
      ],
      "stateMutability": "view",
      "type": "function",
      "constant": true
    },
    {
      "inputs": [
        {
          "internalType": "uint256",
          "name": "tokenId",
          "type": "uint256"
        }
      ],
      "name": "ownerOf",
      "outputs": [
        {
          "internalType": "address",
          "name": "",
          "type": "address"
        }
      ],
      "stateMutability": "view",
      "type": "function",
      "constant": true
    },
    {
      "inputs": [
        {
          "internalType": "bytes32",
          "name": "role",
          "type": "bytes32"
        },
        {
          "internalType": "address",
          "name": "account",
          "type": "address"
        }
      ],
      "name": "renounceRole",
      "outputs": [],
      "stateMutability": "nonpayable",
      "type": "function"
    },
    {
      "inputs": [
        {
          "internalType": "bytes32",
          "name": "role",
          "type": "bytes32"
        },
        {
          "internalType": "address",
          "name": "account",
          "type": "address"
        }
      ],
      "name": "revokeRole",
      "outputs": [],
      "stateMutability": "nonpayable",
      "type": "function"
    },
    {
      "inputs": [
        {
          "internalType": "address",
          "name": "from",
          "type": "address"
        },
        {
          "internalType": "address",
          "name": "to",
          "type": "address"
        },
        {
          "internalType": "uint256",
          "name": "tokenId",
          "type": "uint256"
        }
      ],
      "name": "safeTransferFrom",
      "outputs": [],
      "stateMutability": "nonpayable",
      "type": "function"
    },
    {
      "inputs": [
        {
          "internalType": "address",
          "name": "from",
          "type": "address"
        },
        {
          "internalType": "address",
          "name": "to",
          "type": "address"
        },
        {
          "internalType": "uint256",
          "name": "tokenId",
          "type": "uint256"
        },
        {
          "internalType": "bytes",
          "name": "_data",
          "type": "bytes"
        }
      ],
      "name": "safeTransferFrom",
      "outputs": [],
      "stateMutability": "nonpayable",
      "type": "function"
    },
    {
      "inputs": [
        {
          "internalType": "address",
          "name": "operator",
          "type": "address"
        },
        {
          "internalType": "bool",
          "name": "approved",
          "type": "bool"
        }
      ],
      "name": "setApprovalForAll",
      "outputs": [],
      "stateMutability": "nonpayable",
      "type": "function"
    },
    {
      "inputs": [
        {
          "internalType": "bytes4",
          "name": "interfaceId",
          "type": "bytes4"
        }
      ],
      "name": "supportsInterface",
      "outputs": [
        {
          "internalType": "bool",
          "name": "",
          "type": "bool"
        }
      ],
      "stateMutability": "view",
      "type": "function",
      "constant": true
    },
    {
      "inputs": [],
      "name": "symbol",
      "outputs": [
        {
          "internalType": "string",
          "name": "",
          "type": "string"
        }
      ],
      "stateMutability": "view",
      "type": "function",
      "constant": true
    },
    {
      "inputs": [
        {
          "internalType": "uint256",
          "name": "index",
          "type": "uint256"
        }
      ],
      "name": "tokenByIndex",
      "outputs": [
        {
          "internalType": "uint256",
          "name": "",
          "type": "uint256"
        }
      ],
      "stateMutability": "view",
      "type": "function",
      "constant": true
    },
    {
      "inputs": [
        {
          "internalType": "address",
          "name": "owner",
          "type": "address"
        },
        {
          "internalType": "uint256",
          "name": "index",
          "type": "uint256"
        }
      ],
      "name": "tokenOfOwnerByIndex",
      "outputs": [
        {
          "internalType": "uint256",
          "name": "",
          "type": "uint256"
        }
      ],
      "stateMutability": "view",
      "type": "function",
      "constant": true
    },
    {
      "inputs": [
        {
          "internalType": "uint256",
          "name": "tokenId",
          "type": "uint256"
        }
      ],
      "name": "tokenURI",
      "outputs": [
        {
          "internalType": "string",
          "name": "",
          "type": "string"
        }
      ],
      "stateMutability": "view",
      "type": "function",
      "constant": true
    },
    {
      "inputs": [],
      "name": "totalSupply",
      "outputs": [
        {
          "internalType": "uint256",
          "name": "",
          "type": "uint256"
        }
      ],
      "stateMutability": "view",
      "type": "function",
      "constant": true
    },
    {
      "inputs": [
        {
          "internalType": "address",
          "name": "from",
          "type": "address"
        },
        {
          "internalType": "address",
          "name": "to",
          "type": "address"
        },
        {
          "internalType": "uint256",
          "name": "tokenId",
          "type": "uint256"
        }
      ],
      "name": "transferFrom",
      "outputs": [],
      "stateMutability": "nonpayable",
      "type": "function"
    },
    {
      "inputs": [
        {
          "internalType": "address payable",
          "name": "_platformAddress_",
          "type": "address"
        },
        {
          "internalType": "uint256",
          "name": "_platformCommissionPercent_",
          "type": "uint256"
        }
      ],
      "name": "initialize",
      "outputs": [],
      "stateMutability": "nonpayable",
      "type": "function"
    },
    {
      "inputs": [],
      "name": "platformCommissionPercent",
      "outputs": [
        {
          "internalType": "uint256",
          "name": "",
          "type": "uint256"
        }
      ],
      "stateMutability": "view",
      "type": "function",
      "constant": true
    },
    {
      "inputs": [
        {
          "internalType": "uint256",
          "name": "platformCommissionPercent_",
          "type": "uint256"
        }
      ],
      "name": "setPlatformCommissionPercent",
      "outputs": [],
      "stateMutability": "nonpayable",
      "type": "function"
    },
    {
      "inputs": [],
      "name": "platformAddress",
      "outputs": [
        {
          "internalType": "address payable",
          "name": "",
          "type": "address"
        }
      ],
      "stateMutability": "view",
      "type": "function",
      "constant": true
    },
    {
      "inputs": [
        {
          "internalType": "address payable",
          "name": "platformAddress_",
          "type": "address"
        }
      ],
      "name": "setPlatformAddress",
      "outputs": [],
      "stateMutability": "nonpayable",
      "type": "function"
    },
    {
      "inputs": [],
      "name": "offerExpirationTime",
      "outputs": [
        {
          "internalType": "uint256",
          "name": "",
          "type": "uint256"
        }
      ],
      "stateMutability": "view",
      "type": "function",
      "constant": true
    },
    {
      "inputs": [
        {
          "internalType": "uint256",
          "name": "offerExpirationTime_",
          "type": "uint256"
        }
      ],
      "name": "setOfferExpirationTime",
      "outputs": [],
      "stateMutability": "nonpayable",
      "type": "function"
    },
    {
      "inputs": [
        {
          "internalType": "uint256",
          "name": "_tokenId",
          "type": "uint256"
        }
      ],
      "name": "offerExpiration",
      "outputs": [
        {
          "internalType": "bool",
          "name": "",
          "type": "bool"
        }
      ],
      "stateMutability": "view",
      "type": "function",
      "constant": true
    },
    {
      "inputs": [
        {
          "internalType": "uint256",
          "name": "_tokenId",
          "type": "uint256"
        }
      ],
      "name": "tokenPrice",
      "outputs": [
        {
          "internalType": "uint256",
          "name": "",
          "type": "uint256"
        }
      ],
      "stateMutability": "view",
      "type": "function",
      "constant": true
    },
    {
      "inputs": [
        {
          "internalType": "uint256",
          "name": "_tokenId",
          "type": "uint256"
        },
        {
          "internalType": "uint256",
          "name": "_price",
          "type": "uint256"
        }
      ],
      "name": "setTokenPrice",
      "outputs": [],
      "stateMutability": "nonpayable",
      "type": "function"
    },
    {
      "inputs": [
        {
          "internalType": "uint256",
          "name": "_tokenId",
          "type": "uint256"
        }
      ],
      "name": "offerAddress",
      "outputs": [
        {
          "internalType": "address payable",
          "name": "",
          "type": "address"
        }
      ],
      "stateMutability": "view",
      "type": "function",
      "constant": true
    },
    {
      "inputs": [
        {
          "internalType": "uint256",
          "name": "_tokenId",
          "type": "uint256"
        },
        {
          "internalType": "uint256",
          "name": "_price",
          "type": "uint256"
        }
      ],
      "name": "mint",
      "outputs": [],
      "stateMutability": "nonpayable",
      "type": "function"
    },
    {
      "inputs": [
        {
          "internalType": "uint256",
          "name": "_tokenId",
          "type": "uint256"
        }
      ],
      "name": "createOffer",
      "outputs": [],
      "stateMutability": "payable",
      "type": "function",
      "payable": true
    },
    {
      "inputs": [
        {
          "internalType": "uint256",
          "name": "_tokenId",
          "type": "uint256"
        }
      ],
      "name": "acceptOffer",
      "outputs": [],
      "stateMutability": "nonpayable",
      "type": "function"
    },
    {
      "inputs": [
        {
          "internalType": "uint256",
          "name": "_tokenId",
          "type": "uint256"
        }
      ],
      "name": "rejectOffer",
      "outputs": [],
      "stateMutability": "nonpayable",
      "type": "function"
    },
    {
      "inputs": [
        {
          "internalType": "uint256",
          "name": "_tokenId",
          "type": "uint256"
        }
      ],
      "name": "cancelOffer",
      "outputs": [],
      "stateMutability": "nonpayable",
      "type": "function"
    },
    {
      "inputs": [],
      "name": "version",
      "outputs": [
        {
          "internalType": "string",
          "name": "",
          "type": "string"
        }
      ],
      "stateMutability": "pure",
      "type": "function",
      "constant": true
    }
  ],
  "bytecode": "0x608060405234801561001057600080fd5b50615ff880620000216000396000f3fe60806040526004361061025c5760003560e01c806388b10c7511610144578063c87b56dd116100b6578063d547741f1161007a578063d547741f14611072578063dbe55e56146110cd578063df1506e81461110e578063e985e9c514611139578063eb685c47146111c0578063ef706adf146112055761025c565b8063c87b56dd14610e74578063ca15c87314610f28578063cc03c34214610f77578063cd6dc68714610fc8578063d4ddce8a146110235761025c565b8063a22cb46511610108578063a22cb46514610bfc578063a269993d14610c59578063b88d4fde14610c87578063bf82835b14610d99578063c6ba6a1d14610dd4578063c815729d14610e395761025c565b806388b10c7514610a265780639010d07c14610a6157806391d1485414610ad057806395d89b4114610b41578063a217fddf14610bd15761025c565b80632f2ff15d116101dd5780634f6ccce7116101a15780634f6ccce71461079c57806354fd4d50146107eb5780636352211e1461087b5780636c0360eb146108e057806370a082311461097057806379d6c303146109d55761025c565b80632f2ff15d146105c15780632f745c591461061c57806336568abe1461068b57806342842e0e146106e657806342966c68146107615761025c565b80631a4ba059116102245780631a4ba0591461044c5780631b2ef1ca1461048757806323b872dd146104cc578063248a9ca314610547578063271e044e146105965761025c565b806301ffc9a71461026157806306fdde03146102d1578063081812fc14610361578063095ea7b3146103c657806318160ddd14610421575b600080fd5b34801561026d57600080fd5b506102b96004803603602081101561028457600080fd5b8101908080357bffffffffffffffffffffffffffffffffffffffffffffffffffffffff19169060200190929190505050611240565b60405180821515815260200191505060405180910390f35b3480156102dd57600080fd5b506102e66112a8565b6040518080602001828103825283818151815260200191508051906020019080838360005b8381101561032657808201518184015260208101905061030b565b50505050905090810190601f1680156103535780820380516001836020036101000a031916815260200191505b509250505060405180910390f35b34801561036d57600080fd5b5061039a6004803603602081101561038457600080fd5b810190808035906020019092919050505061134a565b604051808273ffffffffffffffffffffffffffffffffffffffff16815260200191505060405180910390f35b3480156103d257600080fd5b5061041f600480360360408110156103e957600080fd5b81019080803573ffffffffffffffffffffffffffffffffffffffff169060200190929190803590602001909291905050506113e5565b005b34801561042d57600080fd5b50610436611529565b6040518082815260200191505060405180910390f35b34801561045857600080fd5b506104856004803603602081101561046f57600080fd5b810190808035906020019092919050505061153a565b005b34801561049357600080fd5b506104ca600480360360408110156104aa57600080fd5b8101908080359060200190929190803590602001909291905050506115ca565b005b3480156104d857600080fd5b50610545600480360360608110156104ef57600080fd5b81019080803573ffffffffffffffffffffffffffffffffffffffff169060200190929190803573ffffffffffffffffffffffffffffffffffffffff169060200190929190803590602001909291905050506116ec565b005b34801561055357600080fd5b506105806004803603602081101561056a57600080fd5b8101908080359060200190929190505050611762565b6040518082815260200191505060405180910390f35b3480156105a257600080fd5b506105ab611782565b6040518082815260200191505060405180910390f35b3480156105cd57600080fd5b5061061a600480360360408110156105e457600080fd5b8101908080359060200190929190803573ffffffffffffffffffffffffffffffffffffffff16906020019092919050505061178c565b005b34801561062857600080fd5b506106756004803603604081101561063f57600080fd5b81019080803573ffffffffffffffffffffffffffffffffffffffff16906020019092919080359060200190929190505050611816565b6040518082815260200191505060405180910390f35b34801561069757600080fd5b506106e4600480360360408110156106ae57600080fd5b8101908080359060200190929190803573ffffffffffffffffffffffffffffffffffffffff169060200190929190505050611871565b005b3480156106f257600080fd5b5061075f6004803603606081101561070957600080fd5b81019080803573ffffffffffffffffffffffffffffffffffffffff169060200190929190803573ffffffffffffffffffffffffffffffffffffffff1690602001909291908035906020019092919050505061190a565b005b34801561076d57600080fd5b5061079a6004803603602081101561078457600080fd5b810190808035906020019092919050505061192a565b005b3480156107a857600080fd5b506107d5600480360360208110156107bf57600080fd5b810190808035906020019092919050505061199c565b6040518082815260200191505060405180910390f35b3480156107f757600080fd5b506108006119bf565b6040518080602001828103825283818151815260200191508051906020019080838360005b83811015610840578082015181840152602081019050610825565b50505050905090810190601f16801561086d5780820380516001836020036101000a031916815260200191505b509250505060405180910390f35b34801561088757600080fd5b506108b46004803603602081101561089e57600080fd5b81019080803590602001909291905050506119fc565b604051808273ffffffffffffffffffffffffffffffffffffffff16815260200191505060405180910390f35b3480156108ec57600080fd5b506108f5611a33565b6040518080602001828103825283818151815260200191508051906020019080838360005b8381101561093557808201518184015260208101905061091a565b50505050905090810190601f1680156109625780820380516001836020036101000a031916815260200191505b509250505060405180910390f35b34801561097c57600080fd5b506109bf6004803603602081101561099357600080fd5b81019080803573ffffffffffffffffffffffffffffffffffffffff169060200190929190505050611ad5565b6040518082815260200191505060405180910390f35b3480156109e157600080fd5b50610a0e600480360360208110156109f857600080fd5b8101908080359060200190929190505050611baa565b60405180821515815260200191505060405180910390f35b348015610a3257600080fd5b50610a5f60048036036020811015610a4957600080fd5b8101908080359060200190929190505050611bca565b005b348015610a6d57600080fd5b50610aa460048036036040811015610a8457600080fd5b810190808035906020019092919080359060200190929190505050611dcd565b604051808273ffffffffffffffffffffffffffffffffffffffff16815260200191505060405180910390f35b348015610adc57600080fd5b50610b2960048036036040811015610af357600080fd5b8101908080359060200190929190803573ffffffffffffffffffffffffffffffffffffffff169060200190929190505050611dff565b60405180821515815260200191505060405180910390f35b348015610b4d57600080fd5b50610b56611e31565b6040518080602001828103825283818151815260200191508051906020019080838360005b83811015610b96578082015181840152602081019050610b7b565b50505050905090810190601f168015610bc35780820380516001836020036101000a031916815260200191505b509250505060405180910390f35b348015610bdd57600080fd5b50610be6611ed3565b6040518082815260200191505060405180910390f35b348015610c0857600080fd5b50610c5760048036036040811015610c1f57600080fd5b81019080803573ffffffffffffffffffffffffffffffffffffffff169060200190929190803515159060200190929190505050611eda565b005b610c8560048036036020811015610c6f57600080fd5b8101908080359060200190929190505050612090565b005b348015610c9357600080fd5b50610d9760048036036080811015610caa57600080fd5b81019080803573ffffffffffffffffffffffffffffffffffffffff169060200190929190803573ffffffffffffffffffffffffffffffffffffffff1690602001909291908035906020019092919080359060200190640100000000811115610d1157600080fd5b820183602082011115610d2357600080fd5b80359060200191846001830284011164010000000083111715610d4557600080fd5b91908080601f016020809104026020016040519081016040528093929190818152602001838380828437600081840152601f19601f820116905080830192505050505050509192919290505050612397565b005b348015610da557600080fd5b50610dd260048036036020811015610dbc57600080fd5b810190808035906020019092919050505061240f565b005b348015610de057600080fd5b50610e0d60048036036020811015610df757600080fd5b810190808035906020019092919050505061249f565b604051808273ffffffffffffffffffffffffffffffffffffffff16815260200191505060405180910390f35b348015610e4557600080fd5b50610e7260048036036020811015610e5c57600080fd5b810190808035906020019092919050505061253c565b005b348015610e8057600080fd5b50610ead60048036036020811015610e9757600080fd5b810190808035906020019092919050505061299e565b6040518080602001828103825283818151815260200191508051906020019080838360005b83811015610eed578082015181840152602081019050610ed2565b50505050905090810190601f168015610f1a5780820380516001836020036101000a031916815260200191505b509250505060405180910390f35b348015610f3457600080fd5b50610f6160048036036020811015610f4b57600080fd5b8101908080359060200190929190505050612c6f565b6040518082815260200191505060405180910390f35b348015610f8357600080fd5b50610fc660048036036020811015610f9a57600080fd5b81019080803573ffffffffffffffffffffffffffffffffffffffff169060200190929190505050612c96565b005b348015610fd457600080fd5b5061102160048036036040811015610feb57600080fd5b81019080803573ffffffffffffffffffffffffffffffffffffffff16906020019092919080359060200190929190505050612d60565b005b34801561102f57600080fd5b5061105c6004803603602081101561104657600080fd5b8101908080359060200190929190505050612f43565b6040518082815260200191505060405180910390f35b34801561107e57600080fd5b506110cb6004803603604081101561109557600080fd5b8101908080359060200190929190803573ffffffffffffffffffffffffffffffffffffffff169060200190929190505050612fc0565b005b3480156110d957600080fd5b506110e261304a565b604051808273ffffffffffffffffffffffffffffffffffffffff16815260200191505060405180910390f35b34801561111a57600080fd5b50611123613074565b6040518082815260200191505060405180910390f35b34801561114557600080fd5b506111a86004803603604081101561115c57600080fd5b81019080803573ffffffffffffffffffffffffffffffffffffffff169060200190929190803573ffffffffffffffffffffffffffffffffffffffff16906020019092919050505061307e565b60405180821515815260200191505060405180910390f35b3480156111cc57600080fd5b50611203600480360360408110156111e357600080fd5b810190808035906020019092919080359060200190929190505050613112565b005b34801561121157600080fd5b5061123e6004803603602081101561122857600080fd5b81019080803590602001909291905050506132f2565b005b600060336000837bffffffffffffffffffffffffffffffffffffffffffffffffffffffff19167bffffffffffffffffffffffffffffffffffffffffffffffffffffffff1916815260200190815260200160002060009054906101000a900460ff169050919050565b6060606a8054600181600116156101000203166002900480601f0160208091040260200160405190810160405280929190818152602001828054600181600116156101000203166002900480156113405780601f1061131557610100808354040283529160200191611340565b820191906000526020600020905b81548152906001019060200180831161132357829003601f168201915b5050505050905090565b600061135582613532565b6113aa576040517f08c379a000000000000000000000000000000000000000000000000000000000815260040180806020018281038252602c815260200180615db7602c913960400191505060405180910390fd5b6068600083815260200190815260200160002060009054906101000a900473ffffffffffffffffffffffffffffffffffffffff169050919050565b60006113f0826119fc565b90508073ffffffffffffffffffffffffffffffffffffffff168373ffffffffffffffffffffffffffffffffffffffff161415611477576040517f08c379a0000000000000000000000000000000000000000000000000000000008152600401808060200182810382526021815260200180615e606021913960400191505060405180910390fd5b8073ffffffffffffffffffffffffffffffffffffffff1661149661354f565b73ffffffffffffffffffffffffffffffffffffffff1614806114c557506114c4816114bf61354f565b61307e565b5b61151a576040517f08c379a0000000000000000000000000000000000000000000000000000000008152600401808060200182810382526038815260200180615c326038913960400191505060405180910390fd5b6115248383613557565b505050565b60006115356066613610565b905090565b61154e6000801b61154961354f565b611dff565b6115c0576040517f08c379a000000000000000000000000000000000000000000000000000000000815260040180806020018281038252601e8152602001807f4b61726761696e3a2043616c6c6572206973206e6f7420612061646d696e000081525060200191505060405180910390fd5b8060fd8190555050565b6115d382613532565b15611629576040517f08c379a000000000000000000000000000000000000000000000000000000000815260040180806020018281038252602a815260200180615f6a602a913960400191505060405180910390fd5b60008111611682576040517f08c379a000000000000000000000000000000000000000000000000000000000815260040180806020018281038252602a815260200180615c08602a913960400191505060405180910390fd5b61168c3383613625565b8060fe600084815260200190815260200160002081905550813373ffffffffffffffffffffffffffffffffffffffff167fb9144c96c86541f6fa89c9f2f02495cccf4b08cd6643e26d34ee00aa586558a860405160405180910390a35050565b6116fd6116f761354f565b82613819565b611752576040517f08c379a0000000000000000000000000000000000000000000000000000000008152600401808060200182810382526031815260200180615e816031913960400191505060405180910390fd5b61175d83838361390d565b505050565b600060c96000838152602001908152602001600020600201549050919050565b600060fd54905090565b6117b360c96000848152602001908152602001600020600201546117ae61354f565b611dff565b611808576040517f08c379a000000000000000000000000000000000000000000000000000000000815260040180806020018281038252602f815260200180615ab3602f913960400191505060405180910390fd5b6118128282613b50565b5050565b600061186982606560008673ffffffffffffffffffffffffffffffffffffffff1673ffffffffffffffffffffffffffffffffffffffff168152602001908152602001600020613be490919063ffffffff16565b905092915050565b61187961354f565b73ffffffffffffffffffffffffffffffffffffffff168173ffffffffffffffffffffffffffffffffffffffff16146118fc576040517f08c379a000000000000000000000000000000000000000000000000000000000815260040180806020018281038252602f815260200180615f94602f913960400191505060405180910390fd5b6119068282613bfe565b5050565b61192583838360405180602001604052806000815250612397565b505050565b61193b61193561354f565b82613819565b611990576040517f08c379a0000000000000000000000000000000000000000000000000000000008152600401808060200182810382526030815260200180615f3a6030913960400191505060405180910390fd5b61199981613c92565b50565b6000806119b3836066613dcc90919063ffffffff16565b50905080915050919050565b60606040518060400160405280600b81526020017f4b61726761696e20763031000000000000000000000000000000000000000000815250905090565b6000611a2c82604051806060016040528060298152602001615c94602991396066613df89092919063ffffffff16565b9050919050565b6060606d8054600181600116156101000203166002900480601f016020809104026020016040519081016040528092919081815260200182805460018160011615610100020316600290048015611acb5780601f10611aa057610100808354040283529160200191611acb565b820191906000526020600020905b815481529060010190602001808311611aae57829003601f168201915b5050505050905090565b60008073ffffffffffffffffffffffffffffffffffffffff168273ffffffffffffffffffffffffffffffffffffffff161415611b5c576040517f08c379a000000000000000000000000000000000000000000000000000000000815260040180806020018281038252602a815260200180615c6a602a913960400191505060405180910390fd5b611ba3606560008473ffffffffffffffffffffffffffffffffffffffff1673ffffffffffffffffffffffffffffffffffffffff168152602001908152602001600020613e17565b9050919050565b600042610100600084815260200190815260200160002054109050919050565b80611bd481613532565b611c29576040517f08c379a000000000000000000000000000000000000000000000000000000000815260040180806020018281038252602a815260200180615d1d602a913960400191505060405180910390fd5b813373ffffffffffffffffffffffffffffffffffffffff16611c4a826119fc565b73ffffffffffffffffffffffffffffffffffffffff1614611cb6576040517f08c379a000000000000000000000000000000000000000000000000000000000815260040180806020018281038252602d815260200180615d8a602d913960400191505060405180910390fd5b82600073ffffffffffffffffffffffffffffffffffffffff1660ff600083815260200190815260200160002060009054906101000a900473ffffffffffffffffffffffffffffffffffffffff1673ffffffffffffffffffffffffffffffffffffffff161415611d70576040517f08c379a0000000000000000000000000000000000000000000000000000000008152600401808060200182810382526031815260200180615f096031913960400191505060405180910390fd5b611d7984613e2c565b3373ffffffffffffffffffffffffffffffffffffffff167f1f592dbf03205ee7f7c0b32b5b071beaf79c4e0b84a954d5160dccaa79c79584856040518082815260200191505060405180910390a250505050565b6000611df78260c9600086815260200190815260200160002060000161402b90919063ffffffff16565b905092915050565b6000611e298260c9600086815260200190815260200160002060000161404590919063ffffffff16565b905092915050565b6060606b8054600181600116156101000203166002900480601f016020809104026020016040519081016040528092919081815260200182805460018160011615610100020316600290048015611ec95780601f10611e9e57610100808354040283529160200191611ec9565b820191906000526020600020905b815481529060010190602001808311611eac57829003601f168201915b5050505050905090565b6000801b81565b611ee261354f565b73ffffffffffffffffffffffffffffffffffffffff168273ffffffffffffffffffffffffffffffffffffffff161415611f83576040517f08c379a00000000000000000000000000000000000000000000000000000000081526004018080602001828103825260198152602001807f4552433732313a20617070726f766520746f2063616c6c65720000000000000081525060200191505060405180910390fd5b8060696000611f9061354f565b73ffffffffffffffffffffffffffffffffffffffff1673ffffffffffffffffffffffffffffffffffffffff16815260200190815260200160002060008473ffffffffffffffffffffffffffffffffffffffff1673ffffffffffffffffffffffffffffffffffffffff16815260200190815260200160002060006101000a81548160ff0219169083151502179055508173ffffffffffffffffffffffffffffffffffffffff1661203d61354f565b73ffffffffffffffffffffffffffffffffffffffff167f17307eab39ab6107e8899845ad3d59bd9653f200f220920489ca2b5937696c318360405180821515815260200191505060405180910390a35050565b8061209a81613532565b6120ef576040517f08c379a000000000000000000000000000000000000000000000000000000000815260040180806020018281038252602a815260200180615d1d602a913960400191505060405180910390fd5b3373ffffffffffffffffffffffffffffffffffffffff1661210f836119fc565b73ffffffffffffffffffffffffffffffffffffffff16141561217c576040517f08c379a0000000000000000000000000000000000000000000000000000000008152600401808060200182810382526027815260200180615ae26027913960400191505060405180910390fd5b600073ffffffffffffffffffffffffffffffffffffffff1660ff600084815260200190815260200160002060009054906101000a900473ffffffffffffffffffffffffffffffffffffffff1673ffffffffffffffffffffffffffffffffffffffff161480156121fe575042610100600084815260200190815260200160002054105b612253576040517f08c379a0000000000000000000000000000000000000000000000000000000008152600401808060200182810382526027815260200180615b5f6027913960400191505060405180910390fd5b60fe60008381526020019081526020016000205434146122be576040517f08c379a0000000000000000000000000000000000000000000000000000000008152600401808060200182810382526025815260200180615de36025913960400191505060405180910390fd5b3360ff600084815260200190815260200160002060006101000a81548173ffffffffffffffffffffffffffffffffffffffff021916908373ffffffffffffffffffffffffffffffffffffffff16021790555061232560fd544261407590919063ffffffff16565b6101006000848152602001908152602001600020819055503373ffffffffffffffffffffffffffffffffffffffff167f2c7945bf3248598029aaee74e7a7c694cceba99c30ab722154f6e8315addb7698334604051808381526020018281526020019250505060405180910390a25050565b6123a86123a261354f565b83613819565b6123fd576040517f08c379a0000000000000000000000000000000000000000000000000000000008152600401808060200182810382526031815260200180615e816031913960400191505060405180910390fd5b612409848484846140fd565b50505050565b6124236000801b61241e61354f565b611dff565b612495576040517f08c379a000000000000000000000000000000000000000000000000000000000815260040180806020018281038252601e8152602001807f4b61726761696e3a2043616c6c6572206973206e6f7420612061646d696e000081525060200191505060405180910390fd5b8060fc8190555050565b6000816124ab81613532565b612500576040517f08c379a000000000000000000000000000000000000000000000000000000000815260040180806020018281038252602a815260200180615d1d602a913960400191505060405180910390fd5b60ff600084815260200190815260200160002060009054906101000a900473ffffffffffffffffffffffffffffffffffffffff16915050919050565b8061254681613532565b61259b576040517f08c379a000000000000000000000000000000000000000000000000000000000815260040180806020018281038252602a815260200180615d1d602a913960400191505060405180910390fd5b81600073ffffffffffffffffffffffffffffffffffffffff1660ff600083815260200190815260200160002060009054906101000a900473ffffffffffffffffffffffffffffffffffffffff1673ffffffffffffffffffffffffffffffffffffffff161415612655576040517f08c379a0000000000000000000000000000000000000000000000000000000008152600401808060200182810382526031815260200180615f096031913960400191505060405180910390fd5b823373ffffffffffffffffffffffffffffffffffffffff16612676826119fc565b73ffffffffffffffffffffffffffffffffffffffff16146126e2576040517f08c379a000000000000000000000000000000000000000000000000000000000815260040180806020018281038252602d815260200180615d8a602d913960400191505060405180910390fd5b42610100600086815260200190815260200160002054101561279f5760ff600085815260200190815260200160002060006101000a81549073ffffffffffffffffffffffffffffffffffffffff02191690556101006000858152602001908152602001600020600090553373ffffffffffffffffffffffffffffffffffffffff167f517d0330169de1af1cb63d88530c8908884d15617822170b876786e48f92917f856040518082815260200191505060405180910390a2612998565b600060ff600086815260200190815260200160002060009054906101000a900473ffffffffffffffffffffffffffffffffffffffff16905060ff600086815260200190815260200160002060006101000a81549073ffffffffffffffffffffffffffffffffffffffff021916905561010060008681526020019081526020016000206000905560006128656004600a0a61285760fc5460fe60008b81526020019081526020016000205461416f90919063ffffffff16565b6141f590919063ffffffff16565b905060fb60009054906101000a900473ffffffffffffffffffffffffffffffffffffffff1673ffffffffffffffffffffffffffffffffffffffff166108fc829081150290604051600060405180830381858888f193505050501580156128cf573d6000803e3d6000fd5b503373ffffffffffffffffffffffffffffffffffffffff166108fc6129108360fe60008b81526020019081526020016000205461427e90919063ffffffff16565b9081150290604051600060405180830381858888f1935050505015801561293b573d6000803e3d6000fd5b5061294733838861190a565b3373ffffffffffffffffffffffffffffffffffffffff167f18f9d2c9031a53ca9e501ddaadc6e66758b39bbf424cf4e22c62b6003fbd240c876040518082815260200191505060405180910390a250505b50505050565b60606129a982613532565b6129fe576040517f08c379a000000000000000000000000000000000000000000000000000000000815260040180806020018281038252602f815260200180615e31602f913960400191505060405180910390fd5b6060606c60008481526020019081526020016000208054600181600116156101000203166002900480601f016020809104026020016040519081016040528092919081815260200182805460018160011615610100020316600290048015612aa75780601f10612a7c57610100808354040283529160200191612aa7565b820191906000526020600020905b815481529060010190602001808311612a8a57829003601f168201915b505050505090506060612ab8611a33565b9050600081511415612ace578192505050612c6a565b600082511115612b9f5780826040516020018083805190602001908083835b60208310612b105780518252602082019150602081019050602083039250612aed565b6001836020036101000a03801982511681845116808217855250505050505090500182805190602001908083835b60208310612b615780518252602082019150602081019050602083039250612b3e565b6001836020036101000a0380198251168184511680821785525050505050509050019250505060405160208183030381529060405292505050612c6a565b80612ba985614301565b6040516020018083805190602001908083835b60208310612bdf5780518252602082019150602081019050602083039250612bbc565b6001836020036101000a03801982511681845116808217855250505050505090500182805190602001908083835b60208310612c305780518252602082019150602081019050602083039250612c0d565b6001836020036101000a03801982511681845116808217855250505050505090500192505050604051602081830303815290604052925050505b919050565b6000612c8f60c96000848152602001908152602001600020600001614448565b9050919050565b612caa6000801b612ca561354f565b611dff565b612d1c576040517f08c379a000000000000000000000000000000000000000000000000000000000815260040180806020018281038252601e8152602001807f4b61726761696e3a2043616c6c6572206973206e6f7420612061646d696e000081525060200191505060405180910390fd5b8060fb60006101000a81548173ffffffffffffffffffffffffffffffffffffffff021916908373ffffffffffffffffffffffffffffffffffffffff16021790555050565b600060019054906101000a900460ff1680612d7f5750612d7e61445d565b5b80612d95575060008054906101000a900460ff16155b612dea576040517f08c379a000000000000000000000000000000000000000000000000000000000815260040180806020018281038252602e815260200180615cef602e913960400191505060405180910390fd5b60008060019054906101000a900460ff161590508015612e3a576001600060016101000a81548160ff02191690831515021790555060016000806101000a81548160ff0219169083151502179055505b8260fb60006101000a81548173ffffffffffffffffffffffffffffffffffffffff021916908373ffffffffffffffffffffffffffffffffffffffff1602179055508160fc81905550621a5e0060fd81905550612e9461446e565b612f086040518060400160405280600781526020017f4b61726761696e000000000000000000000000000000000000000000000000008152506040518060400160405280600381526020017f4b474e0000000000000000000000000000000000000000000000000000000000815250614584565b612f1061469e565b612f1d6000801b336147ac565b8015612f3e5760008060016101000a81548160ff0219169083151502179055505b505050565b600081612f4f81613532565b612fa4576040517f08c379a000000000000000000000000000000000000000000000000000000000815260040180806020018281038252602a815260200180615d1d602a913960400191505060405180910390fd5b60fe600084815260200190815260200160002054915050919050565b612fe760c9600084815260200190815260200160002060020154612fe261354f565b611dff565b61303c576040517f08c379a0000000000000000000000000000000000000000000000000000000008152600401808060200182810382526030815260200180615bd86030913960400191505060405180910390fd5b6130468282613bfe565b5050565b600060fb60009054906101000a900473ffffffffffffffffffffffffffffffffffffffff16905090565b600060fc54905090565b6000606960008473ffffffffffffffffffffffffffffffffffffffff1673ffffffffffffffffffffffffffffffffffffffff16815260200190815260200160002060008373ffffffffffffffffffffffffffffffffffffffff1673ffffffffffffffffffffffffffffffffffffffff16815260200190815260200160002060009054906101000a900460ff16905092915050565b8161311c81613532565b613171576040517f08c379a000000000000000000000000000000000000000000000000000000000815260040180806020018281038252602a815260200180615d1d602a913960400191505060405180910390fd5b823373ffffffffffffffffffffffffffffffffffffffff16613192826119fc565b73ffffffffffffffffffffffffffffffffffffffff16146131fe576040517f08c379a000000000000000000000000000000000000000000000000000000000815260040180806020018281038252602d815260200180615d8a602d913960400191505060405180910390fd5b600073ffffffffffffffffffffffffffffffffffffffff1660ff600086815260200190815260200160002060009054906101000a900473ffffffffffffffffffffffffffffffffffffffff1673ffffffffffffffffffffffffffffffffffffffff16148061327f575042610100600086815260200190815260200160002054105b6132d4576040517f08c379a0000000000000000000000000000000000000000000000000000000008152600401808060200182810382526057815260200180615eb26057913960600191505060405180910390fd5b8260fe60008681526020019081526020016000208190555050505050565b806132fc81613532565b613351576040517f08c379a000000000000000000000000000000000000000000000000000000000815260040180806020018281038252602a815260200180615d1d602a913960400191505060405180910390fd5b81600073ffffffffffffffffffffffffffffffffffffffff1660ff600083815260200190815260200160002060009054906101000a900473ffffffffffffffffffffffffffffffffffffffff1673ffffffffffffffffffffffffffffffffffffffff16141561340b576040517f08c379a0000000000000000000000000000000000000000000000000000000008152600401808060200182810382526031815260200180615f096031913960400191505060405180910390fd5b3373ffffffffffffffffffffffffffffffffffffffff1660ff600085815260200190815260200160002060009054906101000a900473ffffffffffffffffffffffffffffffffffffffff1673ffffffffffffffffffffffffffffffffffffffff16148061348157506134806000801b33611dff565b5b6134d6576040517f08c379a0000000000000000000000000000000000000000000000000000000008152600401808060200182810382526032815260200180615cbd6032913960400191505060405180910390fd5b6134df83613e2c565b3373ffffffffffffffffffffffffffffffffffffffff167f899cab278284ae4a91172caa0943607a0bcb19766254c3ebe1139be00650b102846040518082815260200191505060405180910390a2505050565b60006135488260666147ba90919063ffffffff16565b9050919050565b600033905090565b816068600083815260200190815260200160002060006101000a81548173ffffffffffffffffffffffffffffffffffffffff021916908373ffffffffffffffffffffffffffffffffffffffff160217905550808273ffffffffffffffffffffffffffffffffffffffff166135ca836119fc565b73ffffffffffffffffffffffffffffffffffffffff167f8c5be1e5ebec7d5bd14f71427d1e84f3dd0314c0f7b2291e5b200ac8c7c3b92560405160405180910390a45050565b600061361e826000016147d4565b9050919050565b600073ffffffffffffffffffffffffffffffffffffffff168273ffffffffffffffffffffffffffffffffffffffff1614156136c8576040517f08c379a00000000000000000000000000000000000000000000000000000000081526004018080602001828103825260208152602001807f4552433732313a206d696e7420746f20746865207a65726f206164647265737381525060200191505060405180910390fd5b6136d181613532565b15613744576040517f08c379a000000000000000000000000000000000000000000000000000000000815260040180806020018281038252601c8152602001807f4552433732313a20746f6b656e20616c7265616479206d696e7465640000000081525060200191505060405180910390fd5b613750600083836147e5565b6137a181606560008573ffffffffffffffffffffffffffffffffffffffff1673ffffffffffffffffffffffffffffffffffffffff1681526020019081526020016000206147ea90919063ffffffff16565b506137b8818360666148049092919063ffffffff16565b50808273ffffffffffffffffffffffffffffffffffffffff16600073ffffffffffffffffffffffffffffffffffffffff167fddf252ad1be2c89b69c2b068fc378daa952ba7f163c4a11628f55a4df523b3ef60405160405180910390a45050565b600061382482613532565b613879576040517f08c379a000000000000000000000000000000000000000000000000000000000815260040180806020018281038252602c815260200180615bac602c913960400191505060405180910390fd5b6000613884836119fc565b90508073ffffffffffffffffffffffffffffffffffffffff168473ffffffffffffffffffffffffffffffffffffffff1614806138f357508373ffffffffffffffffffffffffffffffffffffffff166138db8461134a565b73ffffffffffffffffffffffffffffffffffffffff16145b806139045750613903818561307e565b5b91505092915050565b8273ffffffffffffffffffffffffffffffffffffffff1661392d826119fc565b73ffffffffffffffffffffffffffffffffffffffff1614613999576040517f08c379a0000000000000000000000000000000000000000000000000000000008152600401808060200182810382526029815260200180615e086029913960400191505060405180910390fd5b600073ffffffffffffffffffffffffffffffffffffffff168273ffffffffffffffffffffffffffffffffffffffff161415613a1f576040517f08c379a0000000000000000000000000000000000000000000000000000000008152600401808060200182810382526024815260200180615b3b6024913960400191505060405180910390fd5b613a2a8383836147e5565b613a35600082613557565b613a8681606560008673ffffffffffffffffffffffffffffffffffffffff1673ffffffffffffffffffffffffffffffffffffffff16815260200190815260200160002061483990919063ffffffff16565b50613ad881606560008573ffffffffffffffffffffffffffffffffffffffff1673ffffffffffffffffffffffffffffffffffffffff1681526020019081526020016000206147ea90919063ffffffff16565b50613aef818360666148049092919063ffffffff16565b50808273ffffffffffffffffffffffffffffffffffffffff168473ffffffffffffffffffffffffffffffffffffffff167fddf252ad1be2c89b69c2b068fc378daa952ba7f163c4a11628f55a4df523b3ef60405160405180910390a4505050565b613b788160c9600085815260200190815260200160002060000161485390919063ffffffff16565b15613be057613b8561354f565b73ffffffffffffffffffffffffffffffffffffffff168173ffffffffffffffffffffffffffffffffffffffff16837f2f8788117e7eff1d82e926ec794901d17c78024a50270940304540a733656f0d60405160405180910390a45b5050565b6000613bf38360000183614883565b60001c905092915050565b613c268160c9600085815260200190815260200160002060000161490690919063ffffffff16565b15613c8e57613c3361354f565b73ffffffffffffffffffffffffffffffffffffffff168173ffffffffffffffffffffffffffffffffffffffff16837ff6391f5c32d9c69d2a47ea670b442974b53935d1edc7fd64eb21e047a839171b60405160405180910390a45b5050565b6000613c9d826119fc565b9050613cab816000846147e5565b613cb6600083613557565b6000606c600084815260200190815260200160002080546001816001161561010002031660029004905014613d0557606c60008381526020019081526020016000206000613d0491906159ab565b5b613d5682606560008473ffffffffffffffffffffffffffffffffffffffff1673ffffffffffffffffffffffffffffffffffffffff16815260200190815260200160002061483990919063ffffffff16565b50613d6b82606661493690919063ffffffff16565b5081600073ffffffffffffffffffffffffffffffffffffffff168273ffffffffffffffffffffffffffffffffffffffff167fddf252ad1be2c89b69c2b068fc378daa952ba7f163c4a11628f55a4df523b3ef60405160405180910390a45050565b600080600080613ddf8660000186614950565b915091508160001c8160001c9350935050509250929050565b6000613e0b846000018460001b846149e9565b60001c90509392505050565b6000613e2582600001614adf565b9050919050565b80613e3681613532565b613e8b576040517f08c379a000000000000000000000000000000000000000000000000000000000815260040180806020018281038252602a815260200180615d1d602a913960400191505060405180910390fd5b81600073ffffffffffffffffffffffffffffffffffffffff1660ff600083815260200190815260200160002060009054906101000a900473ffffffffffffffffffffffffffffffffffffffff1673ffffffffffffffffffffffffffffffffffffffff161415613f45576040517f08c379a0000000000000000000000000000000000000000000000000000000008152600401808060200182810382526031815260200180615f096031913960400191505060405180910390fd5b600060ff600085815260200190815260200160002060009054906101000a900473ffffffffffffffffffffffffffffffffffffffff16905060ff600085815260200190815260200160002060006101000a81549073ffffffffffffffffffffffffffffffffffffffff02191690556101006000858152602001908152602001600020600090558073ffffffffffffffffffffffffffffffffffffffff166108fc60fe6000878152602001908152602001600020549081150290604051600060405180830381858888f19350505050158015614024573d6000803e3d6000fd5b5050505050565b600061403a8360000183614883565b60001c905092915050565b600061406d836000018373ffffffffffffffffffffffffffffffffffffffff1660001b614af0565b905092915050565b6000808284019050838110156140f3576040517f08c379a000000000000000000000000000000000000000000000000000000000815260040180806020018281038252601b8152602001807f536166654d6174683a206164646974696f6e206f766572666c6f77000000000081525060200191505060405180910390fd5b8091505092915050565b61410884848461390d565b61411484848484614b13565b614169576040517f08c379a0000000000000000000000000000000000000000000000000000000008152600401808060200182810382526032815260200180615b096032913960400191505060405180910390fd5b50505050565b60008083141561418257600090506141ef565b600082840290508284828161419357fe5b04146141ea576040517f08c379a0000000000000000000000000000000000000000000000000000000008152600401808060200182810382526021815260200180615d696021913960400191505060405180910390fd5b809150505b92915050565b600080821161426c576040517f08c379a000000000000000000000000000000000000000000000000000000000815260040180806020018281038252601a8152602001807f536166654d6174683a206469766973696f6e206279207a65726f00000000000081525060200191505060405180910390fd5b81838161427557fe5b04905092915050565b6000828211156142f6576040517f08c379a000000000000000000000000000000000000000000000000000000000815260040180806020018281038252601e8152602001807f536166654d6174683a207375627472616374696f6e206f766572666c6f77000081525060200191505060405180910390fd5b818303905092915050565b60606000821415614349576040518060400160405280600181526020017f30000000000000000000000000000000000000000000000000000000000000008152509050614443565b600082905060005b60008214614373578080600101915050600a828161436b57fe5b049150614351565b60608167ffffffffffffffff8111801561438c57600080fd5b506040519080825280601f01601f1916602001820160405280156143bf5781602001600182028036833780820191505090505b50905060006001830390508593505b6000841461443b57600a84816143e057fe5b0660300160f81b828280600190039350815181106143fa57fe5b60200101907effffffffffffffffffffffffffffffffffffffffffffffffffffffffffffff1916908160001a905350600a848161443357fe5b0493506143ce565b819450505050505b919050565b600061445682600001614adf565b9050919050565b600061446830614d2c565b15905090565b600060019054906101000a900460ff168061448d575061448c61445d565b5b806144a3575060008054906101000a900460ff16155b6144f8576040517f08c379a000000000000000000000000000000000000000000000000000000000815260040180806020018281038252602e815260200180615cef602e913960400191505060405180910390fd5b60008060019054906101000a900460ff161590508015614548576001600060016101000a81548160ff02191690831515021790555060016000806101000a81548160ff0219169083151502179055505b614550614d3f565b614558614e3d565b614560614f4b565b80156145815760008060016101000a81548160ff0219169083151502179055505b50565b600060019054906101000a900460ff16806145a357506145a261445d565b5b806145b9575060008054906101000a900460ff16155b61460e576040517f08c379a000000000000000000000000000000000000000000000000000000000815260040180806020018281038252602e815260200180615cef602e913960400191505060405180910390fd5b60008060019054906101000a900460ff16159050801561465e576001600060016101000a81548160ff02191690831515021790555060016000806101000a81548160ff0219169083151502179055505b614666614d3f565b61466e614e3d565b6146788383615049565b80156146995760008060016101000a81548160ff0219169083151502179055505b505050565b600060019054906101000a900460ff16806146bd57506146bc61445d565b5b806146d3575060008054906101000a900460ff16155b614728576040517f08c379a000000000000000000000000000000000000000000000000000000000815260040180806020018281038252602e815260200180615cef602e913960400191505060405180910390fd5b60008060019054906101000a900460ff161590508015614778576001600060016101000a81548160ff02191690831515021790555060016000806101000a81548160ff0219169083151502179055505b614780614d3f565b6147886151a7565b80156147a95760008060016101000a81548160ff0219169083151502179055505b50565b6147b68282613b50565b5050565b60006147cc836000018360001b6152a5565b905092915050565b600081600001805490509050919050565b505050565b60006147fc836000018360001b6152c8565b905092915050565b6000614830846000018460001b8473ffffffffffffffffffffffffffffffffffffffff1660001b615338565b90509392505050565b600061484b836000018360001b615414565b905092915050565b600061487b836000018373ffffffffffffffffffffffffffffffffffffffff1660001b6152c8565b905092915050565b6000818360000180549050116148e4576040517f08c379a0000000000000000000000000000000000000000000000000000000008152600401808060200182810382526022815260200180615a916022913960400191505060405180910390fd5b8260000182815481106148f357fe5b9060005260206000200154905092915050565b600061492e836000018373ffffffffffffffffffffffffffffffffffffffff1660001b615414565b905092915050565b6000614948836000018360001b6154fc565b905092915050565b600080828460000180549050116149b2576040517f08c379a0000000000000000000000000000000000000000000000000000000008152600401808060200182810382526022815260200180615d476022913960400191505060405180910390fd5b60008460000184815481106149c357fe5b906000526020600020906002020190508060000154816001015492509250509250929050565b60008084600101600085815260200190815260200160002054905060008114158390614ab0576040517f08c379a00000000000000000000000000000000000000000000000000000000081526004018080602001828103825283818151815260200191508051906020019080838360005b83811015614a75578082015181840152602081019050614a5a565b50505050905090810190601f168015614aa25780820380516001836020036101000a031916815260200191505b509250505060405180910390fd5b50846000016001820381548110614ac357fe5b9060005260206000209060020201600101549150509392505050565b600081600001805490509050919050565b600080836001016000848152602001908152602001600020541415905092915050565b6000614b348473ffffffffffffffffffffffffffffffffffffffff16614d2c565b614b415760019050614d24565b6060614cab63150b7a0260e01b614b5661354f565b888787604051602401808573ffffffffffffffffffffffffffffffffffffffff1681526020018473ffffffffffffffffffffffffffffffffffffffff16815260200183815260200180602001828103825283818151815260200191508051906020019080838360005b83811015614bda578082015181840152602081019050614bbf565b50505050905090810190601f168015614c075780820380516001836020036101000a031916815260200191505b5095505050505050604051602081830303815290604052907bffffffffffffffffffffffffffffffffffffffffffffffffffffffff19166020820180517bffffffffffffffffffffffffffffffffffffffffffffffffffffffff8381831617835250505050604051806060016040528060328152602001615b09603291398773ffffffffffffffffffffffffffffffffffffffff166156159092919063ffffffff16565b90506000818060200190516020811015614cc457600080fd5b8101908080519060200190929190505050905063150b7a0260e01b7bffffffffffffffffffffffffffffffffffffffffffffffffffffffff1916817bffffffffffffffffffffffffffffffffffffffffffffffffffffffff191614925050505b949350505050565b600080823b905060008111915050919050565b600060019054906101000a900460ff1680614d5e5750614d5d61445d565b5b80614d74575060008054906101000a900460ff16155b614dc9576040517f08c379a000000000000000000000000000000000000000000000000000000000815260040180806020018281038252602e815260200180615cef602e913960400191505060405180910390fd5b60008060019054906101000a900460ff161590508015614e19576001600060016101000a81548160ff02191690831515021790555060016000806101000a81548160ff0219169083151502179055505b8015614e3a5760008060016101000a81548160ff0219169083151502179055505b50565b600060019054906101000a900460ff1680614e5c5750614e5b61445d565b5b80614e72575060008054906101000a900460ff16155b614ec7576040517f08c379a000000000000000000000000000000000000000000000000000000000815260040180806020018281038252602e815260200180615cef602e913960400191505060405180910390fd5b60008060019054906101000a900460ff161590508015614f17576001600060016101000a81548160ff02191690831515021790555060016000806101000a81548160ff0219169083151502179055505b614f276301ffc9a760e01b61562d565b8015614f485760008060016101000a81548160ff0219169083151502179055505b50565b600060019054906101000a900460ff1680614f6a5750614f6961445d565b5b80614f80575060008054906101000a900460ff16155b614fd5576040517f08c379a000000000000000000000000000000000000000000000000000000000815260040180806020018281038252602e815260200180615cef602e913960400191505060405180910390fd5b60008060019054906101000a900460ff161590508015615025576001600060016101000a81548160ff02191690831515021790555060016000806101000a81548160ff0219169083151502179055505b80156150465760008060016101000a81548160ff0219169083151502179055505b50565b600060019054906101000a900460ff1680615068575061506761445d565b5b8061507e575060008054906101000a900460ff16155b6150d3576040517f08c379a000000000000000000000000000000000000000000000000000000000815260040180806020018281038252602e815260200180615cef602e913960400191505060405180910390fd5b60008060019054906101000a900460ff161590508015615123576001600060016101000a81548160ff02191690831515021790555060016000806101000a81548160ff0219169083151502179055505b82606a90805190602001906151399291906159f3565b5081606b90805190602001906151509291906159f3565b506151616380ac58cd60e01b61562d565b615171635b5e139f60e01b61562d565b61518163780e9d6360e01b61562d565b80156151a25760008060016101000a81548160ff0219169083151502179055505b505050565b600060019054906101000a900460ff16806151c657506151c561445d565b5b806151dc575060008054906101000a900460ff16155b615231576040517f08c379a000000000000000000000000000000000000000000000000000000000815260040180806020018281038252602e815260200180615cef602e913960400191505060405180910390fd5b60008060019054906101000a900460ff161590508015615281576001600060016101000a81548160ff02191690831515021790555060016000806101000a81548160ff0219169083151502179055505b80156152a25760008060016101000a81548160ff0219169083151502179055505b50565b600080836001016000848152602001908152602001600020541415905092915050565b60006152d48383614af0565b61532d578260000182908060018154018082558091505060019003906000526020600020016000909190919091505582600001805490508360010160008481526020019081526020016000208190555060019050615332565b600090505b92915050565b60008084600101600085815260200190815260200160002054905060008114156153df5784600001604051806040016040528086815260200185815250908060018154018082558091505060019003906000526020600020906002020160009091909190915060008201518160000155602082015181600101555050846000018054905085600101600086815260200190815260200160002081905550600191505061540d565b828560000160018303815481106153f257fe5b90600052602060002090600202016001018190555060009150505b9392505050565b600080836001016000848152602001908152602001600020549050600081146154f0576000600182039050600060018660000180549050039050600086600001828154811061545f57fe5b906000526020600020015490508087600001848154811061547c57fe5b90600052602060002001819055506001830187600101600083815260200190815260200160002081905550866000018054806154b457fe5b600190038181906000526020600020016000905590558660010160008781526020019081526020016000206000905560019450505050506154f6565b60009150505b92915050565b60008083600101600084815260200190815260200160002054905060008114615609576000600182039050600060018660000180549050039050600086600001828154811061554757fe5b906000526020600020906002020190508087600001848154811061556757fe5b90600052602060002090600202016000820154816000015560018201548160010155905050600183018760010160008360000154815260200190815260200160002081905550866000018054806155ba57fe5b600190038181906000526020600020906002020160008082016000905560018201600090555050905586600101600087815260200190815260200160002060009055600194505050505061560f565b60009150505b92915050565b60606156248484600085615736565b90509392505050565b63ffffffff60e01b817bffffffffffffffffffffffffffffffffffffffffffffffffffffffff191614156156c9576040517f08c379a000000000000000000000000000000000000000000000000000000000815260040180806020018281038252601c8152602001807f4552433136353a20696e76616c696420696e746572666163652069640000000081525060200191505060405180910390fd5b600160336000837bffffffffffffffffffffffffffffffffffffffffffffffffffffffff19167bffffffffffffffffffffffffffffffffffffffffffffffffffffffff1916815260200190815260200160002060006101000a81548160ff02191690831515021790555050565b606082471015615791576040517f08c379a0000000000000000000000000000000000000000000000000000000008152600401808060200182810382526026815260200180615b866026913960400191505060405180910390fd5b61579a85614d2c565b61580c576040517f08c379a000000000000000000000000000000000000000000000000000000000815260040180806020018281038252601d8152602001807f416464726573733a2063616c6c20746f206e6f6e2d636f6e747261637400000081525060200191505060405180910390fd5b600060608673ffffffffffffffffffffffffffffffffffffffff1685876040518082805190602001908083835b6020831061585c5780518252602082019150602081019050602083039250615839565b6001836020036101000a03801982511681845116808217855250505050505090500191505060006040518083038185875af1925050503d80600081146158be576040519150601f19603f3d011682016040523d82523d6000602084013e6158c3565b606091505b50915091506158d38282866158df565b92505050949350505050565b606083156158ef578290506159a4565b6000835111156159025782518084602001fd5b816040517f08c379a00000000000000000000000000000000000000000000000000000000081526004018080602001828103825283818151815260200191508051906020019080838360005b8381101561596957808201518184015260208101905061594e565b50505050905090810190601f1680156159965780820380516001836020036101000a031916815260200191505b509250505060405180910390fd5b9392505050565b50805460018160011615610100020316600290046000825580601f106159d157506159f0565b601f0160209004906000526020600020908101906159ef9190615a73565b5b50565b828054600181600116156101000203166002900490600052602060002090601f016020900481019282601f10615a3457805160ff1916838001178555615a62565b82800160010185558215615a62579182015b82811115615a61578251825591602001919060010190615a46565b5b509050615a6f9190615a73565b5090565b5b80821115615a8c576000816000905550600101615a74565b509056fe456e756d657261626c655365743a20696e646578206f7574206f6620626f756e6473416363657373436f6e74726f6c3a2073656e646572206d75737420626520616e2061646d696e20746f206772616e744b61726761696e3a20596f752063616e6e6f742062757920796f7572206f776e20746f6b656e2e4552433732313a207472616e7366657220746f206e6f6e20455243373231526563656976657220696d706c656d656e7465724552433732313a207472616e7366657220746f20746865207a65726f20616464726573734b61726761696e3a20416e206f6666657220697320616c7265616479207375626d69747465642e416464726573733a20696e73756666696369656e742062616c616e636520666f722063616c6c4552433732313a206f70657261746f7220717565727920666f72206e6f6e6578697374656e7420746f6b656e416363657373436f6e74726f6c3a2073656e646572206d75737420626520616e2061646d696e20746f207265766f6b654b61726761696e3a20507269636573206d7573742062652067726561746572207468616e207a65726f2e4552433732313a20617070726f76652063616c6c6572206973206e6f74206f776e6572206e6f7220617070726f76656420666f7220616c6c4552433732313a2062616c616e636520717565727920666f7220746865207a65726f20616464726573734552433732313a206f776e657220717565727920666f72206e6f6e6578697374656e7420746f6b656e4b61726761696e3a20596f7520646f206e6f74206861766520616e79206f6666657220666f72207468697320746f6b656e2e496e697469616c697a61626c653a20636f6e747261637420697320616c726561647920696e697469616c697a65644b61726761696e3a20496420666f72207468697320746f6b656e20646f6573206e6f742065786973742e456e756d657261626c654d61703a20696e646578206f7574206f6620626f756e6473536166654d6174683a206d756c7469706c69636174696f6e206f766572666c6f774b61726761696e3a20596f7520617265206e6f7420746865206f776e6572206f66207468697320746f6b656e2e4552433732313a20617070726f76656420717565727920666f72206e6f6e6578697374656e7420746f6b656e4b61726761696e3a20546865206f6666657220616d6f756e7420697320696e76616c69642e4552433732313a207472616e73666572206f6620746f6b656e2074686174206973206e6f74206f776e4552433732314d657461646174613a2055524920717565727920666f72206e6f6e6578697374656e7420746f6b656e4552433732313a20617070726f76616c20746f2063757272656e74206f776e65724552433732313a207472616e736665722063616c6c6572206973206e6f74206f776e6572206e6f7220617070726f7665644b61726761696e3a20416e206f6666657220697320616c7265616479207375626d69747465642c20746f6b656e2070726963652063616e6e6f74206265206368616e67656420756e74696c20697420657870697265732e4b61726761696e3a20446f6573206e6f7420657869737420616e79206f6666657220666f72207468697320746f6b656e2e4552433732314275726e61626c653a2063616c6c6572206973206e6f74206f776e6572206e6f7220617070726f7665644b61726761696e3a20496420666f72207468697320746f6b656e20616c7265616479206578697374732e416363657373436f6e74726f6c3a2063616e206f6e6c792072656e6f756e636520726f6c657320666f722073656c66a264697066735822122030d779bd448c1e32bcb243823cf8d1110b45cb269b6241e48b6da3792be1bd3764736f6c634300060c0033",
  "immutableReferences": {},
  "source": "// SPDX-License-Identifier: MIT\npragma solidity >=0.6.0 <0.8.0;\n\nimport \"@openzeppelin/contracts-upgradeable/token/ERC721/ERC721BurnableUpgradeable.sol\";\nimport \"@openzeppelin/contracts-upgradeable/access/AccessControlUpgradeable.sol\";\nimport \"@openzeppelin/contracts-upgradeable/cryptography/ECDSAUpgradeable.sol\";\nimport \"@openzeppelin/contracts-upgradeable/math/SafeMathUpgradeable.sol\";\n\ncontract KargainV01 is ERC721BurnableUpgradeable, AccessControlUpgradeable {\n    using SafeMathUpgradeable for uint256;\n    using ECDSAUpgradeable for bytes32;\n\n    uint256 private constant COMMISSION_EXPONENT = 4;\n    address payable private _platformAddress;\n    uint256 private _platformCommissionPercent;\n    uint256 private _offerExpirationTime;\n\n    mapping(uint256 => uint256) private _tokens_price;\n    mapping(uint256 => address payable) private _offers;\n    mapping(uint256 => uint256) private _offers_closeTimestamp;\n\n    event TokenMinted(address indexed creator, uint256 indexed tokenId);\n    event OfferReceived(address indexed payer, uint256 tokenId, uint256 amount);\n    event OfferAccepted(address indexed payer, uint256 tokenId);\n    event OfferRejected(address indexed payer, uint256 tokenId);\n    event OfferExpired(address indexed payer, uint256 tokenId);\n    event OfferCancelled(address indexed payer, uint256 tokenId);\n\n    modifier onlyAdmin() {\n        require(\n            hasRole(DEFAULT_ADMIN_ROLE, _msgSender()),\n            \"Kargain: Caller is not a admin\"\n        );\n        _;\n    }\n\n    modifier tokenExists(uint256 _tokenId) {\n        require(\n            _exists(_tokenId),\n            \"Kargain: Id for this token does not exist.\"\n        );\n        _;\n    }\n\n    modifier onlyOwner(uint256 _tokenId) {\n        require(\n            ownerOf(_tokenId) == msg.sender,\n            \"Kargain: You are not the owner of this token.\"\n        );\n        _;\n    }\n\n    modifier offerExist(uint256 _tokenId) {\n        require(\n            _offers[_tokenId] != address(0),\n            \"Kargain: Does not exist any offer for this token.\"\n        );\n        _;\n    }\n\n    function initialize(\n        address payable _platformAddress_,\n        uint256 _platformCommissionPercent_\n    ) public initializer {\n        _platformAddress = _platformAddress_;\n        _platformCommissionPercent = _platformCommissionPercent_;\n        _offerExpirationTime = 20 days;\n        __ERC721Burnable_init();\n        __ERC721_init(\"Kargain\", \"KGN\");\n        __AccessControl_init();\n        _setupRole(DEFAULT_ADMIN_ROLE, msg.sender);\n    }\n\n    function platformCommissionPercent() external view returns (uint256) {\n        return _platformCommissionPercent;\n    }\n\n    function setPlatformCommissionPercent(uint256 platformCommissionPercent_)\n        external\n        onlyAdmin\n    {\n        _platformCommissionPercent = platformCommissionPercent_;\n    }\n\n    function platformAddress() external view returns (address payable) {\n        return _platformAddress;\n    }\n\n    function setPlatformAddress(address payable platformAddress_)\n        external\n        onlyAdmin\n    {\n        _platformAddress = platformAddress_;\n    }\n\n    function offerExpirationTime() external view returns (uint256) {\n        return _offerExpirationTime;\n    }\n\n    function setOfferExpirationTime(uint256 offerExpirationTime_)\n        external\n        onlyAdmin\n    {\n        _offerExpirationTime = offerExpirationTime_;\n    }\n\n    function offerExpiration(uint256 _tokenId) external view returns (bool) {\n        return (_offers_closeTimestamp[_tokenId] < now);\n    }\n\n    function tokenPrice(uint256 _tokenId)\n        external\n        view\n        tokenExists(_tokenId)\n        returns (uint256)\n    {\n        return _tokens_price[_tokenId];\n    }\n\n    function setTokenPrice(uint256 _tokenId, uint256 _price)\n        external\n        tokenExists(_tokenId)\n        onlyOwner(_tokenId)\n    {\n        require(\n            _offers[_tokenId] == address(0) ||\n                _offers_closeTimestamp[_tokenId] < now,\n            \"Kargain: An offer is already submitted, token price cannot be changed until it expires.\"\n        );\n        _tokens_price[_tokenId] = _price;\n    }\n\n    function offerAddress(uint256 _tokenId)\n        external\n        view\n        tokenExists(_tokenId)\n        returns (address payable)\n    {\n        return _offers[_tokenId];\n    }\n\n    function _refundOffer(uint256 _tokenId)\n        private\n        tokenExists(_tokenId)\n        offerExist(_tokenId)\n    {\n        address payable buyer = _offers[_tokenId];\n\n        delete _offers[_tokenId];\n        delete _offers_closeTimestamp[_tokenId];\n\n        buyer.transfer(_tokens_price[_tokenId]);\n    }\n\n    function mint(uint256 _tokenId, uint256 _price) external {\n        require(\n            !_exists(_tokenId),\n            \"Kargain: Id for this token already exists.\"\n        );\n        require(_price > 0, \"Kargain: Prices must be greater than zero.\");\n        super._mint(msg.sender, _tokenId);\n        _tokens_price[_tokenId] = _price;\n        emit TokenMinted(msg.sender, _tokenId);\n    }\n\n    function createOffer(uint256 _tokenId)\n        external\n        payable\n        tokenExists(_tokenId)\n    {\n        require(\n            ownerOf(_tokenId) != msg.sender,\n            \"Kargain: You cannot buy your own token.\"\n        );\n        require(\n            _offers[_tokenId] == address(0) &&\n                _offers_closeTimestamp[_tokenId] < now,\n            \"Kargain: An offer is already submitted.\"\n        );\n        require(\n            msg.value == _tokens_price[_tokenId],\n            \"Kargain: The offer amount is invalid.\"\n        );\n\n        _offers[_tokenId] = payable(msg.sender);\n        _offers_closeTimestamp[_tokenId] = now.add(_offerExpirationTime);\n        emit OfferReceived(msg.sender, _tokenId, msg.value);\n    }\n\n    function acceptOffer(uint256 _tokenId)\n        external\n        tokenExists(_tokenId)\n        offerExist(_tokenId)\n        onlyOwner(_tokenId)\n    {\n        if (_offers_closeTimestamp[_tokenId] < now) {\n            delete _offers[_tokenId];\n            delete _offers_closeTimestamp[_tokenId];\n            emit OfferExpired(msg.sender, _tokenId);\n            return;\n        }\n        address payable buyer = _offers[_tokenId];\n\n        delete _offers[_tokenId];\n        delete _offers_closeTimestamp[_tokenId];\n\n        uint256 platformCommission =\n            _tokens_price[_tokenId].mul(_platformCommissionPercent).div(\n                10**COMMISSION_EXPONENT\n            );\n        _platformAddress.transfer(platformCommission);\n\n        msg.sender.transfer(_tokens_price[_tokenId].sub(platformCommission));\n        safeTransferFrom(msg.sender, buyer, _tokenId);\n\n        emit OfferAccepted(msg.sender, _tokenId);\n    }\n\n    function rejectOffer(uint256 _tokenId)\n        external\n        tokenExists(_tokenId)\n        onlyOwner(_tokenId)\n        offerExist(_tokenId)\n    {\n        _refundOffer(_tokenId);\n\n        emit OfferRejected(msg.sender, _tokenId);\n    }\n\n    function cancelOffer(uint256 _tokenId)\n        external\n        tokenExists(_tokenId)\n        offerExist(_tokenId)\n    {\n        require(\n            _offers[_tokenId] == msg.sender ||\n                hasRole(DEFAULT_ADMIN_ROLE, msg.sender),\n            \"Kargain: You do not have any offer for this token.\"\n        );\n        _refundOffer(_tokenId);\n\n        emit OfferCancelled(msg.sender, _tokenId);\n    }\n\n    function version()public pure returns (string memory)\n    {\n        return \"Kargain v01\";\n    }\n}\n",
  "sourcePath": "/home/damian/Documents/work/kargain-nft/contracts/Kargainv01.sol",
  "compiler": {
    "name": "solc",
    "version": "0.6.12+commit.27d51765.Emscripten.clang"
  },
  "schemaVersion": "3.4.1",
  "updatedAt": "2021-07-29T09:27:06.422Z",
  "networkType": "ethereum",
  "devdoc": {
    "kind": "dev",
    "methods": {
      "approve(address,uint256)": {
        "details": "See {IERC721-approve}."
      },
      "balanceOf(address)": {
        "details": "See {IERC721-balanceOf}."
      },
      "baseURI()": {
        "details": "Returns the base URI set via {_setBaseURI}. This will be automatically added as a prefix in {tokenURI} to each token's URI, or to the token ID if no specific URI is set for that token ID."
      },
      "burn(uint256)": {
        "details": "Burns `tokenId`. See {ERC721-_burn}. Requirements: - The caller must own `tokenId` or be an approved operator."
      },
      "getApproved(uint256)": {
        "details": "See {IERC721-getApproved}."
      },
      "getRoleAdmin(bytes32)": {
        "details": "Returns the admin role that controls `role`. See {grantRole} and {revokeRole}. To change a role's admin, use {_setRoleAdmin}."
      },
      "getRoleMember(bytes32,uint256)": {
        "details": "Returns one of the accounts that have `role`. `index` must be a value between 0 and {getRoleMemberCount}, non-inclusive. Role bearers are not sorted in any particular way, and their ordering may change at any point. WARNING: When using {getRoleMember} and {getRoleMemberCount}, make sure you perform all queries on the same block. See the following https://forum.openzeppelin.com/t/iterating-over-elements-on-enumerableset-in-openzeppelin-contracts/2296[forum post] for more information."
      },
      "getRoleMemberCount(bytes32)": {
        "details": "Returns the number of accounts that have `role`. Can be used together with {getRoleMember} to enumerate all bearers of a role."
      },
      "grantRole(bytes32,address)": {
        "details": "Grants `role` to `account`. If `account` had not been already granted `role`, emits a {RoleGranted} event. Requirements: - the caller must have ``role``'s admin role."
      },
      "hasRole(bytes32,address)": {
        "details": "Returns `true` if `account` has been granted `role`."
      },
      "isApprovedForAll(address,address)": {
        "details": "See {IERC721-isApprovedForAll}."
      },
      "name()": {
        "details": "See {IERC721Metadata-name}."
      },
      "ownerOf(uint256)": {
        "details": "See {IERC721-ownerOf}."
      },
      "renounceRole(bytes32,address)": {
        "details": "Revokes `role` from the calling account. Roles are often managed via {grantRole} and {revokeRole}: this function's purpose is to provide a mechanism for accounts to lose their privileges if they are compromised (such as when a trusted device is misplaced). If the calling account had been granted `role`, emits a {RoleRevoked} event. Requirements: - the caller must be `account`."
      },
      "revokeRole(bytes32,address)": {
        "details": "Revokes `role` from `account`. If `account` had been granted `role`, emits a {RoleRevoked} event. Requirements: - the caller must have ``role``'s admin role."
      },
      "safeTransferFrom(address,address,uint256)": {
        "details": "See {IERC721-safeTransferFrom}."
      },
      "safeTransferFrom(address,address,uint256,bytes)": {
        "details": "See {IERC721-safeTransferFrom}."
      },
      "setApprovalForAll(address,bool)": {
        "details": "See {IERC721-setApprovalForAll}."
      },
      "supportsInterface(bytes4)": {
        "details": "See {IERC165-supportsInterface}. Time complexity O(1), guaranteed to always use less than 30 000 gas."
      },
      "symbol()": {
        "details": "See {IERC721Metadata-symbol}."
      },
      "tokenByIndex(uint256)": {
        "details": "See {IERC721Enumerable-tokenByIndex}."
      },
      "tokenOfOwnerByIndex(address,uint256)": {
        "details": "See {IERC721Enumerable-tokenOfOwnerByIndex}."
      },
      "tokenURI(uint256)": {
        "details": "See {IERC721Metadata-tokenURI}."
      },
      "totalSupply()": {
        "details": "See {IERC721Enumerable-totalSupply}."
      },
      "transferFrom(address,address,uint256)": {
        "details": "See {IERC721-transferFrom}."
      }
    },
    "version": 1
  },
  "userdoc": {
    "kind": "user",
    "methods": {},
    "version": 1
  }
}