{
  "contractName": "KargainV01",
  "abi": [
    {
      "anonymous": false,
      "inputs": [
        {
          "indexed": true,
          "internalType": "address",
          "name": "owner",
          "type": "address"
        },
        {
          "indexed": true,
          "internalType": "address",
          "name": "approved",
          "type": "address"
        },
        {
          "indexed": true,
          "internalType": "uint256",
          "name": "tokenId",
          "type": "uint256"
        }
      ],
      "name": "Approval",
      "type": "event"
    },
    {
      "anonymous": false,
      "inputs": [
        {
          "indexed": true,
          "internalType": "address",
          "name": "owner",
          "type": "address"
        },
        {
          "indexed": true,
          "internalType": "address",
          "name": "operator",
          "type": "address"
        },
        {
          "indexed": false,
          "internalType": "bool",
          "name": "approved",
          "type": "bool"
        }
      ],
      "name": "ApprovalForAll",
      "type": "event"
    },
    {
      "anonymous": false,
      "inputs": [
        {
          "indexed": true,
          "internalType": "address",
          "name": "payer",
          "type": "address"
        },
        {
          "indexed": false,
          "internalType": "uint256",
          "name": "tokenId",
          "type": "uint256"
        }
      ],
      "name": "OfferAccepted",
      "type": "event"
    },
    {
      "anonymous": false,
      "inputs": [
        {
          "indexed": true,
          "internalType": "address",
          "name": "payer",
          "type": "address"
        },
        {
          "indexed": false,
          "internalType": "uint256",
          "name": "tokenId",
          "type": "uint256"
        }
      ],
      "name": "OfferCancelled",
      "type": "event"
    },
    {
      "anonymous": false,
      "inputs": [
        {
          "indexed": true,
          "internalType": "address",
          "name": "payer",
          "type": "address"
        },
        {
          "indexed": false,
          "internalType": "uint256",
          "name": "tokenId",
          "type": "uint256"
        }
      ],
      "name": "OfferExpired",
      "type": "event"
    },
    {
      "anonymous": false,
      "inputs": [
        {
          "indexed": true,
          "internalType": "address",
          "name": "payer",
          "type": "address"
        },
        {
          "indexed": false,
          "internalType": "uint256",
          "name": "tokenId",
          "type": "uint256"
        },
        {
          "indexed": false,
          "internalType": "uint256",
          "name": "amount",
          "type": "uint256"
        }
      ],
      "name": "OfferReceived",
      "type": "event"
    },
    {
      "anonymous": false,
      "inputs": [
        {
          "indexed": true,
          "internalType": "address",
          "name": "payer",
          "type": "address"
        },
        {
          "indexed": false,
          "internalType": "uint256",
          "name": "tokenId",
          "type": "uint256"
        }
      ],
      "name": "OfferRejected",
      "type": "event"
    },
    {
      "anonymous": false,
      "inputs": [
        {
          "indexed": true,
          "internalType": "bytes32",
          "name": "role",
          "type": "bytes32"
        },
        {
          "indexed": true,
          "internalType": "bytes32",
          "name": "previousAdminRole",
          "type": "bytes32"
        },
        {
          "indexed": true,
          "internalType": "bytes32",
          "name": "newAdminRole",
          "type": "bytes32"
        }
      ],
      "name": "RoleAdminChanged",
      "type": "event"
    },
    {
      "anonymous": false,
      "inputs": [
        {
          "indexed": true,
          "internalType": "bytes32",
          "name": "role",
          "type": "bytes32"
        },
        {
          "indexed": true,
          "internalType": "address",
          "name": "account",
          "type": "address"
        },
        {
          "indexed": true,
          "internalType": "address",
          "name": "sender",
          "type": "address"
        }
      ],
      "name": "RoleGranted",
      "type": "event"
    },
    {
      "anonymous": false,
      "inputs": [
        {
          "indexed": true,
          "internalType": "bytes32",
          "name": "role",
          "type": "bytes32"
        },
        {
          "indexed": true,
          "internalType": "address",
          "name": "account",
          "type": "address"
        },
        {
          "indexed": true,
          "internalType": "address",
          "name": "sender",
          "type": "address"
        }
      ],
      "name": "RoleRevoked",
      "type": "event"
    },
    {
      "anonymous": false,
      "inputs": [
        {
          "indexed": true,
          "internalType": "address",
          "name": "creator",
          "type": "address"
        },
        {
          "indexed": true,
          "internalType": "uint256",
          "name": "tokenId",
          "type": "uint256"
        }
      ],
      "name": "TokenMinted",
      "type": "event"
    },
    {
      "anonymous": false,
      "inputs": [
        {
          "indexed": true,
          "internalType": "address",
          "name": "from",
          "type": "address"
        },
        {
          "indexed": true,
          "internalType": "address",
          "name": "to",
          "type": "address"
        },
        {
          "indexed": true,
          "internalType": "uint256",
          "name": "tokenId",
          "type": "uint256"
        }
      ],
      "name": "Transfer",
      "type": "event"
    },
    {
      "inputs": [],
      "name": "DEFAULT_ADMIN_ROLE",
      "outputs": [
        {
          "internalType": "bytes32",
          "name": "",
          "type": "bytes32"
        }
      ],
      "stateMutability": "view",
      "type": "function"
    },
    {
      "inputs": [
        {
          "internalType": "address",
          "name": "to",
          "type": "address"
        },
        {
          "internalType": "uint256",
          "name": "tokenId",
          "type": "uint256"
        }
      ],
      "name": "approve",
      "outputs": [],
      "stateMutability": "nonpayable",
      "type": "function"
    },
    {
      "inputs": [
        {
          "internalType": "address",
          "name": "owner",
          "type": "address"
        }
      ],
      "name": "balanceOf",
      "outputs": [
        {
          "internalType": "uint256",
          "name": "",
          "type": "uint256"
        }
      ],
      "stateMutability": "view",
      "type": "function"
    },
    {
      "inputs": [],
      "name": "baseURI",
      "outputs": [
        {
          "internalType": "string",
          "name": "",
          "type": "string"
        }
      ],
      "stateMutability": "view",
      "type": "function"
    },
    {
      "inputs": [
        {
          "internalType": "uint256",
          "name": "tokenId",
          "type": "uint256"
        }
      ],
      "name": "burn",
      "outputs": [],
      "stateMutability": "nonpayable",
      "type": "function"
    },
    {
      "inputs": [
        {
          "internalType": "uint256",
          "name": "tokenId",
          "type": "uint256"
        }
      ],
      "name": "getApproved",
      "outputs": [
        {
          "internalType": "address",
          "name": "",
          "type": "address"
        }
      ],
      "stateMutability": "view",
      "type": "function"
    },
    {
      "inputs": [
        {
          "internalType": "bytes32",
          "name": "role",
          "type": "bytes32"
        }
      ],
      "name": "getRoleAdmin",
      "outputs": [
        {
          "internalType": "bytes32",
          "name": "",
          "type": "bytes32"
        }
      ],
      "stateMutability": "view",
      "type": "function"
    },
    {
      "inputs": [
        {
          "internalType": "bytes32",
          "name": "role",
          "type": "bytes32"
        },
        {
          "internalType": "uint256",
          "name": "index",
          "type": "uint256"
        }
      ],
      "name": "getRoleMember",
      "outputs": [
        {
          "internalType": "address",
          "name": "",
          "type": "address"
        }
      ],
      "stateMutability": "view",
      "type": "function"
    },
    {
      "inputs": [
        {
          "internalType": "bytes32",
          "name": "role",
          "type": "bytes32"
        }
      ],
      "name": "getRoleMemberCount",
      "outputs": [
        {
          "internalType": "uint256",
          "name": "",
          "type": "uint256"
        }
      ],
      "stateMutability": "view",
      "type": "function"
    },
    {
      "inputs": [
        {
          "internalType": "bytes32",
          "name": "role",
          "type": "bytes32"
        },
        {
          "internalType": "address",
          "name": "account",
          "type": "address"
        }
      ],
      "name": "grantRole",
      "outputs": [],
      "stateMutability": "nonpayable",
      "type": "function"
    },
    {
      "inputs": [
        {
          "internalType": "bytes32",
          "name": "role",
          "type": "bytes32"
        },
        {
          "internalType": "address",
          "name": "account",
          "type": "address"
        }
      ],
      "name": "hasRole",
      "outputs": [
        {
          "internalType": "bool",
          "name": "",
          "type": "bool"
        }
      ],
      "stateMutability": "view",
      "type": "function"
    },
    {
      "inputs": [
        {
          "internalType": "address",
          "name": "owner",
          "type": "address"
        },
        {
          "internalType": "address",
          "name": "operator",
          "type": "address"
        }
      ],
      "name": "isApprovedForAll",
      "outputs": [
        {
          "internalType": "bool",
          "name": "",
          "type": "bool"
        }
      ],
      "stateMutability": "view",
      "type": "function"
    },
    {
      "inputs": [],
      "name": "name",
      "outputs": [
        {
          "internalType": "string",
          "name": "",
          "type": "string"
        }
      ],
      "stateMutability": "view",
      "type": "function"
    },
    {
      "inputs": [
        {
          "internalType": "uint256",
          "name": "tokenId",
          "type": "uint256"
        }
      ],
      "name": "ownerOf",
      "outputs": [
        {
          "internalType": "address",
          "name": "",
          "type": "address"
        }
      ],
      "stateMutability": "view",
      "type": "function"
    },
    {
      "inputs": [
        {
          "internalType": "bytes32",
          "name": "role",
          "type": "bytes32"
        },
        {
          "internalType": "address",
          "name": "account",
          "type": "address"
        }
      ],
      "name": "renounceRole",
      "outputs": [],
      "stateMutability": "nonpayable",
      "type": "function"
    },
    {
      "inputs": [
        {
          "internalType": "bytes32",
          "name": "role",
          "type": "bytes32"
        },
        {
          "internalType": "address",
          "name": "account",
          "type": "address"
        }
      ],
      "name": "revokeRole",
      "outputs": [],
      "stateMutability": "nonpayable",
      "type": "function"
    },
    {
      "inputs": [
        {
          "internalType": "address",
          "name": "from",
          "type": "address"
        },
        {
          "internalType": "address",
          "name": "to",
          "type": "address"
        },
        {
          "internalType": "uint256",
          "name": "tokenId",
          "type": "uint256"
        }
      ],
      "name": "safeTransferFrom",
      "outputs": [],
      "stateMutability": "nonpayable",
      "type": "function"
    },
    {
      "inputs": [
        {
          "internalType": "address",
          "name": "from",
          "type": "address"
        },
        {
          "internalType": "address",
          "name": "to",
          "type": "address"
        },
        {
          "internalType": "uint256",
          "name": "tokenId",
          "type": "uint256"
        },
        {
          "internalType": "bytes",
          "name": "_data",
          "type": "bytes"
        }
      ],
      "name": "safeTransferFrom",
      "outputs": [],
      "stateMutability": "nonpayable",
      "type": "function"
    },
    {
      "inputs": [
        {
          "internalType": "address",
          "name": "operator",
          "type": "address"
        },
        {
          "internalType": "bool",
          "name": "approved",
          "type": "bool"
        }
      ],
      "name": "setApprovalForAll",
      "outputs": [],
      "stateMutability": "nonpayable",
      "type": "function"
    },
    {
      "inputs": [
        {
          "internalType": "bytes4",
          "name": "interfaceId",
          "type": "bytes4"
        }
      ],
      "name": "supportsInterface",
      "outputs": [
        {
          "internalType": "bool",
          "name": "",
          "type": "bool"
        }
      ],
      "stateMutability": "view",
      "type": "function"
    },
    {
      "inputs": [],
      "name": "symbol",
      "outputs": [
        {
          "internalType": "string",
          "name": "",
          "type": "string"
        }
      ],
      "stateMutability": "view",
      "type": "function"
    },
    {
      "inputs": [
        {
          "internalType": "uint256",
          "name": "index",
          "type": "uint256"
        }
      ],
      "name": "tokenByIndex",
      "outputs": [
        {
          "internalType": "uint256",
          "name": "",
          "type": "uint256"
        }
      ],
      "stateMutability": "view",
      "type": "function"
    },
    {
      "inputs": [
        {
          "internalType": "address",
          "name": "owner",
          "type": "address"
        },
        {
          "internalType": "uint256",
          "name": "index",
          "type": "uint256"
        }
      ],
      "name": "tokenOfOwnerByIndex",
      "outputs": [
        {
          "internalType": "uint256",
          "name": "",
          "type": "uint256"
        }
      ],
      "stateMutability": "view",
      "type": "function"
    },
    {
      "inputs": [
        {
          "internalType": "uint256",
          "name": "tokenId",
          "type": "uint256"
        }
      ],
      "name": "tokenURI",
      "outputs": [
        {
          "internalType": "string",
          "name": "",
          "type": "string"
        }
      ],
      "stateMutability": "view",
      "type": "function"
    },
    {
      "inputs": [],
      "name": "totalSupply",
      "outputs": [
        {
          "internalType": "uint256",
          "name": "",
          "type": "uint256"
        }
      ],
      "stateMutability": "view",
      "type": "function"
    },
    {
      "inputs": [
        {
          "internalType": "address",
          "name": "from",
          "type": "address"
        },
        {
          "internalType": "address",
          "name": "to",
          "type": "address"
        },
        {
          "internalType": "uint256",
          "name": "tokenId",
          "type": "uint256"
        }
      ],
      "name": "transferFrom",
      "outputs": [],
      "stateMutability": "nonpayable",
      "type": "function"
    },
    {
      "inputs": [
        {
          "internalType": "address payable",
          "name": "_platformAddress_",
          "type": "address"
        },
        {
          "internalType": "uint256",
          "name": "_platformCommissionPercent_",
          "type": "uint256"
        }
      ],
      "name": "initialize",
      "outputs": [],
      "stateMutability": "nonpayable",
      "type": "function"
    },
    {
      "inputs": [],
      "name": "platformCommissionPercent",
      "outputs": [
        {
          "internalType": "uint256",
          "name": "",
          "type": "uint256"
        }
      ],
      "stateMutability": "view",
      "type": "function"
    },
    {
      "inputs": [
        {
          "internalType": "uint256",
          "name": "platformCommissionPercent_",
          "type": "uint256"
        }
      ],
      "name": "setPlatformCommissionPercent",
      "outputs": [],
      "stateMutability": "nonpayable",
      "type": "function"
    },
    {
      "inputs": [],
      "name": "platformAddress",
      "outputs": [
        {
          "internalType": "address payable",
          "name": "",
          "type": "address"
        }
      ],
      "stateMutability": "view",
      "type": "function"
    },
    {
      "inputs": [
        {
          "internalType": "address payable",
          "name": "platformAddress_",
          "type": "address"
        }
      ],
      "name": "setPlatformAddress",
      "outputs": [],
      "stateMutability": "nonpayable",
      "type": "function"
    },
    {
      "inputs": [],
      "name": "offerExpirationTime",
      "outputs": [
        {
          "internalType": "uint256",
          "name": "",
          "type": "uint256"
        }
      ],
      "stateMutability": "view",
      "type": "function"
    },
    {
      "inputs": [
        {
          "internalType": "uint256",
          "name": "offerExpirationTime_",
          "type": "uint256"
        }
      ],
      "name": "setOfferExpirationTime",
      "outputs": [],
      "stateMutability": "nonpayable",
      "type": "function"
    },
    {
      "inputs": [
        {
          "internalType": "uint256",
          "name": "_tokenId",
          "type": "uint256"
        }
      ],
      "name": "tokenPrice",
      "outputs": [
        {
          "internalType": "uint256",
          "name": "",
          "type": "uint256"
        }
      ],
      "stateMutability": "view",
      "type": "function"
    },
    {
      "inputs": [
        {
          "internalType": "uint256",
          "name": "_tokenId",
          "type": "uint256"
        },
        {
          "internalType": "uint256",
          "name": "_price",
          "type": "uint256"
        }
      ],
      "name": "setTokenPrice",
      "outputs": [],
      "stateMutability": "nonpayable",
      "type": "function"
    },
    {
      "inputs": [
        {
          "internalType": "uint256",
          "name": "_tokenId",
          "type": "uint256"
        }
      ],
      "name": "offerAddress",
      "outputs": [
        {
          "internalType": "address payable",
          "name": "",
          "type": "address"
        }
      ],
      "stateMutability": "view",
      "type": "function"
    },
    {
      "inputs": [
        {
          "internalType": "uint256",
          "name": "_tokenId",
          "type": "uint256"
        },
        {
          "internalType": "uint256",
          "name": "_price",
          "type": "uint256"
        }
      ],
      "name": "mint",
      "outputs": [],
      "stateMutability": "nonpayable",
      "type": "function"
    },
    {
      "inputs": [
        {
          "internalType": "uint256",
          "name": "_tokenId",
          "type": "uint256"
        }
      ],
      "name": "createOffer",
      "outputs": [],
      "stateMutability": "payable",
      "type": "function"
    },
    {
      "inputs": [
        {
          "internalType": "uint256",
          "name": "_tokenId",
          "type": "uint256"
        }
      ],
      "name": "acceptOffer",
      "outputs": [],
      "stateMutability": "nonpayable",
      "type": "function"
    },
    {
      "inputs": [
        {
          "internalType": "uint256",
          "name": "_tokenId",
          "type": "uint256"
        }
      ],
      "name": "rejectOffer",
      "outputs": [],
      "stateMutability": "nonpayable",
      "type": "function"
    },
    {
      "inputs": [
        {
          "internalType": "uint256",
          "name": "_tokenId",
          "type": "uint256"
        }
      ],
      "name": "cancelOffer",
      "outputs": [],
      "stateMutability": "nonpayable",
      "type": "function"
    },
    {
      "inputs": [
        {
          "internalType": "uint256",
          "name": "_tokenId",
          "type": "uint256"
        }
      ],
      "name": "offerExpiration",
      "outputs": [
        {
          "internalType": "bool",
          "name": "",
          "type": "bool"
        }
      ],
      "stateMutability": "view",
      "type": "function"
    }
  ],
  "bytecode": "0x608060405234801561001057600080fd5b50615fdb80620000216000396000f3fe6080604052600436106102515760003560e01c80639010d07c11610139578063c87b56dd116100b6578063d547741f1161007a578063d547741f14610fd7578063dbe55e5614611032578063df1506e814611073578063e985e9c51461109e578063eb685c4714611125578063ef706adf1461116a57610251565b8063c87b56dd14610dd9578063ca15c87314610e8d578063cc03c34214610edc578063cd6dc68714610f2d578063d4ddce8a14610f8857610251565b8063a269993d116100fd578063a269993d14610bbe578063b88d4fde14610bec578063bf82835b14610cfe578063c6ba6a1d14610d39578063c815729d14610d9e57610251565b80639010d07c146109c657806391d1485414610a3557806395d89b4114610aa6578063a217fddf14610b36578063a22cb46514610b6157610251565b80632f2ff15d116101d25780634f6ccce7116101965780634f6ccce7146107915780636352211e146107e05780636c0360eb1461084557806370a08231146108d557806379d6c3031461093a57806388b10c751461098b57610251565b80632f2ff15d146105b65780632f745c591461061157806336568abe1461068057806342842e0e146106db57806342966c681461075657610251565b80631a4ba059116102195780631a4ba059146104415780631b2ef1ca1461047c57806323b872dd146104c1578063248a9ca31461053c578063271e044e1461058b57610251565b806301ffc9a71461025657806306fdde03146102c6578063081812fc14610356578063095ea7b3146103bb57806318160ddd14610416575b600080fd5b34801561026257600080fd5b506102ae6004803603602081101561027957600080fd5b8101908080357bffffffffffffffffffffffffffffffffffffffffffffffffffffffff191690602001909291905050506111a5565b60405180821515815260200191505060405180910390f35b3480156102d257600080fd5b506102db61120d565b6040518080602001828103825283818151815260200191508051906020019080838360005b8381101561031b578082015181840152602081019050610300565b50505050905090810190601f1680156103485780820380516001836020036101000a031916815260200191505b509250505060405180910390f35b34801561036257600080fd5b5061038f6004803603602081101561037957600080fd5b81019080803590602001909291905050506112af565b604051808273ffffffffffffffffffffffffffffffffffffffff16815260200191505060405180910390f35b3480156103c757600080fd5b50610414600480360360408110156103de57600080fd5b81019080803573ffffffffffffffffffffffffffffffffffffffff1690602001909291908035906020019092919050505061134a565b005b34801561042257600080fd5b5061042b61148e565b6040518082815260200191505060405180910390f35b34801561044d57600080fd5b5061047a6004803603602081101561046457600080fd5b810190808035906020019092919050505061149f565b005b34801561048857600080fd5b506104bf6004803603604081101561049f57600080fd5b81019080803590602001909291908035906020019092919050505061152f565b005b3480156104cd57600080fd5b5061053a600480360360608110156104e457600080fd5b81019080803573ffffffffffffffffffffffffffffffffffffffff169060200190929190803573ffffffffffffffffffffffffffffffffffffffff16906020019092919080359060200190929190505050611651565b005b34801561054857600080fd5b506105756004803603602081101561055f57600080fd5b81019080803590602001909291905050506116c7565b6040518082815260200191505060405180910390f35b34801561059757600080fd5b506105a06116e7565b6040518082815260200191505060405180910390f35b3480156105c257600080fd5b5061060f600480360360408110156105d957600080fd5b8101908080359060200190929190803573ffffffffffffffffffffffffffffffffffffffff1690602001909291905050506116f1565b005b34801561061d57600080fd5b5061066a6004803603604081101561063457600080fd5b81019080803573ffffffffffffffffffffffffffffffffffffffff1690602001909291908035906020019092919050505061177b565b6040518082815260200191505060405180910390f35b34801561068c57600080fd5b506106d9600480360360408110156106a357600080fd5b8101908080359060200190929190803573ffffffffffffffffffffffffffffffffffffffff1690602001909291905050506117d6565b005b3480156106e757600080fd5b50610754600480360360608110156106fe57600080fd5b81019080803573ffffffffffffffffffffffffffffffffffffffff169060200190929190803573ffffffffffffffffffffffffffffffffffffffff1690602001909291908035906020019092919050505061186f565b005b34801561076257600080fd5b5061078f6004803603602081101561077957600080fd5b810190808035906020019092919050505061188f565b005b34801561079d57600080fd5b506107ca600480360360208110156107b457600080fd5b8101908080359060200190929190505050611901565b6040518082815260200191505060405180910390f35b3480156107ec57600080fd5b506108196004803603602081101561080357600080fd5b8101908080359060200190929190505050611924565b604051808273ffffffffffffffffffffffffffffffffffffffff16815260200191505060405180910390f35b34801561085157600080fd5b5061085a61195b565b6040518080602001828103825283818151815260200191508051906020019080838360005b8381101561089a57808201518184015260208101905061087f565b50505050905090810190601f1680156108c75780820380516001836020036101000a031916815260200191505b509250505060405180910390f35b3480156108e157600080fd5b50610924600480360360208110156108f857600080fd5b81019080803573ffffffffffffffffffffffffffffffffffffffff1690602001909291905050506119fd565b6040518082815260200191505060405180910390f35b34801561094657600080fd5b506109736004803603602081101561095d57600080fd5b8101908080359060200190929190505050611ad2565b60405180821515815260200191505060405180910390f35b34801561099757600080fd5b506109c4600480360360208110156109ae57600080fd5b8101908080359060200190929190505050611bad565b005b3480156109d257600080fd5b50610a09600480360360408110156109e957600080fd5b810190808035906020019092919080359060200190929190505050611db0565b604051808273ffffffffffffffffffffffffffffffffffffffff16815260200191505060405180910390f35b348015610a4157600080fd5b50610a8e60048036036040811015610a5857600080fd5b8101908080359060200190929190803573ffffffffffffffffffffffffffffffffffffffff169060200190929190505050611de2565b60405180821515815260200191505060405180910390f35b348015610ab257600080fd5b50610abb611e14565b6040518080602001828103825283818151815260200191508051906020019080838360005b83811015610afb578082015181840152602081019050610ae0565b50505050905090810190601f168015610b285780820380516001836020036101000a031916815260200191505b509250505060405180910390f35b348015610b4257600080fd5b50610b4b611eb6565b6040518082815260200191505060405180910390f35b348015610b6d57600080fd5b50610bbc60048036036040811015610b8457600080fd5b81019080803573ffffffffffffffffffffffffffffffffffffffff169060200190929190803515159060200190929190505050611ebd565b005b610bea60048036036020811015610bd457600080fd5b8101908080359060200190929190505050612073565b005b348015610bf857600080fd5b50610cfc60048036036080811015610c0f57600080fd5b81019080803573ffffffffffffffffffffffffffffffffffffffff169060200190929190803573ffffffffffffffffffffffffffffffffffffffff1690602001909291908035906020019092919080359060200190640100000000811115610c7657600080fd5b820183602082011115610c8857600080fd5b80359060200191846001830284011164010000000083111715610caa57600080fd5b91908080601f016020809104026020016040519081016040528093929190818152602001838380828437600081840152601f19601f82011690508083019250505050505050919291929050505061237a565b005b348015610d0a57600080fd5b50610d3760048036036020811015610d2157600080fd5b81019080803590602001909291905050506123f2565b005b348015610d4557600080fd5b50610d7260048036036020811015610d5c57600080fd5b8101908080359060200190929190505050612482565b604051808273ffffffffffffffffffffffffffffffffffffffff16815260200191505060405180910390f35b348015610daa57600080fd5b50610dd760048036036020811015610dc157600080fd5b810190808035906020019092919050505061251f565b005b348015610de557600080fd5b50610e1260048036036020811015610dfc57600080fd5b8101908080359060200190929190505050612981565b6040518080602001828103825283818151815260200191508051906020019080838360005b83811015610e52578082015181840152602081019050610e37565b50505050905090810190601f168015610e7f5780820380516001836020036101000a031916815260200191505b509250505060405180910390f35b348015610e9957600080fd5b50610ec660048036036020811015610eb057600080fd5b8101908080359060200190929190505050612c52565b6040518082815260200191505060405180910390f35b348015610ee857600080fd5b50610f2b60048036036020811015610eff57600080fd5b81019080803573ffffffffffffffffffffffffffffffffffffffff169060200190929190505050612c79565b005b348015610f3957600080fd5b50610f8660048036036040811015610f5057600080fd5b81019080803573ffffffffffffffffffffffffffffffffffffffff16906020019092919080359060200190929190505050612d43565b005b348015610f9457600080fd5b50610fc160048036036020811015610fab57600080fd5b8101908080359060200190929190505050612f26565b6040518082815260200191505060405180910390f35b348015610fe357600080fd5b5061103060048036036040811015610ffa57600080fd5b8101908080359060200190929190803573ffffffffffffffffffffffffffffffffffffffff169060200190929190505050612fa3565b005b34801561103e57600080fd5b5061104761302d565b604051808273ffffffffffffffffffffffffffffffffffffffff16815260200191505060405180910390f35b34801561107f57600080fd5b50611088613057565b6040518082815260200191505060405180910390f35b3480156110aa57600080fd5b5061110d600480360360408110156110c157600080fd5b81019080803573ffffffffffffffffffffffffffffffffffffffff169060200190929190803573ffffffffffffffffffffffffffffffffffffffff169060200190929190505050613061565b60405180821515815260200191505060405180910390f35b34801561113157600080fd5b506111686004803603604081101561114857600080fd5b8101908080359060200190929190803590602001909291905050506130f5565b005b34801561117657600080fd5b506111a36004803603602081101561118d57600080fd5b81019080803590602001909291905050506132d5565b005b600060336000837bffffffffffffffffffffffffffffffffffffffffffffffffffffffff19167bffffffffffffffffffffffffffffffffffffffffffffffffffffffff1916815260200190815260200160002060009054906101000a900460ff169050919050565b6060606a8054600181600116156101000203166002900480601f0160208091040260200160405190810160405280929190818152602001828054600181600116156101000203166002900480156112a55780601f1061127a576101008083540402835291602001916112a5565b820191906000526020600020905b81548152906001019060200180831161128857829003601f168201915b5050505050905090565b60006112ba82613515565b61130f576040517f08c379a000000000000000000000000000000000000000000000000000000000815260040180806020018281038252602c815260200180615d9a602c913960400191505060405180910390fd5b6068600083815260200190815260200160002060009054906101000a900473ffffffffffffffffffffffffffffffffffffffff169050919050565b600061135582611924565b90508073ffffffffffffffffffffffffffffffffffffffff168373ffffffffffffffffffffffffffffffffffffffff1614156113dc576040517f08c379a0000000000000000000000000000000000000000000000000000000008152600401808060200182810382526021815260200180615e436021913960400191505060405180910390fd5b8073ffffffffffffffffffffffffffffffffffffffff166113fb613532565b73ffffffffffffffffffffffffffffffffffffffff16148061142a575061142981611424613532565b613061565b5b61147f576040517f08c379a0000000000000000000000000000000000000000000000000000000008152600401808060200182810382526038815260200180615c156038913960400191505060405180910390fd5b611489838361353a565b505050565b600061149a60666135f3565b905090565b6114b36000801b6114ae613532565b611de2565b611525576040517f08c379a000000000000000000000000000000000000000000000000000000000815260040180806020018281038252601e8152602001807f4b61726761696e3a2043616c6c6572206973206e6f7420612061646d696e000081525060200191505060405180910390fd5b8060fd8190555050565b61153882613515565b1561158e576040517f08c379a000000000000000000000000000000000000000000000000000000000815260040180806020018281038252602a815260200180615f4d602a913960400191505060405180910390fd5b600081116115e7576040517f08c379a000000000000000000000000000000000000000000000000000000000815260040180806020018281038252602a815260200180615beb602a913960400191505060405180910390fd5b6115f13383613608565b8060fe600084815260200190815260200160002081905550813373ffffffffffffffffffffffffffffffffffffffff167fb9144c96c86541f6fa89c9f2f02495cccf4b08cd6643e26d34ee00aa586558a860405160405180910390a35050565b61166261165c613532565b826137fc565b6116b7576040517f08c379a0000000000000000000000000000000000000000000000000000000008152600401808060200182810382526031815260200180615e646031913960400191505060405180910390fd5b6116c28383836138f0565b505050565b600060c96000838152602001908152602001600020600201549050919050565b600060fd54905090565b61171860c9600084815260200190815260200160002060020154611713613532565b611de2565b61176d576040517f08c379a000000000000000000000000000000000000000000000000000000000815260040180806020018281038252602f815260200180615a96602f913960400191505060405180910390fd5b6117778282613b33565b5050565b60006117ce82606560008673ffffffffffffffffffffffffffffffffffffffff1673ffffffffffffffffffffffffffffffffffffffff168152602001908152602001600020613bc790919063ffffffff16565b905092915050565b6117de613532565b73ffffffffffffffffffffffffffffffffffffffff168173ffffffffffffffffffffffffffffffffffffffff1614611861576040517f08c379a000000000000000000000000000000000000000000000000000000000815260040180806020018281038252602f815260200180615f77602f913960400191505060405180910390fd5b61186b8282613be1565b5050565b61188a8383836040518060200160405280600081525061237a565b505050565b6118a061189a613532565b826137fc565b6118f5576040517f08c379a0000000000000000000000000000000000000000000000000000000008152600401808060200182810382526030815260200180615f1d6030913960400191505060405180910390fd5b6118fe81613c75565b50565b600080611918836066613daf90919063ffffffff16565b50905080915050919050565b600061195482604051806060016040528060298152602001615c77602991396066613ddb9092919063ffffffff16565b9050919050565b6060606d8054600181600116156101000203166002900480601f0160208091040260200160405190810160405280929190818152602001828054600181600116156101000203166002900480156119f35780601f106119c8576101008083540402835291602001916119f3565b820191906000526020600020905b8154815290600101906020018083116119d657829003601f168201915b5050505050905090565b60008073ffffffffffffffffffffffffffffffffffffffff168273ffffffffffffffffffffffffffffffffffffffff161415611a84576040517f08c379a000000000000000000000000000000000000000000000000000000000815260040180806020018281038252602a815260200180615c4d602a913960400191505060405180910390fd5b611acb606560008473ffffffffffffffffffffffffffffffffffffffff1673ffffffffffffffffffffffffffffffffffffffff168152602001908152602001600020613dfa565b9050919050565b600081600073ffffffffffffffffffffffffffffffffffffffff1660ff600083815260200190815260200160002060009054906101000a900473ffffffffffffffffffffffffffffffffffffffff1673ffffffffffffffffffffffffffffffffffffffff161415611b8e576040517f08c379a0000000000000000000000000000000000000000000000000000000008152600401808060200182810382526031815260200180615eec6031913960400191505060405180910390fd5b4261010060008581526020019081526020016000205410915050919050565b80611bb781613515565b611c0c576040517f08c379a000000000000000000000000000000000000000000000000000000000815260040180806020018281038252602a815260200180615d00602a913960400191505060405180910390fd5b813373ffffffffffffffffffffffffffffffffffffffff16611c2d82611924565b73ffffffffffffffffffffffffffffffffffffffff1614611c99576040517f08c379a000000000000000000000000000000000000000000000000000000000815260040180806020018281038252602d815260200180615d6d602d913960400191505060405180910390fd5b82600073ffffffffffffffffffffffffffffffffffffffff1660ff600083815260200190815260200160002060009054906101000a900473ffffffffffffffffffffffffffffffffffffffff1673ffffffffffffffffffffffffffffffffffffffff161415611d53576040517f08c379a0000000000000000000000000000000000000000000000000000000008152600401808060200182810382526031815260200180615eec6031913960400191505060405180910390fd5b611d5c84613e0f565b3373ffffffffffffffffffffffffffffffffffffffff167f1f592dbf03205ee7f7c0b32b5b071beaf79c4e0b84a954d5160dccaa79c79584856040518082815260200191505060405180910390a250505050565b6000611dda8260c9600086815260200190815260200160002060000161400e90919063ffffffff16565b905092915050565b6000611e0c8260c9600086815260200190815260200160002060000161402890919063ffffffff16565b905092915050565b6060606b8054600181600116156101000203166002900480601f016020809104026020016040519081016040528092919081815260200182805460018160011615610100020316600290048015611eac5780601f10611e8157610100808354040283529160200191611eac565b820191906000526020600020905b815481529060010190602001808311611e8f57829003601f168201915b5050505050905090565b6000801b81565b611ec5613532565b73ffffffffffffffffffffffffffffffffffffffff168273ffffffffffffffffffffffffffffffffffffffff161415611f66576040517f08c379a00000000000000000000000000000000000000000000000000000000081526004018080602001828103825260198152602001807f4552433732313a20617070726f766520746f2063616c6c65720000000000000081525060200191505060405180910390fd5b8060696000611f73613532565b73ffffffffffffffffffffffffffffffffffffffff1673ffffffffffffffffffffffffffffffffffffffff16815260200190815260200160002060008473ffffffffffffffffffffffffffffffffffffffff1673ffffffffffffffffffffffffffffffffffffffff16815260200190815260200160002060006101000a81548160ff0219169083151502179055508173ffffffffffffffffffffffffffffffffffffffff16612020613532565b73ffffffffffffffffffffffffffffffffffffffff167f17307eab39ab6107e8899845ad3d59bd9653f200f220920489ca2b5937696c318360405180821515815260200191505060405180910390a35050565b8061207d81613515565b6120d2576040517f08c379a000000000000000000000000000000000000000000000000000000000815260040180806020018281038252602a815260200180615d00602a913960400191505060405180910390fd5b3373ffffffffffffffffffffffffffffffffffffffff166120f283611924565b73ffffffffffffffffffffffffffffffffffffffff16141561215f576040517f08c379a0000000000000000000000000000000000000000000000000000000008152600401808060200182810382526027815260200180615ac56027913960400191505060405180910390fd5b600073ffffffffffffffffffffffffffffffffffffffff1660ff600084815260200190815260200160002060009054906101000a900473ffffffffffffffffffffffffffffffffffffffff1673ffffffffffffffffffffffffffffffffffffffff161480156121e1575042610100600084815260200190815260200160002054105b612236576040517f08c379a0000000000000000000000000000000000000000000000000000000008152600401808060200182810382526027815260200180615b426027913960400191505060405180910390fd5b60fe60008381526020019081526020016000205434146122a1576040517f08c379a0000000000000000000000000000000000000000000000000000000008152600401808060200182810382526025815260200180615dc66025913960400191505060405180910390fd5b3360ff600084815260200190815260200160002060006101000a81548173ffffffffffffffffffffffffffffffffffffffff021916908373ffffffffffffffffffffffffffffffffffffffff16021790555061230860fd544261405890919063ffffffff16565b6101006000848152602001908152602001600020819055503373ffffffffffffffffffffffffffffffffffffffff167f2c7945bf3248598029aaee74e7a7c694cceba99c30ab722154f6e8315addb7698334604051808381526020018281526020019250505060405180910390a25050565b61238b612385613532565b836137fc565b6123e0576040517f08c379a0000000000000000000000000000000000000000000000000000000008152600401808060200182810382526031815260200180615e646031913960400191505060405180910390fd5b6123ec848484846140e0565b50505050565b6124066000801b612401613532565b611de2565b612478576040517f08c379a000000000000000000000000000000000000000000000000000000000815260040180806020018281038252601e8152602001807f4b61726761696e3a2043616c6c6572206973206e6f7420612061646d696e000081525060200191505060405180910390fd5b8060fc8190555050565b60008161248e81613515565b6124e3576040517f08c379a000000000000000000000000000000000000000000000000000000000815260040180806020018281038252602a815260200180615d00602a913960400191505060405180910390fd5b60ff600084815260200190815260200160002060009054906101000a900473ffffffffffffffffffffffffffffffffffffffff16915050919050565b8061252981613515565b61257e576040517f08c379a000000000000000000000000000000000000000000000000000000000815260040180806020018281038252602a815260200180615d00602a913960400191505060405180910390fd5b81600073ffffffffffffffffffffffffffffffffffffffff1660ff600083815260200190815260200160002060009054906101000a900473ffffffffffffffffffffffffffffffffffffffff1673ffffffffffffffffffffffffffffffffffffffff161415612638576040517f08c379a0000000000000000000000000000000000000000000000000000000008152600401808060200182810382526031815260200180615eec6031913960400191505060405180910390fd5b823373ffffffffffffffffffffffffffffffffffffffff1661265982611924565b73ffffffffffffffffffffffffffffffffffffffff16146126c5576040517f08c379a000000000000000000000000000000000000000000000000000000000815260040180806020018281038252602d815260200180615d6d602d913960400191505060405180910390fd5b4261010060008681526020019081526020016000205410156127825760ff600085815260200190815260200160002060006101000a81549073ffffffffffffffffffffffffffffffffffffffff02191690556101006000858152602001908152602001600020600090553373ffffffffffffffffffffffffffffffffffffffff167f517d0330169de1af1cb63d88530c8908884d15617822170b876786e48f92917f856040518082815260200191505060405180910390a261297b565b600060ff600086815260200190815260200160002060009054906101000a900473ffffffffffffffffffffffffffffffffffffffff16905060ff600086815260200190815260200160002060006101000a81549073ffffffffffffffffffffffffffffffffffffffff021916905561010060008681526020019081526020016000206000905560006128486004600a0a61283a60fc5460fe60008b81526020019081526020016000205461415290919063ffffffff16565b6141d890919063ffffffff16565b905060fb60009054906101000a900473ffffffffffffffffffffffffffffffffffffffff1673ffffffffffffffffffffffffffffffffffffffff166108fc829081150290604051600060405180830381858888f193505050501580156128b2573d6000803e3d6000fd5b503373ffffffffffffffffffffffffffffffffffffffff166108fc6128f38360fe60008b81526020019081526020016000205461426190919063ffffffff16565b9081150290604051600060405180830381858888f1935050505015801561291e573d6000803e3d6000fd5b5061292a33838861186f565b3373ffffffffffffffffffffffffffffffffffffffff167f18f9d2c9031a53ca9e501ddaadc6e66758b39bbf424cf4e22c62b6003fbd240c876040518082815260200191505060405180910390a250505b50505050565b606061298c82613515565b6129e1576040517f08c379a000000000000000000000000000000000000000000000000000000000815260040180806020018281038252602f815260200180615e14602f913960400191505060405180910390fd5b6060606c60008481526020019081526020016000208054600181600116156101000203166002900480601f016020809104026020016040519081016040528092919081815260200182805460018160011615610100020316600290048015612a8a5780601f10612a5f57610100808354040283529160200191612a8a565b820191906000526020600020905b815481529060010190602001808311612a6d57829003601f168201915b505050505090506060612a9b61195b565b9050600081511415612ab1578192505050612c4d565b600082511115612b825780826040516020018083805190602001908083835b60208310612af35780518252602082019150602081019050602083039250612ad0565b6001836020036101000a03801982511681845116808217855250505050505090500182805190602001908083835b60208310612b445780518252602082019150602081019050602083039250612b21565b6001836020036101000a0380198251168184511680821785525050505050509050019250505060405160208183030381529060405292505050612c4d565b80612b8c856142e4565b6040516020018083805190602001908083835b60208310612bc25780518252602082019150602081019050602083039250612b9f565b6001836020036101000a03801982511681845116808217855250505050505090500182805190602001908083835b60208310612c135780518252602082019150602081019050602083039250612bf0565b6001836020036101000a03801982511681845116808217855250505050505090500192505050604051602081830303815290604052925050505b919050565b6000612c7260c9600084815260200190815260200160002060000161442b565b9050919050565b612c8d6000801b612c88613532565b611de2565b612cff576040517f08c379a000000000000000000000000000000000000000000000000000000000815260040180806020018281038252601e8152602001807f4b61726761696e3a2043616c6c6572206973206e6f7420612061646d696e000081525060200191505060405180910390fd5b8060fb60006101000a81548173ffffffffffffffffffffffffffffffffffffffff021916908373ffffffffffffffffffffffffffffffffffffffff16021790555050565b600060019054906101000a900460ff1680612d625750612d61614440565b5b80612d78575060008054906101000a900460ff16155b612dcd576040517f08c379a000000000000000000000000000000000000000000000000000000000815260040180806020018281038252602e815260200180615cd2602e913960400191505060405180910390fd5b60008060019054906101000a900460ff161590508015612e1d576001600060016101000a81548160ff02191690831515021790555060016000806101000a81548160ff0219169083151502179055505b8260fb60006101000a81548173ffffffffffffffffffffffffffffffffffffffff021916908373ffffffffffffffffffffffffffffffffffffffff1602179055508160fc819055506201518060fd81905550612e77614451565b612eeb6040518060400160405280600781526020017f4b61726761696e000000000000000000000000000000000000000000000000008152506040518060400160405280600381526020017f4b474e0000000000000000000000000000000000000000000000000000000000815250614567565b612ef3614681565b612f006000801b3361478f565b8015612f215760008060016101000a81548160ff0219169083151502179055505b505050565b600081612f3281613515565b612f87576040517f08c379a000000000000000000000000000000000000000000000000000000000815260040180806020018281038252602a815260200180615d00602a913960400191505060405180910390fd5b60fe600084815260200190815260200160002054915050919050565b612fca60c9600084815260200190815260200160002060020154612fc5613532565b611de2565b61301f576040517f08c379a0000000000000000000000000000000000000000000000000000000008152600401808060200182810382526030815260200180615bbb6030913960400191505060405180910390fd5b6130298282613be1565b5050565b600060fb60009054906101000a900473ffffffffffffffffffffffffffffffffffffffff16905090565b600060fc54905090565b6000606960008473ffffffffffffffffffffffffffffffffffffffff1673ffffffffffffffffffffffffffffffffffffffff16815260200190815260200160002060008373ffffffffffffffffffffffffffffffffffffffff1673ffffffffffffffffffffffffffffffffffffffff16815260200190815260200160002060009054906101000a900460ff16905092915050565b816130ff81613515565b613154576040517f08c379a000000000000000000000000000000000000000000000000000000000815260040180806020018281038252602a815260200180615d00602a913960400191505060405180910390fd5b823373ffffffffffffffffffffffffffffffffffffffff1661317582611924565b73ffffffffffffffffffffffffffffffffffffffff16146131e1576040517f08c379a000000000000000000000000000000000000000000000000000000000815260040180806020018281038252602d815260200180615d6d602d913960400191505060405180910390fd5b600073ffffffffffffffffffffffffffffffffffffffff1660ff600086815260200190815260200160002060009054906101000a900473ffffffffffffffffffffffffffffffffffffffff1673ffffffffffffffffffffffffffffffffffffffff161480613262575042610100600086815260200190815260200160002054105b6132b7576040517f08c379a0000000000000000000000000000000000000000000000000000000008152600401808060200182810382526057815260200180615e956057913960600191505060405180910390fd5b8260fe60008681526020019081526020016000208190555050505050565b806132df81613515565b613334576040517f08c379a000000000000000000000000000000000000000000000000000000000815260040180806020018281038252602a815260200180615d00602a913960400191505060405180910390fd5b81600073ffffffffffffffffffffffffffffffffffffffff1660ff600083815260200190815260200160002060009054906101000a900473ffffffffffffffffffffffffffffffffffffffff1673ffffffffffffffffffffffffffffffffffffffff1614156133ee576040517f08c379a0000000000000000000000000000000000000000000000000000000008152600401808060200182810382526031815260200180615eec6031913960400191505060405180910390fd5b3373ffffffffffffffffffffffffffffffffffffffff1660ff600085815260200190815260200160002060009054906101000a900473ffffffffffffffffffffffffffffffffffffffff1673ffffffffffffffffffffffffffffffffffffffff16148061346457506134636000801b33611de2565b5b6134b9576040517f08c379a0000000000000000000000000000000000000000000000000000000008152600401808060200182810382526032815260200180615ca06032913960400191505060405180910390fd5b6134c283613e0f565b3373ffffffffffffffffffffffffffffffffffffffff167f899cab278284ae4a91172caa0943607a0bcb19766254c3ebe1139be00650b102846040518082815260200191505060405180910390a2505050565b600061352b82606661479d90919063ffffffff16565b9050919050565b600033905090565b816068600083815260200190815260200160002060006101000a81548173ffffffffffffffffffffffffffffffffffffffff021916908373ffffffffffffffffffffffffffffffffffffffff160217905550808273ffffffffffffffffffffffffffffffffffffffff166135ad83611924565b73ffffffffffffffffffffffffffffffffffffffff167f8c5be1e5ebec7d5bd14f71427d1e84f3dd0314c0f7b2291e5b200ac8c7c3b92560405160405180910390a45050565b6000613601826000016147b7565b9050919050565b600073ffffffffffffffffffffffffffffffffffffffff168273ffffffffffffffffffffffffffffffffffffffff1614156136ab576040517f08c379a00000000000000000000000000000000000000000000000000000000081526004018080602001828103825260208152602001807f4552433732313a206d696e7420746f20746865207a65726f206164647265737381525060200191505060405180910390fd5b6136b481613515565b15613727576040517f08c379a000000000000000000000000000000000000000000000000000000000815260040180806020018281038252601c8152602001807f4552433732313a20746f6b656e20616c7265616479206d696e7465640000000081525060200191505060405180910390fd5b613733600083836147c8565b61378481606560008573ffffffffffffffffffffffffffffffffffffffff1673ffffffffffffffffffffffffffffffffffffffff1681526020019081526020016000206147cd90919063ffffffff16565b5061379b818360666147e79092919063ffffffff16565b50808273ffffffffffffffffffffffffffffffffffffffff16600073ffffffffffffffffffffffffffffffffffffffff167fddf252ad1be2c89b69c2b068fc378daa952ba7f163c4a11628f55a4df523b3ef60405160405180910390a45050565b600061380782613515565b61385c576040517f08c379a000000000000000000000000000000000000000000000000000000000815260040180806020018281038252602c815260200180615b8f602c913960400191505060405180910390fd5b600061386783611924565b90508073ffffffffffffffffffffffffffffffffffffffff168473ffffffffffffffffffffffffffffffffffffffff1614806138d657508373ffffffffffffffffffffffffffffffffffffffff166138be846112af565b73ffffffffffffffffffffffffffffffffffffffff16145b806138e757506138e68185613061565b5b91505092915050565b8273ffffffffffffffffffffffffffffffffffffffff1661391082611924565b73ffffffffffffffffffffffffffffffffffffffff161461397c576040517f08c379a0000000000000000000000000000000000000000000000000000000008152600401808060200182810382526029815260200180615deb6029913960400191505060405180910390fd5b600073ffffffffffffffffffffffffffffffffffffffff168273ffffffffffffffffffffffffffffffffffffffff161415613a02576040517f08c379a0000000000000000000000000000000000000000000000000000000008152600401808060200182810382526024815260200180615b1e6024913960400191505060405180910390fd5b613a0d8383836147c8565b613a1860008261353a565b613a6981606560008673ffffffffffffffffffffffffffffffffffffffff1673ffffffffffffffffffffffffffffffffffffffff16815260200190815260200160002061481c90919063ffffffff16565b50613abb81606560008573ffffffffffffffffffffffffffffffffffffffff1673ffffffffffffffffffffffffffffffffffffffff1681526020019081526020016000206147cd90919063ffffffff16565b50613ad2818360666147e79092919063ffffffff16565b50808273ffffffffffffffffffffffffffffffffffffffff168473ffffffffffffffffffffffffffffffffffffffff167fddf252ad1be2c89b69c2b068fc378daa952ba7f163c4a11628f55a4df523b3ef60405160405180910390a4505050565b613b5b8160c9600085815260200190815260200160002060000161483690919063ffffffff16565b15613bc357613b68613532565b73ffffffffffffffffffffffffffffffffffffffff168173ffffffffffffffffffffffffffffffffffffffff16837f2f8788117e7eff1d82e926ec794901d17c78024a50270940304540a733656f0d60405160405180910390a45b5050565b6000613bd68360000183614866565b60001c905092915050565b613c098160c960008581526020019081526020016000206000016148e990919063ffffffff16565b15613c7157613c16613532565b73ffffffffffffffffffffffffffffffffffffffff168173ffffffffffffffffffffffffffffffffffffffff16837ff6391f5c32d9c69d2a47ea670b442974b53935d1edc7fd64eb21e047a839171b60405160405180910390a45b5050565b6000613c8082611924565b9050613c8e816000846147c8565b613c9960008361353a565b6000606c600084815260200190815260200160002080546001816001161561010002031660029004905014613ce857606c60008381526020019081526020016000206000613ce7919061598e565b5b613d3982606560008473ffffffffffffffffffffffffffffffffffffffff1673ffffffffffffffffffffffffffffffffffffffff16815260200190815260200160002061481c90919063ffffffff16565b50613d4e82606661491990919063ffffffff16565b5081600073ffffffffffffffffffffffffffffffffffffffff168273ffffffffffffffffffffffffffffffffffffffff167fddf252ad1be2c89b69c2b068fc378daa952ba7f163c4a11628f55a4df523b3ef60405160405180910390a45050565b600080600080613dc28660000186614933565b915091508160001c8160001c9350935050509250929050565b6000613dee846000018460001b846149cc565b60001c90509392505050565b6000613e0882600001614ac2565b9050919050565b80613e1981613515565b613e6e576040517f08c379a000000000000000000000000000000000000000000000000000000000815260040180806020018281038252602a815260200180615d00602a913960400191505060405180910390fd5b81600073ffffffffffffffffffffffffffffffffffffffff1660ff600083815260200190815260200160002060009054906101000a900473ffffffffffffffffffffffffffffffffffffffff1673ffffffffffffffffffffffffffffffffffffffff161415613f28576040517f08c379a0000000000000000000000000000000000000000000000000000000008152600401808060200182810382526031815260200180615eec6031913960400191505060405180910390fd5b600060ff600085815260200190815260200160002060009054906101000a900473ffffffffffffffffffffffffffffffffffffffff16905060ff600085815260200190815260200160002060006101000a81549073ffffffffffffffffffffffffffffffffffffffff02191690556101006000858152602001908152602001600020600090558073ffffffffffffffffffffffffffffffffffffffff166108fc60fe6000878152602001908152602001600020549081150290604051600060405180830381858888f19350505050158015614007573d6000803e3d6000fd5b5050505050565b600061401d8360000183614866565b60001c905092915050565b6000614050836000018373ffffffffffffffffffffffffffffffffffffffff1660001b614ad3565b905092915050565b6000808284019050838110156140d6576040517f08c379a000000000000000000000000000000000000000000000000000000000815260040180806020018281038252601b8152602001807f536166654d6174683a206164646974696f6e206f766572666c6f77000000000081525060200191505060405180910390fd5b8091505092915050565b6140eb8484846138f0565b6140f784848484614af6565b61414c576040517f08c379a0000000000000000000000000000000000000000000000000000000008152600401808060200182810382526032815260200180615aec6032913960400191505060405180910390fd5b50505050565b60008083141561416557600090506141d2565b600082840290508284828161417657fe5b04146141cd576040517f08c379a0000000000000000000000000000000000000000000000000000000008152600401808060200182810382526021815260200180615d4c6021913960400191505060405180910390fd5b809150505b92915050565b600080821161424f576040517f08c379a000000000000000000000000000000000000000000000000000000000815260040180806020018281038252601a8152602001807f536166654d6174683a206469766973696f6e206279207a65726f00000000000081525060200191505060405180910390fd5b81838161425857fe5b04905092915050565b6000828211156142d9576040517f08c379a000000000000000000000000000000000000000000000000000000000815260040180806020018281038252601e8152602001807f536166654d6174683a207375627472616374696f6e206f766572666c6f77000081525060200191505060405180910390fd5b818303905092915050565b6060600082141561432c576040518060400160405280600181526020017f30000000000000000000000000000000000000000000000000000000000000008152509050614426565b600082905060005b60008214614356578080600101915050600a828161434e57fe5b049150614334565b60608167ffffffffffffffff8111801561436f57600080fd5b506040519080825280601f01601f1916602001820160405280156143a25781602001600182028036833780820191505090505b50905060006001830390508593505b6000841461441e57600a84816143c357fe5b0660300160f81b828280600190039350815181106143dd57fe5b60200101907effffffffffffffffffffffffffffffffffffffffffffffffffffffffffffff1916908160001a905350600a848161441657fe5b0493506143b1565b819450505050505b919050565b600061443982600001614ac2565b9050919050565b600061444b30614d0f565b15905090565b600060019054906101000a900460ff1680614470575061446f614440565b5b80614486575060008054906101000a900460ff16155b6144db576040517f08c379a000000000000000000000000000000000000000000000000000000000815260040180806020018281038252602e815260200180615cd2602e913960400191505060405180910390fd5b60008060019054906101000a900460ff16159050801561452b576001600060016101000a81548160ff02191690831515021790555060016000806101000a81548160ff0219169083151502179055505b614533614d22565b61453b614e20565b614543614f2e565b80156145645760008060016101000a81548160ff0219169083151502179055505b50565b600060019054906101000a900460ff16806145865750614585614440565b5b8061459c575060008054906101000a900460ff16155b6145f1576040517f08c379a000000000000000000000000000000000000000000000000000000000815260040180806020018281038252602e815260200180615cd2602e913960400191505060405180910390fd5b60008060019054906101000a900460ff161590508015614641576001600060016101000a81548160ff02191690831515021790555060016000806101000a81548160ff0219169083151502179055505b614649614d22565b614651614e20565b61465b838361502c565b801561467c5760008060016101000a81548160ff0219169083151502179055505b505050565b600060019054906101000a900460ff16806146a0575061469f614440565b5b806146b6575060008054906101000a900460ff16155b61470b576040517f08c379a000000000000000000000000000000000000000000000000000000000815260040180806020018281038252602e815260200180615cd2602e913960400191505060405180910390fd5b60008060019054906101000a900460ff16159050801561475b576001600060016101000a81548160ff02191690831515021790555060016000806101000a81548160ff0219169083151502179055505b614763614d22565b61476b61518a565b801561478c5760008060016101000a81548160ff0219169083151502179055505b50565b6147998282613b33565b5050565b60006147af836000018360001b615288565b905092915050565b600081600001805490509050919050565b505050565b60006147df836000018360001b6152ab565b905092915050565b6000614813846000018460001b8473ffffffffffffffffffffffffffffffffffffffff1660001b61531b565b90509392505050565b600061482e836000018360001b6153f7565b905092915050565b600061485e836000018373ffffffffffffffffffffffffffffffffffffffff1660001b6152ab565b905092915050565b6000818360000180549050116148c7576040517f08c379a0000000000000000000000000000000000000000000000000000000008152600401808060200182810382526022815260200180615a746022913960400191505060405180910390fd5b8260000182815481106148d657fe5b9060005260206000200154905092915050565b6000614911836000018373ffffffffffffffffffffffffffffffffffffffff1660001b6153f7565b905092915050565b600061492b836000018360001b6154df565b905092915050565b60008082846000018054905011614995576040517f08c379a0000000000000000000000000000000000000000000000000000000008152600401808060200182810382526022815260200180615d2a6022913960400191505060405180910390fd5b60008460000184815481106149a657fe5b906000526020600020906002020190508060000154816001015492509250509250929050565b60008084600101600085815260200190815260200160002054905060008114158390614a93576040517f08c379a00000000000000000000000000000000000000000000000000000000081526004018080602001828103825283818151815260200191508051906020019080838360005b83811015614a58578082015181840152602081019050614a3d565b50505050905090810190601f168015614a855780820380516001836020036101000a031916815260200191505b509250505060405180910390fd5b50846000016001820381548110614aa657fe5b9060005260206000209060020201600101549150509392505050565b600081600001805490509050919050565b600080836001016000848152602001908152602001600020541415905092915050565b6000614b178473ffffffffffffffffffffffffffffffffffffffff16614d0f565b614b245760019050614d07565b6060614c8e63150b7a0260e01b614b39613532565b888787604051602401808573ffffffffffffffffffffffffffffffffffffffff1681526020018473ffffffffffffffffffffffffffffffffffffffff16815260200183815260200180602001828103825283818151815260200191508051906020019080838360005b83811015614bbd578082015181840152602081019050614ba2565b50505050905090810190601f168015614bea5780820380516001836020036101000a031916815260200191505b5095505050505050604051602081830303815290604052907bffffffffffffffffffffffffffffffffffffffffffffffffffffffff19166020820180517bffffffffffffffffffffffffffffffffffffffffffffffffffffffff8381831617835250505050604051806060016040528060328152602001615aec603291398773ffffffffffffffffffffffffffffffffffffffff166155f89092919063ffffffff16565b90506000818060200190516020811015614ca757600080fd5b8101908080519060200190929190505050905063150b7a0260e01b7bffffffffffffffffffffffffffffffffffffffffffffffffffffffff1916817bffffffffffffffffffffffffffffffffffffffffffffffffffffffff191614925050505b949350505050565b600080823b905060008111915050919050565b600060019054906101000a900460ff1680614d415750614d40614440565b5b80614d57575060008054906101000a900460ff16155b614dac576040517f08c379a000000000000000000000000000000000000000000000000000000000815260040180806020018281038252602e815260200180615cd2602e913960400191505060405180910390fd5b60008060019054906101000a900460ff161590508015614dfc576001600060016101000a81548160ff02191690831515021790555060016000806101000a81548160ff0219169083151502179055505b8015614e1d5760008060016101000a81548160ff0219169083151502179055505b50565b600060019054906101000a900460ff1680614e3f5750614e3e614440565b5b80614e55575060008054906101000a900460ff16155b614eaa576040517f08c379a000000000000000000000000000000000000000000000000000000000815260040180806020018281038252602e815260200180615cd2602e913960400191505060405180910390fd5b60008060019054906101000a900460ff161590508015614efa576001600060016101000a81548160ff02191690831515021790555060016000806101000a81548160ff0219169083151502179055505b614f0a6301ffc9a760e01b615610565b8015614f2b5760008060016101000a81548160ff0219169083151502179055505b50565b600060019054906101000a900460ff1680614f4d5750614f4c614440565b5b80614f63575060008054906101000a900460ff16155b614fb8576040517f08c379a000000000000000000000000000000000000000000000000000000000815260040180806020018281038252602e815260200180615cd2602e913960400191505060405180910390fd5b60008060019054906101000a900460ff161590508015615008576001600060016101000a81548160ff02191690831515021790555060016000806101000a81548160ff0219169083151502179055505b80156150295760008060016101000a81548160ff0219169083151502179055505b50565b600060019054906101000a900460ff168061504b575061504a614440565b5b80615061575060008054906101000a900460ff16155b6150b6576040517f08c379a000000000000000000000000000000000000000000000000000000000815260040180806020018281038252602e815260200180615cd2602e913960400191505060405180910390fd5b60008060019054906101000a900460ff161590508015615106576001600060016101000a81548160ff02191690831515021790555060016000806101000a81548160ff0219169083151502179055505b82606a908051906020019061511c9291906159d6565b5081606b90805190602001906151339291906159d6565b506151446380ac58cd60e01b615610565b615154635b5e139f60e01b615610565b61516463780e9d6360e01b615610565b80156151855760008060016101000a81548160ff0219169083151502179055505b505050565b600060019054906101000a900460ff16806151a957506151a8614440565b5b806151bf575060008054906101000a900460ff16155b615214576040517f08c379a000000000000000000000000000000000000000000000000000000000815260040180806020018281038252602e815260200180615cd2602e913960400191505060405180910390fd5b60008060019054906101000a900460ff161590508015615264576001600060016101000a81548160ff02191690831515021790555060016000806101000a81548160ff0219169083151502179055505b80156152855760008060016101000a81548160ff0219169083151502179055505b50565b600080836001016000848152602001908152602001600020541415905092915050565b60006152b78383614ad3565b615310578260000182908060018154018082558091505060019003906000526020600020016000909190919091505582600001805490508360010160008481526020019081526020016000208190555060019050615315565b600090505b92915050565b60008084600101600085815260200190815260200160002054905060008114156153c2578460000160405180604001604052808681526020018581525090806001815401808255809150506001900390600052602060002090600202016000909190919091506000820151816000015560208201518160010155505084600001805490508560010160008681526020019081526020016000208190555060019150506153f0565b828560000160018303815481106153d557fe5b90600052602060002090600202016001018190555060009150505b9392505050565b600080836001016000848152602001908152602001600020549050600081146154d3576000600182039050600060018660000180549050039050600086600001828154811061544257fe5b906000526020600020015490508087600001848154811061545f57fe5b906000526020600020018190555060018301876001016000838152602001908152602001600020819055508660000180548061549757fe5b600190038181906000526020600020016000905590558660010160008781526020019081526020016000206000905560019450505050506154d9565b60009150505b92915050565b600080836001016000848152602001908152602001600020549050600081146155ec576000600182039050600060018660000180549050039050600086600001828154811061552a57fe5b906000526020600020906002020190508087600001848154811061554a57fe5b906000526020600020906002020160008201548160000155600182015481600101559050506001830187600101600083600001548152602001908152602001600020819055508660000180548061559d57fe5b60019003818190600052602060002090600202016000808201600090556001820160009055505090558660010160008781526020019081526020016000206000905560019450505050506155f2565b60009150505b92915050565b60606156078484600085615719565b90509392505050565b63ffffffff60e01b817bffffffffffffffffffffffffffffffffffffffffffffffffffffffff191614156156ac576040517f08c379a000000000000000000000000000000000000000000000000000000000815260040180806020018281038252601c8152602001807f4552433136353a20696e76616c696420696e746572666163652069640000000081525060200191505060405180910390fd5b600160336000837bffffffffffffffffffffffffffffffffffffffffffffffffffffffff19167bffffffffffffffffffffffffffffffffffffffffffffffffffffffff1916815260200190815260200160002060006101000a81548160ff02191690831515021790555050565b606082471015615774576040517f08c379a0000000000000000000000000000000000000000000000000000000008152600401808060200182810382526026815260200180615b696026913960400191505060405180910390fd5b61577d85614d0f565b6157ef576040517f08c379a000000000000000000000000000000000000000000000000000000000815260040180806020018281038252601d8152602001807f416464726573733a2063616c6c20746f206e6f6e2d636f6e747261637400000081525060200191505060405180910390fd5b600060608673ffffffffffffffffffffffffffffffffffffffff1685876040518082805190602001908083835b6020831061583f578051825260208201915060208101905060208303925061581c565b6001836020036101000a03801982511681845116808217855250505050505090500191505060006040518083038185875af1925050503d80600081146158a1576040519150601f19603f3d011682016040523d82523d6000602084013e6158a6565b606091505b50915091506158b68282866158c2565b92505050949350505050565b606083156158d257829050615987565b6000835111156158e55782518084602001fd5b816040517f08c379a00000000000000000000000000000000000000000000000000000000081526004018080602001828103825283818151815260200191508051906020019080838360005b8381101561594c578082015181840152602081019050615931565b50505050905090810190601f1680156159795780820380516001836020036101000a031916815260200191505b509250505060405180910390fd5b9392505050565b50805460018160011615610100020316600290046000825580601f106159b457506159d3565b601f0160209004906000526020600020908101906159d29190615a56565b5b50565b828054600181600116156101000203166002900490600052602060002090601f016020900481019282601f10615a1757805160ff1916838001178555615a45565b82800160010185558215615a45579182015b82811115615a44578251825591602001919060010190615a29565b5b509050615a529190615a56565b5090565b5b80821115615a6f576000816000905550600101615a57565b509056fe456e756d657261626c655365743a20696e646578206f7574206f6620626f756e6473416363657373436f6e74726f6c3a2073656e646572206d75737420626520616e2061646d696e20746f206772616e744b61726761696e3a20596f752063616e6e6f742062757920796f7572206f776e20746f6b656e2e4552433732313a207472616e7366657220746f206e6f6e20455243373231526563656976657220696d706c656d656e7465724552433732313a207472616e7366657220746f20746865207a65726f20616464726573734b61726761696e3a20416e206f6666657220697320616c7265616479207375626d69747465642e416464726573733a20696e73756666696369656e742062616c616e636520666f722063616c6c4552433732313a206f70657261746f7220717565727920666f72206e6f6e6578697374656e7420746f6b656e416363657373436f6e74726f6c3a2073656e646572206d75737420626520616e2061646d696e20746f207265766f6b654b61726761696e3a20507269636573206d7573742062652067726561746572207468616e207a65726f2e4552433732313a20617070726f76652063616c6c6572206973206e6f74206f776e6572206e6f7220617070726f76656420666f7220616c6c4552433732313a2062616c616e636520717565727920666f7220746865207a65726f20616464726573734552433732313a206f776e657220717565727920666f72206e6f6e6578697374656e7420746f6b656e4b61726761696e3a20596f7520646f206e6f74206861766520616e79206f6666657220666f72207468697320746f6b656e2e496e697469616c697a61626c653a20636f6e747261637420697320616c726561647920696e697469616c697a65644b61726761696e3a20496420666f72207468697320746f6b656e20646f6573206e6f742065786973742e456e756d657261626c654d61703a20696e646578206f7574206f6620626f756e6473536166654d6174683a206d756c7469706c69636174696f6e206f766572666c6f774b61726761696e3a20596f7520617265206e6f7420746865206f776e6572206f66207468697320746f6b656e2e4552433732313a20617070726f76656420717565727920666f72206e6f6e6578697374656e7420746f6b656e4b61726761696e3a20546865206f6666657220616d6f756e7420697320696e76616c69642e4552433732313a207472616e73666572206f6620746f6b656e2074686174206973206e6f74206f776e4552433732314d657461646174613a2055524920717565727920666f72206e6f6e6578697374656e7420746f6b656e4552433732313a20617070726f76616c20746f2063757272656e74206f776e65724552433732313a207472616e736665722063616c6c6572206973206e6f74206f776e6572206e6f7220617070726f7665644b61726761696e3a20416e206f6666657220697320616c7265616479207375626d69747465642c20746f6b656e2070726963652063616e6e6f74206265206368616e67656420756e74696c20697420657870697265732e4b61726761696e3a20446f6573206e6f7420657869737420616e79206f6666657220666f72207468697320746f6b656e2e4552433732314275726e61626c653a2063616c6c6572206973206e6f74206f776e6572206e6f7220617070726f7665644b61726761696e3a20496420666f72207468697320746f6b656e20616c7265616479206578697374732e416363657373436f6e74726f6c3a2063616e206f6e6c792072656e6f756e636520726f6c657320666f722073656c66a264697066735822122068a1316d0d1848050d829c0873d983c30169ebe5a35485c549c389803abbf19e64736f6c634300060c0033",
  "immutableReferences": {},
  "source": "// SPDX-License-Identifier: MIT\npragma solidity >=0.6.0 <0.8.0;\n\nimport \"@openzeppelin/contracts-upgradeable/token/ERC721/ERC721BurnableUpgradeable.sol\";\nimport \"@openzeppelin/contracts-upgradeable/access/AccessControlUpgradeable.sol\";\nimport \"@openzeppelin/contracts-upgradeable/cryptography/ECDSAUpgradeable.sol\";\nimport \"@openzeppelin/contracts-upgradeable/math/SafeMathUpgradeable.sol\";\n\ncontract KargainV01 is ERC721BurnableUpgradeable, AccessControlUpgradeable {\n    using SafeMathUpgradeable for uint256;\n    using ECDSAUpgradeable for bytes32;\n\n    uint256 private constant COMMISSION_EXPONENT = 4;\n    address payable private _platformAddress;\n    uint256 private _platformCommissionPercent;\n    uint256 private _offerExpirationTime;\n\n    mapping(uint256 => uint256) private _tokens_price;\n    mapping(uint256 => address payable) private _offers;\n    mapping(uint256 => uint256) private _offers_closeTimestamp;\n\n    event TokenMinted(address indexed creator, uint256 indexed tokenId);\n    event OfferReceived(address indexed payer, uint256 tokenId, uint256 amount);\n    event OfferAccepted(address indexed payer, uint256 tokenId);\n    event OfferRejected(address indexed payer, uint256 tokenId);\n    event OfferExpired(address indexed payer, uint256 tokenId);\n    event OfferCancelled(address indexed payer, uint256 tokenId);\n\n    modifier onlyAdmin() {\n        require(\n            hasRole(DEFAULT_ADMIN_ROLE, _msgSender()),\n            \"Kargain: Caller is not a admin\"\n        );\n        _;\n    }\n\n    modifier tokenExists(uint256 _tokenId) {\n        require(\n            _exists(_tokenId),\n            \"Kargain: Id for this token does not exist.\"\n        );\n        _;\n    }\n\n    modifier onlyOwner(uint256 _tokenId) {\n        require(\n            ownerOf(_tokenId) == msg.sender,\n            \"Kargain: You are not the owner of this token.\"\n        );\n        _;\n    }\n\n    modifier offerExist(uint256 _tokenId) {\n        require(\n            _offers[_tokenId] != address(0),\n            \"Kargain: Does not exist any offer for this token.\"\n        );\n        _;\n    }\n\n    function initialize(\n        address payable _platformAddress_,\n        uint256 _platformCommissionPercent_\n    ) public initializer {\n        _platformAddress = _platformAddress_;\n        _platformCommissionPercent = _platformCommissionPercent_;\n        _offerExpirationTime = 1 days;\n        __ERC721Burnable_init();\n        __ERC721_init(\"Kargain\", \"KGN\");\n        __AccessControl_init();\n        _setupRole(DEFAULT_ADMIN_ROLE, msg.sender);\n    }\n\n    function platformCommissionPercent() external view returns (uint256) {\n        return _platformCommissionPercent;\n    }\n\n    function setPlatformCommissionPercent(uint256 platformCommissionPercent_)\n        external\n        onlyAdmin\n    {\n        _platformCommissionPercent = platformCommissionPercent_;\n    }\n\n    function platformAddress() external view returns (address payable) {\n        return _platformAddress;\n    }\n\n    function setPlatformAddress(address payable platformAddress_)\n        external\n        onlyAdmin\n    {\n        _platformAddress = platformAddress_;\n    }\n\n    function offerExpirationTime() external view returns (uint256) {\n        return _offerExpirationTime;\n    }\n\n    function setOfferExpirationTime(uint256 offerExpirationTime_)\n        external\n        onlyAdmin\n    {\n        _offerExpirationTime = offerExpirationTime_;\n    }\n\n    function tokenPrice(uint256 _tokenId)\n        external\n        view\n        tokenExists(_tokenId)\n        returns (uint256)\n    {\n        return _tokens_price[_tokenId];\n    }\n\n    function setTokenPrice(uint256 _tokenId, uint256 _price)\n        external\n        tokenExists(_tokenId)\n        onlyOwner(_tokenId)\n    {\n        require(\n            _offers[_tokenId] == address(0) ||\n                _offers_closeTimestamp[_tokenId] < now,\n            \"Kargain: An offer is already submitted, token price cannot be changed until it expires.\"\n        );\n        _tokens_price[_tokenId] = _price;\n    }\n\n    function offerAddress(uint256 _tokenId)\n        external\n        view\n        tokenExists(_tokenId)\n        returns (address payable)\n    {\n        return _offers[_tokenId];\n    }\n\n    function _refundOffer(uint256 _tokenId)\n        private\n        tokenExists(_tokenId)\n        offerExist(_tokenId)\n    {\n        address payable buyer = _offers[_tokenId];\n\n        delete _offers[_tokenId];\n        delete _offers_closeTimestamp[_tokenId];\n\n        buyer.transfer(_tokens_price[_tokenId]);\n    }\n\n    function mint(uint256 _tokenId, uint256 _price) external {\n        require(\n            !_exists(_tokenId),\n            \"Kargain: Id for this token already exists.\"\n        );\n        require(_price > 0, \"Kargain: Prices must be greater than zero.\");\n        super._mint(msg.sender, _tokenId);\n        _tokens_price[_tokenId] = _price;\n        emit TokenMinted(msg.sender, _tokenId);\n    }\n\n    function createOffer(uint256 _tokenId)\n        external\n        payable\n        tokenExists(_tokenId)\n    {\n        require(\n            ownerOf(_tokenId) != msg.sender,\n            \"Kargain: You cannot buy your own token.\"\n        );\n        require(\n            _offers[_tokenId] == address(0) &&\n                _offers_closeTimestamp[_tokenId] < now,\n            \"Kargain: An offer is already submitted.\"\n        );\n        require(\n            msg.value == _tokens_price[_tokenId],\n            \"Kargain: The offer amount is invalid.\"\n        );\n\n        _offers[_tokenId] = payable(msg.sender);\n        _offers_closeTimestamp[_tokenId] = now.add(_offerExpirationTime);\n        emit OfferReceived(msg.sender, _tokenId, msg.value);\n    }\n\n    function acceptOffer(uint256 _tokenId)\n        external\n        tokenExists(_tokenId)\n        offerExist(_tokenId)\n        onlyOwner(_tokenId)\n    {\n        if (_offers_closeTimestamp[_tokenId] < now) {\n            delete _offers[_tokenId];\n            delete _offers_closeTimestamp[_tokenId];\n            emit OfferExpired(msg.sender, _tokenId);\n            return;\n        }\n        address payable buyer = _offers[_tokenId];\n\n        delete _offers[_tokenId];\n        delete _offers_closeTimestamp[_tokenId];\n\n        uint256 platformCommission =\n            _tokens_price[_tokenId].mul(_platformCommissionPercent).div(\n                10**COMMISSION_EXPONENT\n            );\n        _platformAddress.transfer(platformCommission);\n\n        msg.sender.transfer(_tokens_price[_tokenId].sub(platformCommission));\n        safeTransferFrom(msg.sender, buyer, _tokenId);\n\n        emit OfferAccepted(msg.sender, _tokenId);\n    }\n\n    function rejectOffer(uint256 _tokenId)\n        external\n        tokenExists(_tokenId)\n        onlyOwner(_tokenId)\n        offerExist(_tokenId)\n    {\n        _refundOffer(_tokenId);\n\n        emit OfferRejected(msg.sender, _tokenId);\n    }\n\n    function cancelOffer(uint256 _tokenId)\n        external\n        tokenExists(_tokenId)\n        offerExist(_tokenId)\n    {\n        require(\n            _offers[_tokenId] == msg.sender ||\n                hasRole(DEFAULT_ADMIN_ROLE, msg.sender),\n            \"Kargain: You do not have any offer for this token.\"\n        );\n        _refundOffer(_tokenId);\n\n        emit OfferCancelled(msg.sender, _tokenId);\n    }\n\n    function offerExpiration(uint256 _tokenId) external view offerExist(_tokenId) returns (bool)\n    {\n        return (_offers_closeTimestamp[_tokenId] < now);\n    }\n}\n",
  "sourcePath": "/home/damian/Documents/work/kargain-nft/contracts/Kargainv01.sol",
  "compiler": {
    "name": "solc",
    "version": "0.6.12+commit.27d51765.Emscripten.clang"
  },
  "schemaVersion": "3.4.1",
  "updatedAt": "2021-07-30T09:14:21.119Z",
  "devdoc": {
    "kind": "dev",
    "methods": {
      "approve(address,uint256)": {
        "details": "See {IERC721-approve}."
      },
      "balanceOf(address)": {
        "details": "See {IERC721-balanceOf}."
      },
      "baseURI()": {
        "details": "Returns the base URI set via {_setBaseURI}. This will be automatically added as a prefix in {tokenURI} to each token's URI, or to the token ID if no specific URI is set for that token ID."
      },
      "burn(uint256)": {
        "details": "Burns `tokenId`. See {ERC721-_burn}. Requirements: - The caller must own `tokenId` or be an approved operator."
      },
      "getApproved(uint256)": {
        "details": "See {IERC721-getApproved}."
      },
      "getRoleAdmin(bytes32)": {
        "details": "Returns the admin role that controls `role`. See {grantRole} and {revokeRole}. To change a role's admin, use {_setRoleAdmin}."
      },
      "getRoleMember(bytes32,uint256)": {
        "details": "Returns one of the accounts that have `role`. `index` must be a value between 0 and {getRoleMemberCount}, non-inclusive. Role bearers are not sorted in any particular way, and their ordering may change at any point. WARNING: When using {getRoleMember} and {getRoleMemberCount}, make sure you perform all queries on the same block. See the following https://forum.openzeppelin.com/t/iterating-over-elements-on-enumerableset-in-openzeppelin-contracts/2296[forum post] for more information."
      },
      "getRoleMemberCount(bytes32)": {
        "details": "Returns the number of accounts that have `role`. Can be used together with {getRoleMember} to enumerate all bearers of a role."
      },
      "grantRole(bytes32,address)": {
        "details": "Grants `role` to `account`. If `account` had not been already granted `role`, emits a {RoleGranted} event. Requirements: - the caller must have ``role``'s admin role."
      },
      "hasRole(bytes32,address)": {
        "details": "Returns `true` if `account` has been granted `role`."
      },
      "isApprovedForAll(address,address)": {
        "details": "See {IERC721-isApprovedForAll}."
      },
      "name()": {
        "details": "See {IERC721Metadata-name}."
      },
      "ownerOf(uint256)": {
        "details": "See {IERC721-ownerOf}."
      },
      "renounceRole(bytes32,address)": {
        "details": "Revokes `role` from the calling account. Roles are often managed via {grantRole} and {revokeRole}: this function's purpose is to provide a mechanism for accounts to lose their privileges if they are compromised (such as when a trusted device is misplaced). If the calling account had been granted `role`, emits a {RoleRevoked} event. Requirements: - the caller must be `account`."
      },
      "revokeRole(bytes32,address)": {
        "details": "Revokes `role` from `account`. If `account` had been granted `role`, emits a {RoleRevoked} event. Requirements: - the caller must have ``role``'s admin role."
      },
      "safeTransferFrom(address,address,uint256)": {
        "details": "See {IERC721-safeTransferFrom}."
      },
      "safeTransferFrom(address,address,uint256,bytes)": {
        "details": "See {IERC721-safeTransferFrom}."
      },
      "setApprovalForAll(address,bool)": {
        "details": "See {IERC721-setApprovalForAll}."
      },
      "supportsInterface(bytes4)": {
        "details": "See {IERC165-supportsInterface}. Time complexity O(1), guaranteed to always use less than 30 000 gas."
      },
      "symbol()": {
        "details": "See {IERC721Metadata-symbol}."
      },
      "tokenByIndex(uint256)": {
        "details": "See {IERC721Enumerable-tokenByIndex}."
      },
      "tokenOfOwnerByIndex(address,uint256)": {
        "details": "See {IERC721Enumerable-tokenOfOwnerByIndex}."
      },
      "tokenURI(uint256)": {
        "details": "See {IERC721Metadata-tokenURI}."
      },
      "totalSupply()": {
        "details": "See {IERC721Enumerable-totalSupply}."
      },
      "transferFrom(address,address,uint256)": {
        "details": "See {IERC721-transferFrom}."
      }
    },
    "version": 1
  },
  "userdoc": {
    "kind": "user",
    "methods": {},
    "version": 1
  }
}