{
  "contractName": "Kargain",
  "abi": [
    {
      "anonymous": false,
      "inputs": [
        {
          "indexed": true,
          "internalType": "address",
          "name": "owner",
          "type": "address"
        },
        {
          "indexed": true,
          "internalType": "address",
          "name": "approved",
          "type": "address"
        },
        {
          "indexed": true,
          "internalType": "uint256",
          "name": "tokenId",
          "type": "uint256"
        }
      ],
      "name": "Approval",
      "type": "event"
    },
    {
      "anonymous": false,
      "inputs": [
        {
          "indexed": true,
          "internalType": "address",
          "name": "owner",
          "type": "address"
        },
        {
          "indexed": true,
          "internalType": "address",
          "name": "operator",
          "type": "address"
        },
        {
          "indexed": false,
          "internalType": "bool",
          "name": "approved",
          "type": "bool"
        }
      ],
      "name": "ApprovalForAll",
      "type": "event"
    },
    {
      "anonymous": false,
      "inputs": [
        {
          "indexed": true,
          "internalType": "address",
          "name": "payer",
          "type": "address"
        },
        {
          "indexed": false,
          "internalType": "uint256",
          "name": "tokenId",
          "type": "uint256"
        }
      ],
      "name": "OfferAccepted",
      "type": "event"
    },
    {
      "anonymous": false,
      "inputs": [
        {
          "indexed": true,
          "internalType": "address",
          "name": "payer",
          "type": "address"
        },
        {
          "indexed": false,
          "internalType": "uint256",
          "name": "tokenId",
          "type": "uint256"
        }
      ],
      "name": "OfferCancelled",
      "type": "event"
    },
    {
      "anonymous": false,
      "inputs": [
        {
          "indexed": true,
          "internalType": "address",
          "name": "payer",
          "type": "address"
        },
        {
          "indexed": false,
          "internalType": "uint256",
          "name": "tokenId",
          "type": "uint256"
        }
      ],
      "name": "OfferExpired",
      "type": "event"
    },
    {
      "anonymous": false,
      "inputs": [
        {
          "indexed": true,
          "internalType": "address",
          "name": "payer",
          "type": "address"
        },
        {
          "indexed": false,
          "internalType": "uint256",
          "name": "tokenId",
          "type": "uint256"
        },
        {
          "indexed": false,
          "internalType": "uint256",
          "name": "amount",
          "type": "uint256"
        }
      ],
      "name": "OfferReceived",
      "type": "event"
    },
    {
      "anonymous": false,
      "inputs": [
        {
          "indexed": true,
          "internalType": "address",
          "name": "payer",
          "type": "address"
        },
        {
          "indexed": false,
          "internalType": "uint256",
          "name": "tokenId",
          "type": "uint256"
        }
      ],
      "name": "OfferRejected",
      "type": "event"
    },
    {
      "anonymous": false,
      "inputs": [
        {
          "indexed": true,
          "internalType": "bytes32",
          "name": "role",
          "type": "bytes32"
        },
        {
          "indexed": true,
          "internalType": "bytes32",
          "name": "previousAdminRole",
          "type": "bytes32"
        },
        {
          "indexed": true,
          "internalType": "bytes32",
          "name": "newAdminRole",
          "type": "bytes32"
        }
      ],
      "name": "RoleAdminChanged",
      "type": "event"
    },
    {
      "anonymous": false,
      "inputs": [
        {
          "indexed": true,
          "internalType": "bytes32",
          "name": "role",
          "type": "bytes32"
        },
        {
          "indexed": true,
          "internalType": "address",
          "name": "account",
          "type": "address"
        },
        {
          "indexed": true,
          "internalType": "address",
          "name": "sender",
          "type": "address"
        }
      ],
      "name": "RoleGranted",
      "type": "event"
    },
    {
      "anonymous": false,
      "inputs": [
        {
          "indexed": true,
          "internalType": "bytes32",
          "name": "role",
          "type": "bytes32"
        },
        {
          "indexed": true,
          "internalType": "address",
          "name": "account",
          "type": "address"
        },
        {
          "indexed": true,
          "internalType": "address",
          "name": "sender",
          "type": "address"
        }
      ],
      "name": "RoleRevoked",
      "type": "event"
    },
    {
      "anonymous": false,
      "inputs": [
        {
          "indexed": true,
          "internalType": "address",
          "name": "creator",
          "type": "address"
        },
        {
          "indexed": true,
          "internalType": "uint256",
          "name": "tokenId",
          "type": "uint256"
        }
      ],
      "name": "TokenMinted",
      "type": "event"
    },
    {
      "anonymous": false,
      "inputs": [
        {
          "indexed": true,
          "internalType": "address",
          "name": "from",
          "type": "address"
        },
        {
          "indexed": true,
          "internalType": "address",
          "name": "to",
          "type": "address"
        },
        {
          "indexed": true,
          "internalType": "uint256",
          "name": "tokenId",
          "type": "uint256"
        }
      ],
      "name": "Transfer",
      "type": "event"
    },
    {
      "inputs": [],
      "name": "DEFAULT_ADMIN_ROLE",
      "outputs": [
        {
          "internalType": "bytes32",
          "name": "",
          "type": "bytes32"
        }
      ],
      "stateMutability": "view",
      "type": "function",
      "constant": true
    },
    {
      "inputs": [
        {
          "internalType": "address",
          "name": "to",
          "type": "address"
        },
        {
          "internalType": "uint256",
          "name": "tokenId",
          "type": "uint256"
        }
      ],
      "name": "approve",
      "outputs": [],
      "stateMutability": "nonpayable",
      "type": "function"
    },
    {
      "inputs": [
        {
          "internalType": "address",
          "name": "owner",
          "type": "address"
        }
      ],
      "name": "balanceOf",
      "outputs": [
        {
          "internalType": "uint256",
          "name": "",
          "type": "uint256"
        }
      ],
      "stateMutability": "view",
      "type": "function",
      "constant": true
    },
    {
      "inputs": [],
      "name": "baseURI",
      "outputs": [
        {
          "internalType": "string",
          "name": "",
          "type": "string"
        }
      ],
      "stateMutability": "view",
      "type": "function",
      "constant": true
    },
    {
      "inputs": [
        {
          "internalType": "uint256",
          "name": "tokenId",
          "type": "uint256"
        }
      ],
      "name": "burn",
      "outputs": [],
      "stateMutability": "nonpayable",
      "type": "function"
    },
    {
      "inputs": [
        {
          "internalType": "uint256",
          "name": "tokenId",
          "type": "uint256"
        }
      ],
      "name": "getApproved",
      "outputs": [
        {
          "internalType": "address",
          "name": "",
          "type": "address"
        }
      ],
      "stateMutability": "view",
      "type": "function",
      "constant": true
    },
    {
      "inputs": [
        {
          "internalType": "bytes32",
          "name": "role",
          "type": "bytes32"
        }
      ],
      "name": "getRoleAdmin",
      "outputs": [
        {
          "internalType": "bytes32",
          "name": "",
          "type": "bytes32"
        }
      ],
      "stateMutability": "view",
      "type": "function",
      "constant": true
    },
    {
      "inputs": [
        {
          "internalType": "bytes32",
          "name": "role",
          "type": "bytes32"
        },
        {
          "internalType": "uint256",
          "name": "index",
          "type": "uint256"
        }
      ],
      "name": "getRoleMember",
      "outputs": [
        {
          "internalType": "address",
          "name": "",
          "type": "address"
        }
      ],
      "stateMutability": "view",
      "type": "function",
      "constant": true
    },
    {
      "inputs": [
        {
          "internalType": "bytes32",
          "name": "role",
          "type": "bytes32"
        }
      ],
      "name": "getRoleMemberCount",
      "outputs": [
        {
          "internalType": "uint256",
          "name": "",
          "type": "uint256"
        }
      ],
      "stateMutability": "view",
      "type": "function",
      "constant": true
    },
    {
      "inputs": [
        {
          "internalType": "bytes32",
          "name": "role",
          "type": "bytes32"
        },
        {
          "internalType": "address",
          "name": "account",
          "type": "address"
        }
      ],
      "name": "grantRole",
      "outputs": [],
      "stateMutability": "nonpayable",
      "type": "function"
    },
    {
      "inputs": [
        {
          "internalType": "bytes32",
          "name": "role",
          "type": "bytes32"
        },
        {
          "internalType": "address",
          "name": "account",
          "type": "address"
        }
      ],
      "name": "hasRole",
      "outputs": [
        {
          "internalType": "bool",
          "name": "",
          "type": "bool"
        }
      ],
      "stateMutability": "view",
      "type": "function",
      "constant": true
    },
    {
      "inputs": [
        {
          "internalType": "address",
          "name": "owner",
          "type": "address"
        },
        {
          "internalType": "address",
          "name": "operator",
          "type": "address"
        }
      ],
      "name": "isApprovedForAll",
      "outputs": [
        {
          "internalType": "bool",
          "name": "",
          "type": "bool"
        }
      ],
      "stateMutability": "view",
      "type": "function",
      "constant": true
    },
    {
      "inputs": [],
      "name": "name",
      "outputs": [
        {
          "internalType": "string",
          "name": "",
          "type": "string"
        }
      ],
      "stateMutability": "view",
      "type": "function",
      "constant": true
    },
    {
      "inputs": [
        {
          "internalType": "uint256",
          "name": "tokenId",
          "type": "uint256"
        }
      ],
      "name": "ownerOf",
      "outputs": [
        {
          "internalType": "address",
          "name": "",
          "type": "address"
        }
      ],
      "stateMutability": "view",
      "type": "function",
      "constant": true
    },
    {
      "inputs": [
        {
          "internalType": "bytes32",
          "name": "role",
          "type": "bytes32"
        },
        {
          "internalType": "address",
          "name": "account",
          "type": "address"
        }
      ],
      "name": "renounceRole",
      "outputs": [],
      "stateMutability": "nonpayable",
      "type": "function"
    },
    {
      "inputs": [
        {
          "internalType": "bytes32",
          "name": "role",
          "type": "bytes32"
        },
        {
          "internalType": "address",
          "name": "account",
          "type": "address"
        }
      ],
      "name": "revokeRole",
      "outputs": [],
      "stateMutability": "nonpayable",
      "type": "function"
    },
    {
      "inputs": [
        {
          "internalType": "address",
          "name": "from",
          "type": "address"
        },
        {
          "internalType": "address",
          "name": "to",
          "type": "address"
        },
        {
          "internalType": "uint256",
          "name": "tokenId",
          "type": "uint256"
        }
      ],
      "name": "safeTransferFrom",
      "outputs": [],
      "stateMutability": "nonpayable",
      "type": "function"
    },
    {
      "inputs": [
        {
          "internalType": "address",
          "name": "from",
          "type": "address"
        },
        {
          "internalType": "address",
          "name": "to",
          "type": "address"
        },
        {
          "internalType": "uint256",
          "name": "tokenId",
          "type": "uint256"
        },
        {
          "internalType": "bytes",
          "name": "_data",
          "type": "bytes"
        }
      ],
      "name": "safeTransferFrom",
      "outputs": [],
      "stateMutability": "nonpayable",
      "type": "function"
    },
    {
      "inputs": [
        {
          "internalType": "address",
          "name": "operator",
          "type": "address"
        },
        {
          "internalType": "bool",
          "name": "approved",
          "type": "bool"
        }
      ],
      "name": "setApprovalForAll",
      "outputs": [],
      "stateMutability": "nonpayable",
      "type": "function"
    },
    {
      "inputs": [
        {
          "internalType": "bytes4",
          "name": "interfaceId",
          "type": "bytes4"
        }
      ],
      "name": "supportsInterface",
      "outputs": [
        {
          "internalType": "bool",
          "name": "",
          "type": "bool"
        }
      ],
      "stateMutability": "view",
      "type": "function",
      "constant": true
    },
    {
      "inputs": [],
      "name": "symbol",
      "outputs": [
        {
          "internalType": "string",
          "name": "",
          "type": "string"
        }
      ],
      "stateMutability": "view",
      "type": "function",
      "constant": true
    },
    {
      "inputs": [
        {
          "internalType": "uint256",
          "name": "index",
          "type": "uint256"
        }
      ],
      "name": "tokenByIndex",
      "outputs": [
        {
          "internalType": "uint256",
          "name": "",
          "type": "uint256"
        }
      ],
      "stateMutability": "view",
      "type": "function",
      "constant": true
    },
    {
      "inputs": [
        {
          "internalType": "address",
          "name": "owner",
          "type": "address"
        },
        {
          "internalType": "uint256",
          "name": "index",
          "type": "uint256"
        }
      ],
      "name": "tokenOfOwnerByIndex",
      "outputs": [
        {
          "internalType": "uint256",
          "name": "",
          "type": "uint256"
        }
      ],
      "stateMutability": "view",
      "type": "function",
      "constant": true
    },
    {
      "inputs": [
        {
          "internalType": "uint256",
          "name": "tokenId",
          "type": "uint256"
        }
      ],
      "name": "tokenURI",
      "outputs": [
        {
          "internalType": "string",
          "name": "",
          "type": "string"
        }
      ],
      "stateMutability": "view",
      "type": "function",
      "constant": true
    },
    {
      "inputs": [],
      "name": "totalSupply",
      "outputs": [
        {
          "internalType": "uint256",
          "name": "",
          "type": "uint256"
        }
      ],
      "stateMutability": "view",
      "type": "function",
      "constant": true
    },
    {
      "inputs": [
        {
          "internalType": "address",
          "name": "from",
          "type": "address"
        },
        {
          "internalType": "address",
          "name": "to",
          "type": "address"
        },
        {
          "internalType": "uint256",
          "name": "tokenId",
          "type": "uint256"
        }
      ],
      "name": "transferFrom",
      "outputs": [],
      "stateMutability": "nonpayable",
      "type": "function"
    },
    {
      "inputs": [
        {
          "internalType": "address payable",
          "name": "_platformAddress_",
          "type": "address"
        },
        {
          "internalType": "uint256",
          "name": "_platformCommissionPercent_",
          "type": "uint256"
        }
      ],
      "name": "initialize",
      "outputs": [],
      "stateMutability": "nonpayable",
      "type": "function"
    },
    {
      "inputs": [],
      "name": "platformCommissionPercent",
      "outputs": [
        {
          "internalType": "uint256",
          "name": "",
          "type": "uint256"
        }
      ],
      "stateMutability": "view",
      "type": "function",
      "constant": true
    },
    {
      "inputs": [
        {
          "internalType": "uint256",
          "name": "platformCommissionPercent_",
          "type": "uint256"
        }
      ],
      "name": "setPlatformCommissionPercent",
      "outputs": [],
      "stateMutability": "nonpayable",
      "type": "function"
    },
    {
      "inputs": [],
      "name": "platformAddress",
      "outputs": [
        {
          "internalType": "address payable",
          "name": "",
          "type": "address"
        }
      ],
      "stateMutability": "view",
      "type": "function",
      "constant": true
    },
    {
      "inputs": [
        {
          "internalType": "address payable",
          "name": "platformAddress_",
          "type": "address"
        }
      ],
      "name": "setPlatformAddress",
      "outputs": [],
      "stateMutability": "nonpayable",
      "type": "function"
    },
    {
      "inputs": [],
      "name": "offerExpirationTime",
      "outputs": [
        {
          "internalType": "uint256",
          "name": "",
          "type": "uint256"
        }
      ],
      "stateMutability": "view",
      "type": "function",
      "constant": true
    },
    {
      "inputs": [
        {
          "internalType": "uint256",
          "name": "offerExpirationTime_",
          "type": "uint256"
        }
      ],
      "name": "setOfferExpirationTime",
      "outputs": [],
      "stateMutability": "nonpayable",
      "type": "function"
    },
    {
      "inputs": [
        {
          "internalType": "uint256",
          "name": "_tokenId",
          "type": "uint256"
        }
      ],
      "name": "tokenPrice",
      "outputs": [
        {
          "internalType": "uint256",
          "name": "",
          "type": "uint256"
        }
      ],
      "stateMutability": "view",
      "type": "function",
      "constant": true
    },
    {
      "inputs": [
        {
          "internalType": "uint256",
          "name": "_tokenId",
          "type": "uint256"
        },
        {
          "internalType": "uint256",
          "name": "_price",
          "type": "uint256"
        }
      ],
      "name": "setTokenPrice",
      "outputs": [],
      "stateMutability": "nonpayable",
      "type": "function"
    },
    {
      "inputs": [
        {
          "internalType": "uint256",
          "name": "_tokenId",
          "type": "uint256"
        }
      ],
      "name": "offerAddress",
      "outputs": [
        {
          "internalType": "address payable",
          "name": "",
          "type": "address"
        }
      ],
      "stateMutability": "view",
      "type": "function",
      "constant": true
    },
    {
      "inputs": [
        {
          "internalType": "uint256",
          "name": "_tokenId",
          "type": "uint256"
        },
        {
          "internalType": "uint256",
          "name": "_price",
          "type": "uint256"
        }
      ],
      "name": "mint",
      "outputs": [],
      "stateMutability": "nonpayable",
      "type": "function"
    },
    {
      "inputs": [
        {
          "internalType": "uint256",
          "name": "_tokenId",
          "type": "uint256"
        }
      ],
      "name": "createOffer",
      "outputs": [],
      "stateMutability": "payable",
      "type": "function",
      "payable": true
    },
    {
      "inputs": [
        {
          "internalType": "uint256",
          "name": "_tokenId",
          "type": "uint256"
        }
      ],
      "name": "acceptOffer",
      "outputs": [],
      "stateMutability": "nonpayable",
      "type": "function"
    },
    {
      "inputs": [
        {
          "internalType": "uint256",
          "name": "_tokenId",
          "type": "uint256"
        }
      ],
      "name": "rejectOffer",
      "outputs": [],
      "stateMutability": "nonpayable",
      "type": "function"
    },
    {
      "inputs": [
        {
          "internalType": "uint256",
          "name": "_tokenId",
          "type": "uint256"
        }
      ],
      "name": "cancelOffer",
      "outputs": [],
      "stateMutability": "nonpayable",
      "type": "function"
    }
  ],
  "bytecode": "0x60806040526201518060fd5534801561001757600080fd5b50615e9a80620000286000396000f3fe6080604052600436106102465760003560e01c80639010d07c11610139578063c87b56dd116100b6578063d547741f1161007a578063d547741f14610f7b578063dbe55e5614610fd6578063df1506e814611017578063e985e9c514611042578063eb685c47146110c9578063ef706adf1461110e57610246565b8063c87b56dd14610d7d578063ca15c87314610e31578063cc03c34214610e80578063cd6dc68714610ed1578063d4ddce8a14610f2c57610246565b8063a269993d116100fd578063a269993d14610b62578063b88d4fde14610b90578063bf82835b14610ca2578063c6ba6a1d14610cdd578063c815729d14610d4257610246565b80639010d07c1461096a57806391d14854146109d957806395d89b4114610a4a578063a217fddf14610ada578063a22cb46514610b0557610246565b80632f2ff15d116101c75780634f6ccce71161018b5780634f6ccce7146107865780636352211e146107d55780636c0360eb1461083a57806370a08231146108ca57806388b10c751461092f57610246565b80632f2ff15d146105ab5780632f745c591461060657806336568abe1461067557806342842e0e146106d057806342966c681461074b57610246565b80631a4ba0591161020e5780631a4ba059146104365780631b2ef1ca1461047157806323b872dd146104b6578063248a9ca314610531578063271e044e1461058057610246565b806301ffc9a71461024b57806306fdde03146102bb578063081812fc1461034b578063095ea7b3146103b057806318160ddd1461040b575b600080fd5b34801561025757600080fd5b506102a36004803603602081101561026e57600080fd5b8101908080357bffffffffffffffffffffffffffffffffffffffffffffffffffffffff19169060200190929190505050611149565b60405180821515815260200191505060405180910390f35b3480156102c757600080fd5b506102d06111b1565b6040518080602001828103825283818151815260200191508051906020019080838360005b838110156103105780820151818401526020810190506102f5565b50505050905090810190601f16801561033d5780820380516001836020036101000a031916815260200191505b509250505060405180910390f35b34801561035757600080fd5b506103846004803603602081101561036e57600080fd5b8101908080359060200190929190505050611253565b604051808273ffffffffffffffffffffffffffffffffffffffff16815260200191505060405180910390f35b3480156103bc57600080fd5b50610409600480360360408110156103d357600080fd5b81019080803573ffffffffffffffffffffffffffffffffffffffff169060200190929190803590602001909291905050506112ee565b005b34801561041757600080fd5b50610420611432565b6040518082815260200191505060405180910390f35b34801561044257600080fd5b5061046f6004803603602081101561045957600080fd5b8101908080359060200190929190505050611443565b005b34801561047d57600080fd5b506104b46004803603604081101561049457600080fd5b8101908080359060200190929190803590602001909291905050506114d3565b005b3480156104c257600080fd5b5061052f600480360360608110156104d957600080fd5b81019080803573ffffffffffffffffffffffffffffffffffffffff169060200190929190803573ffffffffffffffffffffffffffffffffffffffff169060200190929190803590602001909291905050506115f5565b005b34801561053d57600080fd5b5061056a6004803603602081101561055457600080fd5b810190808035906020019092919050505061166b565b6040518082815260200191505060405180910390f35b34801561058c57600080fd5b5061059561168b565b6040518082815260200191505060405180910390f35b3480156105b757600080fd5b50610604600480360360408110156105ce57600080fd5b8101908080359060200190929190803573ffffffffffffffffffffffffffffffffffffffff169060200190929190505050611695565b005b34801561061257600080fd5b5061065f6004803603604081101561062957600080fd5b81019080803573ffffffffffffffffffffffffffffffffffffffff1690602001909291908035906020019092919050505061171f565b6040518082815260200191505060405180910390f35b34801561068157600080fd5b506106ce6004803603604081101561069857600080fd5b8101908080359060200190929190803573ffffffffffffffffffffffffffffffffffffffff16906020019092919050505061177a565b005b3480156106dc57600080fd5b50610749600480360360608110156106f357600080fd5b81019080803573ffffffffffffffffffffffffffffffffffffffff169060200190929190803573ffffffffffffffffffffffffffffffffffffffff16906020019092919080359060200190929190505050611813565b005b34801561075757600080fd5b506107846004803603602081101561076e57600080fd5b8101908080359060200190929190505050611833565b005b34801561079257600080fd5b506107bf600480360360208110156107a957600080fd5b81019080803590602001909291905050506118a5565b6040518082815260200191505060405180910390f35b3480156107e157600080fd5b5061080e600480360360208110156107f857600080fd5b81019080803590602001909291905050506118c8565b604051808273ffffffffffffffffffffffffffffffffffffffff16815260200191505060405180910390f35b34801561084657600080fd5b5061084f6118ff565b6040518080602001828103825283818151815260200191508051906020019080838360005b8381101561088f578082015181840152602081019050610874565b50505050905090810190601f1680156108bc5780820380516001836020036101000a031916815260200191505b509250505060405180910390f35b3480156108d657600080fd5b50610919600480360360208110156108ed57600080fd5b81019080803573ffffffffffffffffffffffffffffffffffffffff1690602001909291905050506119a1565b6040518082815260200191505060405180910390f35b34801561093b57600080fd5b506109686004803603602081101561095257600080fd5b8101908080359060200190929190505050611a76565b005b34801561097657600080fd5b506109ad6004803603604081101561098d57600080fd5b810190808035906020019092919080359060200190929190505050611c79565b604051808273ffffffffffffffffffffffffffffffffffffffff16815260200191505060405180910390f35b3480156109e557600080fd5b50610a32600480360360408110156109fc57600080fd5b8101908080359060200190929190803573ffffffffffffffffffffffffffffffffffffffff169060200190929190505050611cab565b60405180821515815260200191505060405180910390f35b348015610a5657600080fd5b50610a5f611cdd565b6040518080602001828103825283818151815260200191508051906020019080838360005b83811015610a9f578082015181840152602081019050610a84565b50505050905090810190601f168015610acc5780820380516001836020036101000a031916815260200191505b509250505060405180910390f35b348015610ae657600080fd5b50610aef611d7f565b6040518082815260200191505060405180910390f35b348015610b1157600080fd5b50610b6060048036036040811015610b2857600080fd5b81019080803573ffffffffffffffffffffffffffffffffffffffff169060200190929190803515159060200190929190505050611d86565b005b610b8e60048036036020811015610b7857600080fd5b8101908080359060200190929190505050611f3c565b005b348015610b9c57600080fd5b50610ca060048036036080811015610bb357600080fd5b81019080803573ffffffffffffffffffffffffffffffffffffffff169060200190929190803573ffffffffffffffffffffffffffffffffffffffff1690602001909291908035906020019092919080359060200190640100000000811115610c1a57600080fd5b820183602082011115610c2c57600080fd5b80359060200191846001830284011164010000000083111715610c4e57600080fd5b91908080601f016020809104026020016040519081016040528093929190818152602001838380828437600081840152601f19601f820116905080830192505050505050509192919290505050612243565b005b348015610cae57600080fd5b50610cdb60048036036020811015610cc557600080fd5b81019080803590602001909291905050506122bb565b005b348015610ce957600080fd5b50610d1660048036036020811015610d0057600080fd5b810190808035906020019092919050505061234b565b604051808273ffffffffffffffffffffffffffffffffffffffff16815260200191505060405180910390f35b348015610d4e57600080fd5b50610d7b60048036036020811015610d6557600080fd5b81019080803590602001909291905050506123e8565b005b348015610d8957600080fd5b50610db660048036036020811015610da057600080fd5b810190808035906020019092919050505061284a565b6040518080602001828103825283818151815260200191508051906020019080838360005b83811015610df6578082015181840152602081019050610ddb565b50505050905090810190601f168015610e235780820380516001836020036101000a031916815260200191505b509250505060405180910390f35b348015610e3d57600080fd5b50610e6a60048036036020811015610e5457600080fd5b8101908080359060200190929190505050612b1b565b6040518082815260200191505060405180910390f35b348015610e8c57600080fd5b50610ecf60048036036020811015610ea357600080fd5b81019080803573ffffffffffffffffffffffffffffffffffffffff169060200190929190505050612b42565b005b348015610edd57600080fd5b50610f2a60048036036040811015610ef457600080fd5b81019080803573ffffffffffffffffffffffffffffffffffffffff16906020019092919080359060200190929190505050612c0c565b005b348015610f3857600080fd5b50610f6560048036036020811015610f4f57600080fd5b8101908080359060200190929190505050612de5565b6040518082815260200191505060405180910390f35b348015610f8757600080fd5b50610fd460048036036040811015610f9e57600080fd5b8101908080359060200190929190803573ffffffffffffffffffffffffffffffffffffffff169060200190929190505050612e62565b005b348015610fe257600080fd5b50610feb612eec565b604051808273ffffffffffffffffffffffffffffffffffffffff16815260200191505060405180910390f35b34801561102357600080fd5b5061102c612f16565b6040518082815260200191505060405180910390f35b34801561104e57600080fd5b506110b16004803603604081101561106557600080fd5b81019080803573ffffffffffffffffffffffffffffffffffffffff169060200190929190803573ffffffffffffffffffffffffffffffffffffffff169060200190929190505050612f20565b60405180821515815260200191505060405180910390f35b3480156110d557600080fd5b5061110c600480360360408110156110ec57600080fd5b810190808035906020019092919080359060200190929190505050612fb4565b005b34801561111a57600080fd5b506111476004803603602081101561113157600080fd5b8101908080359060200190929190505050613194565b005b600060336000837bffffffffffffffffffffffffffffffffffffffffffffffffffffffff19167bffffffffffffffffffffffffffffffffffffffffffffffffffffffff1916815260200190815260200160002060009054906101000a900460ff169050919050565b6060606a8054600181600116156101000203166002900480601f0160208091040260200160405190810160405280929190818152602001828054600181600116156101000203166002900480156112495780601f1061121e57610100808354040283529160200191611249565b820191906000526020600020905b81548152906001019060200180831161122c57829003601f168201915b5050505050905090565b600061125e826133d4565b6112b3576040517f08c379a000000000000000000000000000000000000000000000000000000000815260040180806020018281038252602c815260200180615c59602c913960400191505060405180910390fd5b6068600083815260200190815260200160002060009054906101000a900473ffffffffffffffffffffffffffffffffffffffff169050919050565b60006112f9826118c8565b90508073ffffffffffffffffffffffffffffffffffffffff168373ffffffffffffffffffffffffffffffffffffffff161415611380576040517f08c379a0000000000000000000000000000000000000000000000000000000008152600401808060200182810382526021815260200180615d026021913960400191505060405180910390fd5b8073ffffffffffffffffffffffffffffffffffffffff1661139f6133f1565b73ffffffffffffffffffffffffffffffffffffffff1614806113ce57506113cd816113c86133f1565b612f20565b5b611423576040517f08c379a0000000000000000000000000000000000000000000000000000000008152600401808060200182810382526038815260200180615ad46038913960400191505060405180910390fd5b61142d83836133f9565b505050565b600061143e60666134b2565b905090565b6114576000801b6114526133f1565b611cab565b6114c9576040517f08c379a000000000000000000000000000000000000000000000000000000000815260040180806020018281038252601e8152602001807f4b61726761696e3a2043616c6c6572206973206e6f7420612061646d696e000081525060200191505060405180910390fd5b8060fd8190555050565b6114dc826133d4565b15611532576040517f08c379a000000000000000000000000000000000000000000000000000000000815260040180806020018281038252602a815260200180615e0c602a913960400191505060405180910390fd5b6000811161158b576040517f08c379a000000000000000000000000000000000000000000000000000000000815260040180806020018281038252602a815260200180615aaa602a913960400191505060405180910390fd5b61159533836134c7565b8060fe600084815260200190815260200160002081905550813373ffffffffffffffffffffffffffffffffffffffff167fb9144c96c86541f6fa89c9f2f02495cccf4b08cd6643e26d34ee00aa586558a860405160405180910390a35050565b6116066116006133f1565b826136bb565b61165b576040517f08c379a0000000000000000000000000000000000000000000000000000000008152600401808060200182810382526031815260200180615d236031913960400191505060405180910390fd5b6116668383836137af565b505050565b600060c96000838152602001908152602001600020600201549050919050565b600060fd54905090565b6116bc60c96000848152602001908152602001600020600201546116b76133f1565b611cab565b611711576040517f08c379a000000000000000000000000000000000000000000000000000000000815260040180806020018281038252602f815260200180615955602f913960400191505060405180910390fd5b61171b82826139f2565b5050565b600061177282606560008673ffffffffffffffffffffffffffffffffffffffff1673ffffffffffffffffffffffffffffffffffffffff168152602001908152602001600020613a8690919063ffffffff16565b905092915050565b6117826133f1565b73ffffffffffffffffffffffffffffffffffffffff168173ffffffffffffffffffffffffffffffffffffffff1614611805576040517f08c379a000000000000000000000000000000000000000000000000000000000815260040180806020018281038252602f815260200180615e36602f913960400191505060405180910390fd5b61180f8282613aa0565b5050565b61182e83838360405180602001604052806000815250612243565b505050565b61184461183e6133f1565b826136bb565b611899576040517f08c379a0000000000000000000000000000000000000000000000000000000008152600401808060200182810382526030815260200180615ddc6030913960400191505060405180910390fd5b6118a281613b34565b50565b6000806118bc836066613c6e90919063ffffffff16565b50905080915050919050565b60006118f882604051806060016040528060298152602001615b36602991396066613c9a9092919063ffffffff16565b9050919050565b6060606d8054600181600116156101000203166002900480601f0160208091040260200160405190810160405280929190818152602001828054600181600116156101000203166002900480156119975780601f1061196c57610100808354040283529160200191611997565b820191906000526020600020905b81548152906001019060200180831161197a57829003601f168201915b5050505050905090565b60008073ffffffffffffffffffffffffffffffffffffffff168273ffffffffffffffffffffffffffffffffffffffff161415611a28576040517f08c379a000000000000000000000000000000000000000000000000000000000815260040180806020018281038252602a815260200180615b0c602a913960400191505060405180910390fd5b611a6f606560008473ffffffffffffffffffffffffffffffffffffffff1673ffffffffffffffffffffffffffffffffffffffff168152602001908152602001600020613cb9565b9050919050565b80611a80816133d4565b611ad5576040517f08c379a000000000000000000000000000000000000000000000000000000000815260040180806020018281038252602a815260200180615bbf602a913960400191505060405180910390fd5b813373ffffffffffffffffffffffffffffffffffffffff16611af6826118c8565b73ffffffffffffffffffffffffffffffffffffffff1614611b62576040517f08c379a000000000000000000000000000000000000000000000000000000000815260040180806020018281038252602d815260200180615c2c602d913960400191505060405180910390fd5b82600073ffffffffffffffffffffffffffffffffffffffff1660ff600083815260200190815260200160002060009054906101000a900473ffffffffffffffffffffffffffffffffffffffff1673ffffffffffffffffffffffffffffffffffffffff161415611c1c576040517f08c379a0000000000000000000000000000000000000000000000000000000008152600401808060200182810382526031815260200180615dab6031913960400191505060405180910390fd5b611c2584613cce565b3373ffffffffffffffffffffffffffffffffffffffff167f1f592dbf03205ee7f7c0b32b5b071beaf79c4e0b84a954d5160dccaa79c79584856040518082815260200191505060405180910390a250505050565b6000611ca38260c96000868152602001908152602001600020600001613ecd90919063ffffffff16565b905092915050565b6000611cd58260c96000868152602001908152602001600020600001613ee790919063ffffffff16565b905092915050565b6060606b8054600181600116156101000203166002900480601f016020809104026020016040519081016040528092919081815260200182805460018160011615610100020316600290048015611d755780601f10611d4a57610100808354040283529160200191611d75565b820191906000526020600020905b815481529060010190602001808311611d5857829003601f168201915b5050505050905090565b6000801b81565b611d8e6133f1565b73ffffffffffffffffffffffffffffffffffffffff168273ffffffffffffffffffffffffffffffffffffffff161415611e2f576040517f08c379a00000000000000000000000000000000000000000000000000000000081526004018080602001828103825260198152602001807f4552433732313a20617070726f766520746f2063616c6c65720000000000000081525060200191505060405180910390fd5b8060696000611e3c6133f1565b73ffffffffffffffffffffffffffffffffffffffff1673ffffffffffffffffffffffffffffffffffffffff16815260200190815260200160002060008473ffffffffffffffffffffffffffffffffffffffff1673ffffffffffffffffffffffffffffffffffffffff16815260200190815260200160002060006101000a81548160ff0219169083151502179055508173ffffffffffffffffffffffffffffffffffffffff16611ee96133f1565b73ffffffffffffffffffffffffffffffffffffffff167f17307eab39ab6107e8899845ad3d59bd9653f200f220920489ca2b5937696c318360405180821515815260200191505060405180910390a35050565b80611f46816133d4565b611f9b576040517f08c379a000000000000000000000000000000000000000000000000000000000815260040180806020018281038252602a815260200180615bbf602a913960400191505060405180910390fd5b3373ffffffffffffffffffffffffffffffffffffffff16611fbb836118c8565b73ffffffffffffffffffffffffffffffffffffffff161415612028576040517f08c379a00000000000000000000000000000000000000000000000000000000081526004018080602001828103825260278152602001806159846027913960400191505060405180910390fd5b600073ffffffffffffffffffffffffffffffffffffffff1660ff600084815260200190815260200160002060009054906101000a900473ffffffffffffffffffffffffffffffffffffffff1673ffffffffffffffffffffffffffffffffffffffff161480156120aa575042610100600084815260200190815260200160002054105b6120ff576040517f08c379a0000000000000000000000000000000000000000000000000000000008152600401808060200182810382526027815260200180615a016027913960400191505060405180910390fd5b60fe600083815260200190815260200160002054341461216a576040517f08c379a0000000000000000000000000000000000000000000000000000000008152600401808060200182810382526025815260200180615c856025913960400191505060405180910390fd5b3360ff600084815260200190815260200160002060006101000a81548173ffffffffffffffffffffffffffffffffffffffff021916908373ffffffffffffffffffffffffffffffffffffffff1602179055506121d160fd5442613f1790919063ffffffff16565b6101006000848152602001908152602001600020819055503373ffffffffffffffffffffffffffffffffffffffff167f2c7945bf3248598029aaee74e7a7c694cceba99c30ab722154f6e8315addb7698334604051808381526020018281526020019250505060405180910390a25050565b61225461224e6133f1565b836136bb565b6122a9576040517f08c379a0000000000000000000000000000000000000000000000000000000008152600401808060200182810382526031815260200180615d236031913960400191505060405180910390fd5b6122b584848484613f9f565b50505050565b6122cf6000801b6122ca6133f1565b611cab565b612341576040517f08c379a000000000000000000000000000000000000000000000000000000000815260040180806020018281038252601e8152602001807f4b61726761696e3a2043616c6c6572206973206e6f7420612061646d696e000081525060200191505060405180910390fd5b8060fc8190555050565b600081612357816133d4565b6123ac576040517f08c379a000000000000000000000000000000000000000000000000000000000815260040180806020018281038252602a815260200180615bbf602a913960400191505060405180910390fd5b60ff600084815260200190815260200160002060009054906101000a900473ffffffffffffffffffffffffffffffffffffffff16915050919050565b806123f2816133d4565b612447576040517f08c379a000000000000000000000000000000000000000000000000000000000815260040180806020018281038252602a815260200180615bbf602a913960400191505060405180910390fd5b81600073ffffffffffffffffffffffffffffffffffffffff1660ff600083815260200190815260200160002060009054906101000a900473ffffffffffffffffffffffffffffffffffffffff1673ffffffffffffffffffffffffffffffffffffffff161415612501576040517f08c379a0000000000000000000000000000000000000000000000000000000008152600401808060200182810382526031815260200180615dab6031913960400191505060405180910390fd5b823373ffffffffffffffffffffffffffffffffffffffff16612522826118c8565b73ffffffffffffffffffffffffffffffffffffffff161461258e576040517f08c379a000000000000000000000000000000000000000000000000000000000815260040180806020018281038252602d815260200180615c2c602d913960400191505060405180910390fd5b42610100600086815260200190815260200160002054101561264b5760ff600085815260200190815260200160002060006101000a81549073ffffffffffffffffffffffffffffffffffffffff02191690556101006000858152602001908152602001600020600090553373ffffffffffffffffffffffffffffffffffffffff167f517d0330169de1af1cb63d88530c8908884d15617822170b876786e48f92917f856040518082815260200191505060405180910390a2612844565b600060ff600086815260200190815260200160002060009054906101000a900473ffffffffffffffffffffffffffffffffffffffff16905060ff600086815260200190815260200160002060006101000a81549073ffffffffffffffffffffffffffffffffffffffff021916905561010060008681526020019081526020016000206000905560006127116004600a0a61270360fc5460fe60008b81526020019081526020016000205461401190919063ffffffff16565b61409790919063ffffffff16565b905060fb60009054906101000a900473ffffffffffffffffffffffffffffffffffffffff1673ffffffffffffffffffffffffffffffffffffffff166108fc829081150290604051600060405180830381858888f1935050505015801561277b573d6000803e3d6000fd5b503373ffffffffffffffffffffffffffffffffffffffff166108fc6127bc8360fe60008b81526020019081526020016000205461412090919063ffffffff16565b9081150290604051600060405180830381858888f193505050501580156127e7573d6000803e3d6000fd5b506127f3338388611813565b3373ffffffffffffffffffffffffffffffffffffffff167f18f9d2c9031a53ca9e501ddaadc6e66758b39bbf424cf4e22c62b6003fbd240c876040518082815260200191505060405180910390a250505b50505050565b6060612855826133d4565b6128aa576040517f08c379a000000000000000000000000000000000000000000000000000000000815260040180806020018281038252602f815260200180615cd3602f913960400191505060405180910390fd5b6060606c60008481526020019081526020016000208054600181600116156101000203166002900480601f0160208091040260200160405190810160405280929190818152602001828054600181600116156101000203166002900480156129535780601f1061292857610100808354040283529160200191612953565b820191906000526020600020905b81548152906001019060200180831161293657829003601f168201915b5050505050905060606129646118ff565b905060008151141561297a578192505050612b16565b600082511115612a4b5780826040516020018083805190602001908083835b602083106129bc5780518252602082019150602081019050602083039250612999565b6001836020036101000a03801982511681845116808217855250505050505090500182805190602001908083835b60208310612a0d57805182526020820191506020810190506020830392506129ea565b6001836020036101000a0380198251168184511680821785525050505050509050019250505060405160208183030381529060405292505050612b16565b80612a55856141a3565b6040516020018083805190602001908083835b60208310612a8b5780518252602082019150602081019050602083039250612a68565b6001836020036101000a03801982511681845116808217855250505050505090500182805190602001908083835b60208310612adc5780518252602082019150602081019050602083039250612ab9565b6001836020036101000a03801982511681845116808217855250505050505090500192505050604051602081830303815290604052925050505b919050565b6000612b3b60c960008481526020019081526020016000206000016142ea565b9050919050565b612b566000801b612b516133f1565b611cab565b612bc8576040517f08c379a000000000000000000000000000000000000000000000000000000000815260040180806020018281038252601e8152602001807f4b61726761696e3a2043616c6c6572206973206e6f7420612061646d696e000081525060200191505060405180910390fd5b8060fb60006101000a81548173ffffffffffffffffffffffffffffffffffffffff021916908373ffffffffffffffffffffffffffffffffffffffff16021790555050565b600060019054906101000a900460ff1680612c2b5750612c2a6142ff565b5b80612c41575060008054906101000a900460ff16155b612c96576040517f08c379a000000000000000000000000000000000000000000000000000000000815260040180806020018281038252602e815260200180615b91602e913960400191505060405180910390fd5b60008060019054906101000a900460ff161590508015612ce6576001600060016101000a81548160ff02191690831515021790555060016000806101000a81548160ff0219169083151502179055505b8260fb60006101000a81548173ffffffffffffffffffffffffffffffffffffffff021916908373ffffffffffffffffffffffffffffffffffffffff1602179055508160fc81905550612d36614310565b612daa6040518060400160405280600781526020017f4b61726761696e000000000000000000000000000000000000000000000000008152506040518060400160405280600381526020017f4b474e0000000000000000000000000000000000000000000000000000000000815250614426565b612db2614540565b612dbf6000801b3361464e565b8015612de05760008060016101000a81548160ff0219169083151502179055505b505050565b600081612df1816133d4565b612e46576040517f08c379a000000000000000000000000000000000000000000000000000000000815260040180806020018281038252602a815260200180615bbf602a913960400191505060405180910390fd5b60fe600084815260200190815260200160002054915050919050565b612e8960c9600084815260200190815260200160002060020154612e846133f1565b611cab565b612ede576040517f08c379a0000000000000000000000000000000000000000000000000000000008152600401808060200182810382526030815260200180615a7a6030913960400191505060405180910390fd5b612ee88282613aa0565b5050565b600060fb60009054906101000a900473ffffffffffffffffffffffffffffffffffffffff16905090565b600060fc54905090565b6000606960008473ffffffffffffffffffffffffffffffffffffffff1673ffffffffffffffffffffffffffffffffffffffff16815260200190815260200160002060008373ffffffffffffffffffffffffffffffffffffffff1673ffffffffffffffffffffffffffffffffffffffff16815260200190815260200160002060009054906101000a900460ff16905092915050565b81612fbe816133d4565b613013576040517f08c379a000000000000000000000000000000000000000000000000000000000815260040180806020018281038252602a815260200180615bbf602a913960400191505060405180910390fd5b823373ffffffffffffffffffffffffffffffffffffffff16613034826118c8565b73ffffffffffffffffffffffffffffffffffffffff16146130a0576040517f08c379a000000000000000000000000000000000000000000000000000000000815260040180806020018281038252602d815260200180615c2c602d913960400191505060405180910390fd5b600073ffffffffffffffffffffffffffffffffffffffff1660ff600086815260200190815260200160002060009054906101000a900473ffffffffffffffffffffffffffffffffffffffff1673ffffffffffffffffffffffffffffffffffffffff161480613121575042610100600086815260200190815260200160002054105b613176576040517f08c379a0000000000000000000000000000000000000000000000000000000008152600401808060200182810382526057815260200180615d546057913960600191505060405180910390fd5b8260fe60008681526020019081526020016000208190555050505050565b8061319e816133d4565b6131f3576040517f08c379a000000000000000000000000000000000000000000000000000000000815260040180806020018281038252602a815260200180615bbf602a913960400191505060405180910390fd5b81600073ffffffffffffffffffffffffffffffffffffffff1660ff600083815260200190815260200160002060009054906101000a900473ffffffffffffffffffffffffffffffffffffffff1673ffffffffffffffffffffffffffffffffffffffff1614156132ad576040517f08c379a0000000000000000000000000000000000000000000000000000000008152600401808060200182810382526031815260200180615dab6031913960400191505060405180910390fd5b3373ffffffffffffffffffffffffffffffffffffffff1660ff600085815260200190815260200160002060009054906101000a900473ffffffffffffffffffffffffffffffffffffffff1673ffffffffffffffffffffffffffffffffffffffff16148061332357506133226000801b33611cab565b5b613378576040517f08c379a0000000000000000000000000000000000000000000000000000000008152600401808060200182810382526032815260200180615b5f6032913960400191505060405180910390fd5b61338183613cce565b3373ffffffffffffffffffffffffffffffffffffffff167f899cab278284ae4a91172caa0943607a0bcb19766254c3ebe1139be00650b102846040518082815260200191505060405180910390a2505050565b60006133ea82606661465c90919063ffffffff16565b9050919050565b600033905090565b816068600083815260200190815260200160002060006101000a81548173ffffffffffffffffffffffffffffffffffffffff021916908373ffffffffffffffffffffffffffffffffffffffff160217905550808273ffffffffffffffffffffffffffffffffffffffff1661346c836118c8565b73ffffffffffffffffffffffffffffffffffffffff167f8c5be1e5ebec7d5bd14f71427d1e84f3dd0314c0f7b2291e5b200ac8c7c3b92560405160405180910390a45050565b60006134c082600001614676565b9050919050565b600073ffffffffffffffffffffffffffffffffffffffff168273ffffffffffffffffffffffffffffffffffffffff16141561356a576040517f08c379a00000000000000000000000000000000000000000000000000000000081526004018080602001828103825260208152602001807f4552433732313a206d696e7420746f20746865207a65726f206164647265737381525060200191505060405180910390fd5b613573816133d4565b156135e6576040517f08c379a000000000000000000000000000000000000000000000000000000000815260040180806020018281038252601c8152602001807f4552433732313a20746f6b656e20616c7265616479206d696e7465640000000081525060200191505060405180910390fd5b6135f260008383614687565b61364381606560008573ffffffffffffffffffffffffffffffffffffffff1673ffffffffffffffffffffffffffffffffffffffff16815260200190815260200160002061468c90919063ffffffff16565b5061365a818360666146a69092919063ffffffff16565b50808273ffffffffffffffffffffffffffffffffffffffff16600073ffffffffffffffffffffffffffffffffffffffff167fddf252ad1be2c89b69c2b068fc378daa952ba7f163c4a11628f55a4df523b3ef60405160405180910390a45050565b60006136c6826133d4565b61371b576040517f08c379a000000000000000000000000000000000000000000000000000000000815260040180806020018281038252602c815260200180615a4e602c913960400191505060405180910390fd5b6000613726836118c8565b90508073ffffffffffffffffffffffffffffffffffffffff168473ffffffffffffffffffffffffffffffffffffffff16148061379557508373ffffffffffffffffffffffffffffffffffffffff1661377d84611253565b73ffffffffffffffffffffffffffffffffffffffff16145b806137a657506137a58185612f20565b5b91505092915050565b8273ffffffffffffffffffffffffffffffffffffffff166137cf826118c8565b73ffffffffffffffffffffffffffffffffffffffff161461383b576040517f08c379a0000000000000000000000000000000000000000000000000000000008152600401808060200182810382526029815260200180615caa6029913960400191505060405180910390fd5b600073ffffffffffffffffffffffffffffffffffffffff168273ffffffffffffffffffffffffffffffffffffffff1614156138c1576040517f08c379a00000000000000000000000000000000000000000000000000000000081526004018080602001828103825260248152602001806159dd6024913960400191505060405180910390fd5b6138cc838383614687565b6138d76000826133f9565b61392881606560008673ffffffffffffffffffffffffffffffffffffffff1673ffffffffffffffffffffffffffffffffffffffff1681526020019081526020016000206146db90919063ffffffff16565b5061397a81606560008573ffffffffffffffffffffffffffffffffffffffff1673ffffffffffffffffffffffffffffffffffffffff16815260200190815260200160002061468c90919063ffffffff16565b50613991818360666146a69092919063ffffffff16565b50808273ffffffffffffffffffffffffffffffffffffffff168473ffffffffffffffffffffffffffffffffffffffff167fddf252ad1be2c89b69c2b068fc378daa952ba7f163c4a11628f55a4df523b3ef60405160405180910390a4505050565b613a1a8160c960008581526020019081526020016000206000016146f590919063ffffffff16565b15613a8257613a276133f1565b73ffffffffffffffffffffffffffffffffffffffff168173ffffffffffffffffffffffffffffffffffffffff16837f2f8788117e7eff1d82e926ec794901d17c78024a50270940304540a733656f0d60405160405180910390a45b5050565b6000613a958360000183614725565b60001c905092915050565b613ac88160c960008581526020019081526020016000206000016147a890919063ffffffff16565b15613b3057613ad56133f1565b73ffffffffffffffffffffffffffffffffffffffff168173ffffffffffffffffffffffffffffffffffffffff16837ff6391f5c32d9c69d2a47ea670b442974b53935d1edc7fd64eb21e047a839171b60405160405180910390a45b5050565b6000613b3f826118c8565b9050613b4d81600084614687565b613b586000836133f9565b6000606c600084815260200190815260200160002080546001816001161561010002031660029004905014613ba757606c60008381526020019081526020016000206000613ba6919061584d565b5b613bf882606560008473ffffffffffffffffffffffffffffffffffffffff1673ffffffffffffffffffffffffffffffffffffffff1681526020019081526020016000206146db90919063ffffffff16565b50613c0d8260666147d890919063ffffffff16565b5081600073ffffffffffffffffffffffffffffffffffffffff168273ffffffffffffffffffffffffffffffffffffffff167fddf252ad1be2c89b69c2b068fc378daa952ba7f163c4a11628f55a4df523b3ef60405160405180910390a45050565b600080600080613c8186600001866147f2565b915091508160001c8160001c9350935050509250929050565b6000613cad846000018460001b8461488b565b60001c90509392505050565b6000613cc782600001614981565b9050919050565b80613cd8816133d4565b613d2d576040517f08c379a000000000000000000000000000000000000000000000000000000000815260040180806020018281038252602a815260200180615bbf602a913960400191505060405180910390fd5b81600073ffffffffffffffffffffffffffffffffffffffff1660ff600083815260200190815260200160002060009054906101000a900473ffffffffffffffffffffffffffffffffffffffff1673ffffffffffffffffffffffffffffffffffffffff161415613de7576040517f08c379a0000000000000000000000000000000000000000000000000000000008152600401808060200182810382526031815260200180615dab6031913960400191505060405180910390fd5b600060ff600085815260200190815260200160002060009054906101000a900473ffffffffffffffffffffffffffffffffffffffff16905060ff600085815260200190815260200160002060006101000a81549073ffffffffffffffffffffffffffffffffffffffff02191690556101006000858152602001908152602001600020600090558073ffffffffffffffffffffffffffffffffffffffff166108fc60fe6000878152602001908152602001600020549081150290604051600060405180830381858888f19350505050158015613ec6573d6000803e3d6000fd5b5050505050565b6000613edc8360000183614725565b60001c905092915050565b6000613f0f836000018373ffffffffffffffffffffffffffffffffffffffff1660001b614992565b905092915050565b600080828401905083811015613f95576040517f08c379a000000000000000000000000000000000000000000000000000000000815260040180806020018281038252601b8152602001807f536166654d6174683a206164646974696f6e206f766572666c6f77000000000081525060200191505060405180910390fd5b8091505092915050565b613faa8484846137af565b613fb6848484846149b5565b61400b576040517f08c379a00000000000000000000000000000000000000000000000000000000081526004018080602001828103825260328152602001806159ab6032913960400191505060405180910390fd5b50505050565b6000808314156140245760009050614091565b600082840290508284828161403557fe5b041461408c576040517f08c379a0000000000000000000000000000000000000000000000000000000008152600401808060200182810382526021815260200180615c0b6021913960400191505060405180910390fd5b809150505b92915050565b600080821161410e576040517f08c379a000000000000000000000000000000000000000000000000000000000815260040180806020018281038252601a8152602001807f536166654d6174683a206469766973696f6e206279207a65726f00000000000081525060200191505060405180910390fd5b81838161411757fe5b04905092915050565b600082821115614198576040517f08c379a000000000000000000000000000000000000000000000000000000000815260040180806020018281038252601e8152602001807f536166654d6174683a207375627472616374696f6e206f766572666c6f77000081525060200191505060405180910390fd5b818303905092915050565b606060008214156141eb576040518060400160405280600181526020017f300000000000000000000000000000000000000000000000000000000000000081525090506142e5565b600082905060005b60008214614215578080600101915050600a828161420d57fe5b0491506141f3565b60608167ffffffffffffffff8111801561422e57600080fd5b506040519080825280601f01601f1916602001820160405280156142615781602001600182028036833780820191505090505b50905060006001830390508593505b600084146142dd57600a848161428257fe5b0660300160f81b8282806001900393508151811061429c57fe5b60200101907effffffffffffffffffffffffffffffffffffffffffffffffffffffffffffff1916908160001a905350600a84816142d557fe5b049350614270565b819450505050505b919050565b60006142f882600001614981565b9050919050565b600061430a30614bce565b15905090565b600060019054906101000a900460ff168061432f575061432e6142ff565b5b80614345575060008054906101000a900460ff16155b61439a576040517f08c379a000000000000000000000000000000000000000000000000000000000815260040180806020018281038252602e815260200180615b91602e913960400191505060405180910390fd5b60008060019054906101000a900460ff1615905080156143ea576001600060016101000a81548160ff02191690831515021790555060016000806101000a81548160ff0219169083151502179055505b6143f2614be1565b6143fa614cdf565b614402614ded565b80156144235760008060016101000a81548160ff0219169083151502179055505b50565b600060019054906101000a900460ff168061444557506144446142ff565b5b8061445b575060008054906101000a900460ff16155b6144b0576040517f08c379a000000000000000000000000000000000000000000000000000000000815260040180806020018281038252602e815260200180615b91602e913960400191505060405180910390fd5b60008060019054906101000a900460ff161590508015614500576001600060016101000a81548160ff02191690831515021790555060016000806101000a81548160ff0219169083151502179055505b614508614be1565b614510614cdf565b61451a8383614eeb565b801561453b5760008060016101000a81548160ff0219169083151502179055505b505050565b600060019054906101000a900460ff168061455f575061455e6142ff565b5b80614575575060008054906101000a900460ff16155b6145ca576040517f08c379a000000000000000000000000000000000000000000000000000000000815260040180806020018281038252602e815260200180615b91602e913960400191505060405180910390fd5b60008060019054906101000a900460ff16159050801561461a576001600060016101000a81548160ff02191690831515021790555060016000806101000a81548160ff0219169083151502179055505b614622614be1565b61462a615049565b801561464b5760008060016101000a81548160ff0219169083151502179055505b50565b61465882826139f2565b5050565b600061466e836000018360001b615147565b905092915050565b600081600001805490509050919050565b505050565b600061469e836000018360001b61516a565b905092915050565b60006146d2846000018460001b8473ffffffffffffffffffffffffffffffffffffffff1660001b6151da565b90509392505050565b60006146ed836000018360001b6152b6565b905092915050565b600061471d836000018373ffffffffffffffffffffffffffffffffffffffff1660001b61516a565b905092915050565b600081836000018054905011614786576040517f08c379a00000000000000000000000000000000000000000000000000000000081526004018080602001828103825260228152602001806159336022913960400191505060405180910390fd5b82600001828154811061479557fe5b9060005260206000200154905092915050565b60006147d0836000018373ffffffffffffffffffffffffffffffffffffffff1660001b6152b6565b905092915050565b60006147ea836000018360001b61539e565b905092915050565b60008082846000018054905011614854576040517f08c379a0000000000000000000000000000000000000000000000000000000008152600401808060200182810382526022815260200180615be96022913960400191505060405180910390fd5b600084600001848154811061486557fe5b906000526020600020906002020190508060000154816001015492509250509250929050565b60008084600101600085815260200190815260200160002054905060008114158390614952576040517f08c379a00000000000000000000000000000000000000000000000000000000081526004018080602001828103825283818151815260200191508051906020019080838360005b838110156149175780820151818401526020810190506148fc565b50505050905090810190601f1680156149445780820380516001836020036101000a031916815260200191505b509250505060405180910390fd5b5084600001600182038154811061496557fe5b9060005260206000209060020201600101549150509392505050565b600081600001805490509050919050565b600080836001016000848152602001908152602001600020541415905092915050565b60006149d68473ffffffffffffffffffffffffffffffffffffffff16614bce565b6149e35760019050614bc6565b6060614b4d63150b7a0260e01b6149f86133f1565b888787604051602401808573ffffffffffffffffffffffffffffffffffffffff1681526020018473ffffffffffffffffffffffffffffffffffffffff16815260200183815260200180602001828103825283818151815260200191508051906020019080838360005b83811015614a7c578082015181840152602081019050614a61565b50505050905090810190601f168015614aa95780820380516001836020036101000a031916815260200191505b5095505050505050604051602081830303815290604052907bffffffffffffffffffffffffffffffffffffffffffffffffffffffff19166020820180517bffffffffffffffffffffffffffffffffffffffffffffffffffffffff83818316178352505050506040518060600160405280603281526020016159ab603291398773ffffffffffffffffffffffffffffffffffffffff166154b79092919063ffffffff16565b90506000818060200190516020811015614b6657600080fd5b8101908080519060200190929190505050905063150b7a0260e01b7bffffffffffffffffffffffffffffffffffffffffffffffffffffffff1916817bffffffffffffffffffffffffffffffffffffffffffffffffffffffff191614925050505b949350505050565b600080823b905060008111915050919050565b600060019054906101000a900460ff1680614c005750614bff6142ff565b5b80614c16575060008054906101000a900460ff16155b614c6b576040517f08c379a000000000000000000000000000000000000000000000000000000000815260040180806020018281038252602e815260200180615b91602e913960400191505060405180910390fd5b60008060019054906101000a900460ff161590508015614cbb576001600060016101000a81548160ff02191690831515021790555060016000806101000a81548160ff0219169083151502179055505b8015614cdc5760008060016101000a81548160ff0219169083151502179055505b50565b600060019054906101000a900460ff1680614cfe5750614cfd6142ff565b5b80614d14575060008054906101000a900460ff16155b614d69576040517f08c379a000000000000000000000000000000000000000000000000000000000815260040180806020018281038252602e815260200180615b91602e913960400191505060405180910390fd5b60008060019054906101000a900460ff161590508015614db9576001600060016101000a81548160ff02191690831515021790555060016000806101000a81548160ff0219169083151502179055505b614dc96301ffc9a760e01b6154cf565b8015614dea5760008060016101000a81548160ff0219169083151502179055505b50565b600060019054906101000a900460ff1680614e0c5750614e0b6142ff565b5b80614e22575060008054906101000a900460ff16155b614e77576040517f08c379a000000000000000000000000000000000000000000000000000000000815260040180806020018281038252602e815260200180615b91602e913960400191505060405180910390fd5b60008060019054906101000a900460ff161590508015614ec7576001600060016101000a81548160ff02191690831515021790555060016000806101000a81548160ff0219169083151502179055505b8015614ee85760008060016101000a81548160ff0219169083151502179055505b50565b600060019054906101000a900460ff1680614f0a5750614f096142ff565b5b80614f20575060008054906101000a900460ff16155b614f75576040517f08c379a000000000000000000000000000000000000000000000000000000000815260040180806020018281038252602e815260200180615b91602e913960400191505060405180910390fd5b60008060019054906101000a900460ff161590508015614fc5576001600060016101000a81548160ff02191690831515021790555060016000806101000a81548160ff0219169083151502179055505b82606a9080519060200190614fdb929190615895565b5081606b9080519060200190614ff2929190615895565b506150036380ac58cd60e01b6154cf565b615013635b5e139f60e01b6154cf565b61502363780e9d6360e01b6154cf565b80156150445760008060016101000a81548160ff0219169083151502179055505b505050565b600060019054906101000a900460ff168061506857506150676142ff565b5b8061507e575060008054906101000a900460ff16155b6150d3576040517f08c379a000000000000000000000000000000000000000000000000000000000815260040180806020018281038252602e815260200180615b91602e913960400191505060405180910390fd5b60008060019054906101000a900460ff161590508015615123576001600060016101000a81548160ff02191690831515021790555060016000806101000a81548160ff0219169083151502179055505b80156151445760008060016101000a81548160ff0219169083151502179055505b50565b600080836001016000848152602001908152602001600020541415905092915050565b60006151768383614992565b6151cf5782600001829080600181540180825580915050600190039060005260206000200160009091909190915055826000018054905083600101600084815260200190815260200160002081905550600190506151d4565b600090505b92915050565b6000808460010160008581526020019081526020016000205490506000811415615281578460000160405180604001604052808681526020018581525090806001815401808255809150506001900390600052602060002090600202016000909190919091506000820151816000015560208201518160010155505084600001805490508560010160008681526020019081526020016000208190555060019150506152af565b8285600001600183038154811061529457fe5b90600052602060002090600202016001018190555060009150505b9392505050565b60008083600101600084815260200190815260200160002054905060008114615392576000600182039050600060018660000180549050039050600086600001828154811061530157fe5b906000526020600020015490508087600001848154811061531e57fe5b906000526020600020018190555060018301876001016000838152602001908152602001600020819055508660000180548061535657fe5b60019003818190600052602060002001600090559055866001016000878152602001908152602001600020600090556001945050505050615398565b60009150505b92915050565b600080836001016000848152602001908152602001600020549050600081146154ab57600060018203905060006001866000018054905003905060008660000182815481106153e957fe5b906000526020600020906002020190508087600001848154811061540957fe5b906000526020600020906002020160008201548160000155600182015481600101559050506001830187600101600083600001548152602001908152602001600020819055508660000180548061545c57fe5b60019003818190600052602060002090600202016000808201600090556001820160009055505090558660010160008781526020019081526020016000206000905560019450505050506154b1565b60009150505b92915050565b60606154c684846000856155d8565b90509392505050565b63ffffffff60e01b817bffffffffffffffffffffffffffffffffffffffffffffffffffffffff1916141561556b576040517f08c379a000000000000000000000000000000000000000000000000000000000815260040180806020018281038252601c8152602001807f4552433136353a20696e76616c696420696e746572666163652069640000000081525060200191505060405180910390fd5b600160336000837bffffffffffffffffffffffffffffffffffffffffffffffffffffffff19167bffffffffffffffffffffffffffffffffffffffffffffffffffffffff1916815260200190815260200160002060006101000a81548160ff02191690831515021790555050565b606082471015615633576040517f08c379a0000000000000000000000000000000000000000000000000000000008152600401808060200182810382526026815260200180615a286026913960400191505060405180910390fd5b61563c85614bce565b6156ae576040517f08c379a000000000000000000000000000000000000000000000000000000000815260040180806020018281038252601d8152602001807f416464726573733a2063616c6c20746f206e6f6e2d636f6e747261637400000081525060200191505060405180910390fd5b600060608673ffffffffffffffffffffffffffffffffffffffff1685876040518082805190602001908083835b602083106156fe57805182526020820191506020810190506020830392506156db565b6001836020036101000a03801982511681845116808217855250505050505090500191505060006040518083038185875af1925050503d8060008114615760576040519150601f19603f3d011682016040523d82523d6000602084013e615765565b606091505b5091509150615775828286615781565b92505050949350505050565b6060831561579157829050615846565b6000835111156157a45782518084602001fd5b816040517f08c379a00000000000000000000000000000000000000000000000000000000081526004018080602001828103825283818151815260200191508051906020019080838360005b8381101561580b5780820151818401526020810190506157f0565b50505050905090810190601f1680156158385780820380516001836020036101000a031916815260200191505b509250505060405180910390fd5b9392505050565b50805460018160011615610100020316600290046000825580601f106158735750615892565b601f0160209004906000526020600020908101906158919190615915565b5b50565b828054600181600116156101000203166002900490600052602060002090601f016020900481019282601f106158d657805160ff1916838001178555615904565b82800160010185558215615904579182015b828111156159035782518255916020019190600101906158e8565b5b5090506159119190615915565b5090565b5b8082111561592e576000816000905550600101615916565b509056fe456e756d657261626c655365743a20696e646578206f7574206f6620626f756e6473416363657373436f6e74726f6c3a2073656e646572206d75737420626520616e2061646d696e20746f206772616e744b61726761696e3a20596f752063616e6e6f742062757920796f7572206f776e20746f6b656e2e4552433732313a207472616e7366657220746f206e6f6e20455243373231526563656976657220696d706c656d656e7465724552433732313a207472616e7366657220746f20746865207a65726f20616464726573734b61726761696e3a20416e206f6666657220697320616c7265616479207375626d69747465642e416464726573733a20696e73756666696369656e742062616c616e636520666f722063616c6c4552433732313a206f70657261746f7220717565727920666f72206e6f6e6578697374656e7420746f6b656e416363657373436f6e74726f6c3a2073656e646572206d75737420626520616e2061646d696e20746f207265766f6b654b61726761696e3a20507269636573206d7573742062652067726561746572207468616e207a65726f2e4552433732313a20617070726f76652063616c6c6572206973206e6f74206f776e6572206e6f7220617070726f76656420666f7220616c6c4552433732313a2062616c616e636520717565727920666f7220746865207a65726f20616464726573734552433732313a206f776e657220717565727920666f72206e6f6e6578697374656e7420746f6b656e4b61726761696e3a20596f7520646f206e6f74206861766520616e79206f6666657220666f72207468697320746f6b656e2e496e697469616c697a61626c653a20636f6e747261637420697320616c726561647920696e697469616c697a65644b61726761696e3a20496420666f72207468697320746f6b656e20646f6573206e6f742065786973742e456e756d657261626c654d61703a20696e646578206f7574206f6620626f756e6473536166654d6174683a206d756c7469706c69636174696f6e206f766572666c6f774b61726761696e3a20596f7520617265206e6f7420746865206f776e6572206f66207468697320746f6b656e2e4552433732313a20617070726f76656420717565727920666f72206e6f6e6578697374656e7420746f6b656e4b61726761696e3a20546865206f6666657220616d6f756e7420697320696e76616c69642e4552433732313a207472616e73666572206f6620746f6b656e2074686174206973206e6f74206f776e4552433732314d657461646174613a2055524920717565727920666f72206e6f6e6578697374656e7420746f6b656e4552433732313a20617070726f76616c20746f2063757272656e74206f776e65724552433732313a207472616e736665722063616c6c6572206973206e6f74206f776e6572206e6f7220617070726f7665644b61726761696e3a20416e206f6666657220697320616c7265616479207375626d69747465642c20746f6b656e2070726963652063616e6e6f74206265206368616e67656420756e74696c20697420657870697265732e4b61726761696e3a20446f6573206e6f7420657869737420616e79206f6666657220666f72207468697320746f6b656e2e4552433732314275726e61626c653a2063616c6c6572206973206e6f74206f776e6572206e6f7220617070726f7665644b61726761696e3a20496420666f72207468697320746f6b656e20616c7265616479206578697374732e416363657373436f6e74726f6c3a2063616e206f6e6c792072656e6f756e636520726f6c657320666f722073656c66a26469706673582212208f8474c9f2b0adf16b4c0f77ec32e81159b7f73f9957844e0c6e2b971d25cfdb64736f6c634300060c0033",
  "immutableReferences": {},
  "source": "// SPDX-License-Identifier: MIT\npragma solidity >=0.6.0 <0.8.0;\n\nimport \"@openzeppelin/contracts-upgradeable/token/ERC721/ERC721BurnableUpgradeable.sol\";\nimport \"@openzeppelin/contracts-upgradeable/access/AccessControlUpgradeable.sol\";\nimport \"@openzeppelin/contracts-upgradeable/cryptography/ECDSAUpgradeable.sol\";\nimport \"@openzeppelin/contracts-upgradeable/math/SafeMathUpgradeable.sol\";\n\ncontract Kargain is ERC721BurnableUpgradeable, AccessControlUpgradeable {\n    using SafeMathUpgradeable for uint256;\n    using ECDSAUpgradeable for bytes32;\n\n    uint256 private constant COMMISSION_EXPONENT = 4;\n    address payable private _platformAddress;\n    uint256 private _platformCommissionPercent;\n    uint256 private _offerExpirationTime = 1 days;\n\n    mapping(uint256 => uint256) private _tokens_price;\n    mapping(uint256 => address payable) private _offers;\n    mapping(uint256 => uint256) private _offers_closeTimestamp;\n\n    event TokenMinted(address indexed creator, uint256 indexed tokenId);\n    event OfferReceived(address indexed payer, uint256 tokenId, uint256 amount);\n    event OfferAccepted(address indexed payer, uint256 tokenId);\n    event OfferRejected(address indexed payer, uint256 tokenId);\n    event OfferExpired(address indexed payer, uint256 tokenId);\n    event OfferCancelled(address indexed payer, uint256 tokenId);\n\n    modifier onlyAdmin() {\n        require(\n            hasRole(DEFAULT_ADMIN_ROLE, _msgSender()),\n            \"Kargain: Caller is not a admin\"\n        );\n        _;\n    }\n\n    modifier tokenExists(uint256 _tokenId) {\n        require(\n            _exists(_tokenId),\n            \"Kargain: Id for this token does not exist.\"\n        );\n        _;\n    }\n\n    modifier onlyOwner(uint256 _tokenId) {\n        require(\n            ownerOf(_tokenId) == msg.sender,\n            \"Kargain: You are not the owner of this token.\"\n        );\n        _;\n    }\n\n    modifier offerExist(uint256 _tokenId) {\n        require(\n            _offers[_tokenId] != address(0),\n            \"Kargain: Does not exist any offer for this token.\"\n        );\n        _;\n    }\n\n    function initialize(\n        address payable _platformAddress_,\n        uint256 _platformCommissionPercent_\n    ) public initializer {\n        _platformAddress = _platformAddress_;\n        _platformCommissionPercent = _platformCommissionPercent_;\n        __ERC721Burnable_init();\n        __ERC721_init(\"Kargain\", \"KGN\");\n        __AccessControl_init();\n        _setupRole(DEFAULT_ADMIN_ROLE, msg.sender);\n    }\n\n    function platformCommissionPercent() external view returns (uint256) {\n        return _platformCommissionPercent;\n    }\n\n    function setPlatformCommissionPercent(uint256 platformCommissionPercent_)\n        external\n        onlyAdmin\n    {\n        _platformCommissionPercent = platformCommissionPercent_;\n    }\n\n    function platformAddress() external view returns (address payable) {\n        return _platformAddress;\n    }\n\n    function setPlatformAddress(address payable platformAddress_)\n        external\n        onlyAdmin\n    {\n        _platformAddress = platformAddress_;\n    }\n\n    function offerExpirationTime() external view returns (uint256) {\n        return _offerExpirationTime;\n    }\n\n    function setOfferExpirationTime(uint256 offerExpirationTime_)\n        external\n        onlyAdmin\n    {\n        _offerExpirationTime = offerExpirationTime_;\n    }\n\n    function tokenPrice(uint256 _tokenId)\n        external\n        view\n        tokenExists(_tokenId)\n        returns (uint256)\n    {\n        return _tokens_price[_tokenId];\n    }\n\n    function setTokenPrice(uint256 _tokenId, uint256 _price)\n        external\n        tokenExists(_tokenId)\n        onlyOwner(_tokenId)\n    {\n        require(\n            _offers[_tokenId] == address(0) ||\n                _offers_closeTimestamp[_tokenId] < now,\n            \"Kargain: An offer is already submitted, token price cannot be changed until it expires.\"\n        );\n        _tokens_price[_tokenId] = _price;\n    }\n\n    function offerAddress(uint256 _tokenId)\n        external\n        view\n        tokenExists(_tokenId)\n        returns (address payable)\n    {\n        return _offers[_tokenId];\n    }\n\n    function _refundOffer(uint256 _tokenId)\n        private\n        tokenExists(_tokenId)\n        offerExist(_tokenId)\n    {\n        address payable buyer = _offers[_tokenId];\n\n        delete _offers[_tokenId];\n        delete _offers_closeTimestamp[_tokenId];\n\n        buyer.transfer(_tokens_price[_tokenId]);\n    }\n\n    function mint(uint256 _tokenId, uint256 _price) external {\n        require(\n            !_exists(_tokenId),\n            \"Kargain: Id for this token already exists.\"\n        );\n        require(_price > 0, \"Kargain: Prices must be greater than zero.\");\n        super._mint(msg.sender, _tokenId);\n        _tokens_price[_tokenId] = _price;\n        emit TokenMinted(msg.sender, _tokenId);\n    }\n\n    function createOffer(uint256 _tokenId)\n        external\n        payable\n        tokenExists(_tokenId)\n    {\n        require(\n            ownerOf(_tokenId) != msg.sender,\n            \"Kargain: You cannot buy your own token.\"\n        );\n        require(\n            _offers[_tokenId] == address(0) &&\n                _offers_closeTimestamp[_tokenId] < now,\n            \"Kargain: An offer is already submitted.\"\n        );\n        require(\n            msg.value == _tokens_price[_tokenId],\n            \"Kargain: The offer amount is invalid.\"\n        );\n\n        _offers[_tokenId] = payable(msg.sender);\n        _offers_closeTimestamp[_tokenId] = now.add(_offerExpirationTime);\n        emit OfferReceived(msg.sender, _tokenId, msg.value);\n    }\n\n    function acceptOffer(uint256 _tokenId)\n        external\n        tokenExists(_tokenId)\n        offerExist(_tokenId)\n        onlyOwner(_tokenId)\n    {\n        if (_offers_closeTimestamp[_tokenId] < now) {\n            delete _offers[_tokenId];\n            delete _offers_closeTimestamp[_tokenId];\n            emit OfferExpired(msg.sender, _tokenId);\n            return;\n        }\n        address payable buyer = _offers[_tokenId];\n\n        delete _offers[_tokenId];\n        delete _offers_closeTimestamp[_tokenId];\n\n        uint256 platformCommission =\n            _tokens_price[_tokenId].mul(_platformCommissionPercent).div(\n                10**COMMISSION_EXPONENT\n            );\n        _platformAddress.transfer(platformCommission);\n\n        msg.sender.transfer(_tokens_price[_tokenId].sub(platformCommission));\n        safeTransferFrom(msg.sender, buyer, _tokenId);\n\n        emit OfferAccepted(msg.sender, _tokenId);\n    }\n\n    function rejectOffer(uint256 _tokenId)\n        external\n        tokenExists(_tokenId)\n        onlyOwner(_tokenId)\n        offerExist(_tokenId)\n    {\n        _refundOffer(_tokenId);\n\n        emit OfferRejected(msg.sender, _tokenId);\n    }\n\n    function cancelOffer(uint256 _tokenId)\n        external\n        tokenExists(_tokenId)\n        offerExist(_tokenId)\n    {\n        require(\n            _offers[_tokenId] == msg.sender ||\n                hasRole(DEFAULT_ADMIN_ROLE, msg.sender),\n            \"Kargain: You do not have any offer for this token.\"\n        );\n        _refundOffer(_tokenId);\n\n        emit OfferCancelled(msg.sender, _tokenId);\n    }\n}\n",
  "sourcePath": "/Users/danaluz/Documents/Christian/kargainworld/kargain-nft/contracts/Kargain.sol",
  "compiler": {
    "name": "solc",
    "version": "0.6.12+commit.27d51765.Emscripten.clang"
  },
  "schemaVersion": "3.4.1",
  "updatedAt": "2021-07-03T23:26:03.030Z",
  "networkType": "ethereum",
  "devdoc": {
    "kind": "dev",
    "methods": {
      "approve(address,uint256)": {
        "details": "See {IERC721-approve}."
      },
      "balanceOf(address)": {
        "details": "See {IERC721-balanceOf}."
      },
      "baseURI()": {
        "details": "Returns the base URI set via {_setBaseURI}. This will be automatically added as a prefix in {tokenURI} to each token's URI, or to the token ID if no specific URI is set for that token ID."
      },
      "burn(uint256)": {
        "details": "Burns `tokenId`. See {ERC721-_burn}. Requirements: - The caller must own `tokenId` or be an approved operator."
      },
      "getApproved(uint256)": {
        "details": "See {IERC721-getApproved}."
      },
      "getRoleAdmin(bytes32)": {
        "details": "Returns the admin role that controls `role`. See {grantRole} and {revokeRole}. To change a role's admin, use {_setRoleAdmin}."
      },
      "getRoleMember(bytes32,uint256)": {
        "details": "Returns one of the accounts that have `role`. `index` must be a value between 0 and {getRoleMemberCount}, non-inclusive. Role bearers are not sorted in any particular way, and their ordering may change at any point. WARNING: When using {getRoleMember} and {getRoleMemberCount}, make sure you perform all queries on the same block. See the following https://forum.openzeppelin.com/t/iterating-over-elements-on-enumerableset-in-openzeppelin-contracts/2296[forum post] for more information."
      },
      "getRoleMemberCount(bytes32)": {
        "details": "Returns the number of accounts that have `role`. Can be used together with {getRoleMember} to enumerate all bearers of a role."
      },
      "grantRole(bytes32,address)": {
        "details": "Grants `role` to `account`. If `account` had not been already granted `role`, emits a {RoleGranted} event. Requirements: - the caller must have ``role``'s admin role."
      },
      "hasRole(bytes32,address)": {
        "details": "Returns `true` if `account` has been granted `role`."
      },
      "isApprovedForAll(address,address)": {
        "details": "See {IERC721-isApprovedForAll}."
      },
      "name()": {
        "details": "See {IERC721Metadata-name}."
      },
      "ownerOf(uint256)": {
        "details": "See {IERC721-ownerOf}."
      },
      "renounceRole(bytes32,address)": {
        "details": "Revokes `role` from the calling account. Roles are often managed via {grantRole} and {revokeRole}: this function's purpose is to provide a mechanism for accounts to lose their privileges if they are compromised (such as when a trusted device is misplaced). If the calling account had been granted `role`, emits a {RoleRevoked} event. Requirements: - the caller must be `account`."
      },
      "revokeRole(bytes32,address)": {
        "details": "Revokes `role` from `account`. If `account` had been granted `role`, emits a {RoleRevoked} event. Requirements: - the caller must have ``role``'s admin role."
      },
      "safeTransferFrom(address,address,uint256)": {
        "details": "See {IERC721-safeTransferFrom}."
      },
      "safeTransferFrom(address,address,uint256,bytes)": {
        "details": "See {IERC721-safeTransferFrom}."
      },
      "setApprovalForAll(address,bool)": {
        "details": "See {IERC721-setApprovalForAll}."
      },
      "supportsInterface(bytes4)": {
        "details": "See {IERC165-supportsInterface}. Time complexity O(1), guaranteed to always use less than 30 000 gas."
      },
      "symbol()": {
        "details": "See {IERC721Metadata-symbol}."
      },
      "tokenByIndex(uint256)": {
        "details": "See {IERC721Enumerable-tokenByIndex}."
      },
      "tokenOfOwnerByIndex(address,uint256)": {
        "details": "See {IERC721Enumerable-tokenOfOwnerByIndex}."
      },
      "tokenURI(uint256)": {
        "details": "See {IERC721Metadata-tokenURI}."
      },
      "totalSupply()": {
        "details": "See {IERC721Enumerable-totalSupply}."
      },
      "transferFrom(address,address,uint256)": {
        "details": "See {IERC721-transferFrom}."
      }
    },
    "version": 1
  },
  "userdoc": {
    "kind": "user",
    "methods": {},
    "version": 1
  }
}